{
  "_format": "hh-sol-artifact-1",
  "contractName": "NFT",
  "sourceName": "contracts/NFT.sol",
  "abi": [
    {
      "inputs": [],
      "stateMutability": "nonpayable",
      "type": "constructor"
    },
    {
      "anonymous": false,
      "inputs": [
        {
          "indexed": true,
          "internalType": "address",
          "name": "owner",
          "type": "address"
        },
        {
          "indexed": true,
          "internalType": "address",
          "name": "approved",
          "type": "address"
        },
        {
          "indexed": true,
          "internalType": "uint256",
          "name": "tokenId",
          "type": "uint256"
        }
      ],
      "name": "Approval",
      "type": "event"
    },
    {
      "anonymous": false,
      "inputs": [
        {
          "indexed": true,
          "internalType": "address",
          "name": "owner",
          "type": "address"
        },
        {
          "indexed": true,
          "internalType": "address",
          "name": "operator",
          "type": "address"
        },
        {
          "indexed": false,
          "internalType": "bool",
          "name": "approved",
          "type": "bool"
        }
      ],
      "name": "ApprovalForAll",
      "type": "event"
    },
    {
      "anonymous": false,
      "inputs": [
        {
          "indexed": true,
          "internalType": "address",
          "name": "from",
          "type": "address"
        },
        {
          "indexed": true,
          "internalType": "address",
          "name": "to",
          "type": "address"
        },
        {
          "indexed": true,
          "internalType": "uint256",
          "name": "tokenId",
          "type": "uint256"
        }
      ],
      "name": "Transfer",
      "type": "event"
    },
    {
      "inputs": [
        {
          "internalType": "address",
          "name": "to",
          "type": "address"
        },
        {
          "internalType": "uint256",
          "name": "tokenId",
          "type": "uint256"
        }
      ],
      "name": "approve",
      "outputs": [],
      "stateMutability": "nonpayable",
      "type": "function"
    },
    {
      "inputs": [
        {
          "internalType": "address",
          "name": "owner",
          "type": "address"
        }
      ],
      "name": "balanceOf",
      "outputs": [
        {
          "internalType": "uint256",
          "name": "",
          "type": "uint256"
        }
      ],
      "stateMutability": "view",
      "type": "function"
    },
    {
      "inputs": [
        {
          "internalType": "uint256",
          "name": "tokenId",
          "type": "uint256"
        }
      ],
      "name": "getApproved",
      "outputs": [
        {
          "internalType": "address",
          "name": "",
          "type": "address"
        }
      ],
      "stateMutability": "view",
      "type": "function"
    },
    {
      "inputs": [
        {
          "internalType": "address",
          "name": "owner",
          "type": "address"
        },
        {
          "internalType": "address",
          "name": "operator",
          "type": "address"
        }
      ],
      "name": "isApprovedForAll",
      "outputs": [
        {
          "internalType": "bool",
          "name": "",
          "type": "bool"
        }
      ],
      "stateMutability": "view",
      "type": "function"
    },
    {
      "inputs": [
        {
          "internalType": "address",
          "name": "_to",
          "type": "address"
        },
        {
          "internalType": "string",
          "name": "_rating",
          "type": "string"
        }
      ],
      "name": "makeAnNFT",
      "outputs": [],
      "stateMutability": "nonpayable",
      "type": "function"
    },
    {
      "inputs": [],
      "name": "name",
      "outputs": [
        {
          "internalType": "string",
          "name": "",
          "type": "string"
        }
      ],
      "stateMutability": "view",
      "type": "function"
    },
    {
      "inputs": [
        {
          "internalType": "uint256",
          "name": "tokenId",
          "type": "uint256"
        }
      ],
      "name": "ownerOf",
      "outputs": [
        {
          "internalType": "address",
          "name": "",
          "type": "address"
        }
      ],
      "stateMutability": "view",
      "type": "function"
    },
    {
      "inputs": [
        {
          "internalType": "address",
          "name": "from",
          "type": "address"
        },
        {
          "internalType": "address",
          "name": "to",
          "type": "address"
        },
        {
          "internalType": "uint256",
          "name": "tokenId",
          "type": "uint256"
        }
      ],
      "name": "safeTransferFrom",
      "outputs": [],
      "stateMutability": "nonpayable",
      "type": "function"
    },
    {
      "inputs": [
        {
          "internalType": "address",
          "name": "from",
          "type": "address"
        },
        {
          "internalType": "address",
          "name": "to",
          "type": "address"
        },
        {
          "internalType": "uint256",
          "name": "tokenId",
          "type": "uint256"
        },
        {
          "internalType": "bytes",
          "name": "data",
          "type": "bytes"
        }
      ],
      "name": "safeTransferFrom",
      "outputs": [],
      "stateMutability": "nonpayable",
      "type": "function"
    },
    {
      "inputs": [
        {
          "internalType": "address",
          "name": "operator",
          "type": "address"
        },
        {
          "internalType": "bool",
          "name": "approved",
          "type": "bool"
        }
      ],
      "name": "setApprovalForAll",
      "outputs": [],
      "stateMutability": "nonpayable",
      "type": "function"
    },
    {
      "inputs": [
        {
          "internalType": "bytes4",
          "name": "interfaceId",
          "type": "bytes4"
        }
      ],
      "name": "supportsInterface",
      "outputs": [
        {
          "internalType": "bool",
          "name": "",
          "type": "bool"
        }
      ],
      "stateMutability": "view",
      "type": "function"
    },
    {
      "inputs": [],
      "name": "symbol",
      "outputs": [
        {
          "internalType": "string",
          "name": "",
          "type": "string"
        }
      ],
      "stateMutability": "view",
      "type": "function"
    },
    {
      "inputs": [
        {
          "internalType": "uint256",
          "name": "tokenId",
          "type": "uint256"
        }
      ],
      "name": "tokenURI",
      "outputs": [
        {
          "internalType": "string",
          "name": "",
          "type": "string"
        }
      ],
      "stateMutability": "view",
      "type": "function"
    },
    {
      "inputs": [
        {
          "internalType": "address",
          "name": "from",
          "type": "address"
        },
        {
          "internalType": "address",
          "name": "to",
          "type": "address"
        },
        {
          "internalType": "uint256",
          "name": "tokenId",
          "type": "uint256"
        }
      ],
      "name": "transferFrom",
      "outputs": [],
      "stateMutability": "nonpayable",
      "type": "function"
    }
  ],
  "bytecode": "0x608060405260405180610160016040528061013081526020016200359561013091396008908162000031919062000352565b503480156200003f57600080fd5b506040518060400160405280600981526020017f526174696e674e465400000000000000000000000000000000000000000000008152506040518060400160405280600681526020017f526174696e6700000000000000000000000000000000000000000000000000008152508160009081620000bd919062000352565b508060019081620000cf919062000352565b50505062000439565b600081519050919050565b7f4e487b7100000000000000000000000000000000000000000000000000000000600052604160045260246000fd5b7f4e487b7100000000000000000000000000000000000000000000000000000000600052602260045260246000fd5b600060028204905060018216806200015a57607f821691505b60208210810362000170576200016f62000112565b5b50919050565b60008190508160005260206000209050919050565b60006020601f8301049050919050565b600082821b905092915050565b600060088302620001da7fffffffffffffffffffffffffffffffffffffffffffffffffffffffffffffffff826200019b565b620001e686836200019b565b95508019841693508086168417925050509392505050565b6000819050919050565b6000819050919050565b6000620002336200022d6200022784620001fe565b62000208565b620001fe565b9050919050565b6000819050919050565b6200024f8362000212565b620002676200025e826200023a565b848454620001a8565b825550505050565b600090565b6200027e6200026f565b6200028b81848462000244565b505050565b5b81811015620002b357620002a760008262000274565b60018101905062000291565b5050565b601f8211156200030257620002cc8162000176565b620002d7846200018b565b81016020851015620002e7578190505b620002ff620002f6856200018b565b83018262000290565b50505b505050565b600082821c905092915050565b6000620003276000198460080262000307565b1980831691505092915050565b600062000342838362000314565b9150826002028217905092915050565b6200035d82620000d8565b67ffffffffffffffff811115620003795762000378620000e3565b5b62000385825462000141565b62000392828285620002b7565b600060209050601f831160018114620003ca5760008415620003b5578287015190505b620003c1858262000334565b86555062000431565b601f198416620003da8662000176565b60005b828110156200040457848901518255600182019150602085019450602081019050620003dd565b8683101562000424578489015162000420601f89168262000314565b8355505b6001600288020188555050505b505050505050565b61314c80620004496000396000f3fe608060405234801561001057600080fd5b50600436106100ea5760003560e01c806370a082311161008c578063a22cb46511610066578063a22cb4651461025b578063b88d4fde14610277578063c87b56dd14610293578063e985e9c5146102c3576100ea565b806370a08231146101f15780638be6e43c1461022157806395d89b411461023d576100ea565b8063095ea7b3116100c8578063095ea7b31461016d57806323b872dd1461018957806342842e0e146101a55780636352211e146101c1576100ea565b806301ffc9a7146100ef57806306fdde031461011f578063081812fc1461013d575b600080fd5b61010960048036038101906101049190611c82565b6102f3565b6040516101169190611cca565b60405180910390f35b6101276103d5565b6040516101349190611d75565b60405180910390f35b61015760048036038101906101529190611dcd565b610467565b6040516101649190611e3b565b60405180910390f35b61018760048036038101906101829190611e82565b6104ad565b005b6101a3600480360381019061019e9190611ec2565b6105c4565b005b6101bf60048036038101906101ba9190611ec2565b610624565b005b6101db60048036038101906101d69190611dcd565b610644565b6040516101e89190611e3b565b60405180910390f35b61020b60048036038101906102069190611f15565b6106ca565b6040516102189190611f51565b60405180910390f35b61023b600480360381019061023691906120a1565b610781565b005b610245610846565b6040516102529190611d75565b60405180910390f35b61027560048036038101906102709190612129565b6108d8565b005b610291600480360381019061028c919061220a565b6108ee565b005b6102ad60048036038101906102a89190611dcd565b610950565b6040516102ba9190611d75565b60405180910390f35b6102dd60048036038101906102d8919061228d565b610a62565b6040516102ea9190611cca565b60405180910390f35b60007f80ac58cd000000000000000000000000000000000000000000000000000000007bffffffffffffffffffffffffffffffffffffffffffffffffffffffff1916827bffffffffffffffffffffffffffffffffffffffffffffffffffffffff191614806103be57507f5b5e139f000000000000000000000000000000000000000000000000000000007bffffffffffffffffffffffffffffffffffffffffffffffffffffffff1916827bffffffffffffffffffffffffffffffffffffffffffffffffffffffff1916145b806103ce57506103cd82610af6565b5b9050919050565b6060600080546103e4906122fc565b80601f0160208091040260200160405190810160405280929190818152602001828054610410906122fc565b801561045d5780601f106104325761010080835404028352916020019161045d565b820191906000526020600020905b81548152906001019060200180831161044057829003601f168201915b5050505050905090565b600061047282610b60565b6004600083815260200190815260200160002060009054906101000a900473ffffffffffffffffffffffffffffffffffffffff169050919050565b60006104b882610644565b90508073ffffffffffffffffffffffffffffffffffffffff168373ffffffffffffffffffffffffffffffffffffffff1603610528576040517f08c379a000000000000000000000000000000000000000000000000000000000815260040161051f9061239f565b60405180910390fd5b8073ffffffffffffffffffffffffffffffffffffffff16610547610bab565b73ffffffffffffffffffffffffffffffffffffffff161480610576575061057581610570610bab565b610a62565b5b6105b5576040517f08c379a00000000000000000000000000000000000000000000000000000000081526004016105ac90612431565b60405180910390fd5b6105bf8383610bb3565b505050565b6105d56105cf610bab565b82610c6c565b610614576040517f08c379a000000000000000000000000000000000000000000000000000000000815260040161060b906124c3565b60405180910390fd5b61061f838383610d01565b505050565b61063f838383604051806020016040528060008152506108ee565b505050565b60008061065083610ffa565b9050600073ffffffffffffffffffffffffffffffffffffffff168173ffffffffffffffffffffffffffffffffffffffff16036106c1576040517f08c379a00000000000000000000000000000000000000000000000000000000081526004016106b89061252f565b60405180910390fd5b80915050919050565b60008073ffffffffffffffffffffffffffffffffffffffff168273ffffffffffffffffffffffffffffffffffffffff160361073a576040517f08c379a0000000000000000000000000000000000000000000000000000000008152600401610731906125c1565b60405180910390fd5b600360008373ffffffffffffffffffffffffffffffffffffffff1673ffffffffffffffffffffffffffffffffffffffff168152602001908152602001600020549050919050565b600061078d6007611037565b905060006008836040516020016107a5929190612701565b60405160208183030381529060405290506107bf81611045565b60006107f16107cd836110de565b6040516020016107dd919061283a565b6040516020818303038152906040526110de565b905060008160405160200161080691906128b3565b604051602081830303815290604052905061082082611045565b61082a8685611275565b6108348482611293565b61083e6007611300565b505050505050565b606060018054610855906122fc565b80601f0160208091040260200160405190810160405280929190818152602001828054610881906122fc565b80156108ce5780601f106108a3576101008083540402835291602001916108ce565b820191906000526020600020905b8154815290600101906020018083116108b157829003601f168201915b5050505050905090565b6108ea6108e3610bab565b8383611316565b5050565b6108ff6108f9610bab565b83610c6c565b61093e576040517f08c379a0000000000000000000000000000000000000000000000000000000008152600401610935906124c3565b60405180910390fd5b61094a84848484611482565b50505050565b606061095b82610b60565b600060066000848152602001908152602001600020805461097b906122fc565b80601f01602080910402602001604051908101604052809291908181526020018280546109a7906122fc565b80156109f45780601f106109c9576101008083540402835291602001916109f4565b820191906000526020600020905b8154815290600101906020018083116109d757829003601f168201915b505050505090506000610a056114de565b90506000815103610a1a578192505050610a5d565b600082511115610a4f578082604051602001610a379291906128d5565b60405160208183030381529060405292505050610a5d565b610a58846114f5565b925050505b919050565b6000600560008473ffffffffffffffffffffffffffffffffffffffff1673ffffffffffffffffffffffffffffffffffffffff16815260200190815260200160002060008373ffffffffffffffffffffffffffffffffffffffff1673ffffffffffffffffffffffffffffffffffffffff16815260200190815260200160002060009054906101000a900460ff16905092915050565b60007f01ffc9a7000000000000000000000000000000000000000000000000000000007bffffffffffffffffffffffffffffffffffffffffffffffffffffffff1916827bffffffffffffffffffffffffffffffffffffffffffffffffffffffff1916149050919050565b610b698161155d565b610ba8576040517f08c379a0000000000000000000000000000000000000000000000000000000008152600401610b9f9061252f565b60405180910390fd5b50565b600033905090565b816004600083815260200190815260200160002060006101000a81548173ffffffffffffffffffffffffffffffffffffffff021916908373ffffffffffffffffffffffffffffffffffffffff160217905550808273ffffffffffffffffffffffffffffffffffffffff16610c2683610644565b73ffffffffffffffffffffffffffffffffffffffff167f8c5be1e5ebec7d5bd14f71427d1e84f3dd0314c0f7b2291e5b200ac8c7c3b92560405160405180910390a45050565b600080610c7883610644565b90508073ffffffffffffffffffffffffffffffffffffffff168473ffffffffffffffffffffffffffffffffffffffff161480610cba5750610cb98185610a62565b5b80610cf857508373ffffffffffffffffffffffffffffffffffffffff16610ce084610467565b73ffffffffffffffffffffffffffffffffffffffff16145b91505092915050565b8273ffffffffffffffffffffffffffffffffffffffff16610d2182610644565b73ffffffffffffffffffffffffffffffffffffffff1614610d77576040517f08c379a0000000000000000000000000000000000000000000000000000000008152600401610d6e9061296b565b60405180910390fd5b600073ffffffffffffffffffffffffffffffffffffffff168273ffffffffffffffffffffffffffffffffffffffff1603610de6576040517f08c379a0000000000000000000000000000000000000000000000000000000008152600401610ddd906129fd565b60405180910390fd5b610df3838383600161159e565b8273ffffffffffffffffffffffffffffffffffffffff16610e1382610644565b73ffffffffffffffffffffffffffffffffffffffff1614610e69576040517f08c379a0000000000000000000000000000000000000000000000000000000008152600401610e609061296b565b60405180910390fd5b6004600082815260200190815260200160002060006101000a81549073ffffffffffffffffffffffffffffffffffffffff02191690556001600360008573ffffffffffffffffffffffffffffffffffffffff1673ffffffffffffffffffffffffffffffffffffffff168152602001908152602001600020600082825403925050819055506001600360008473ffffffffffffffffffffffffffffffffffffffff1673ffffffffffffffffffffffffffffffffffffffff16815260200190815260200160002060008282540192505081905550816002600083815260200190815260200160002060006101000a81548173ffffffffffffffffffffffffffffffffffffffff021916908373ffffffffffffffffffffffffffffffffffffffff160217905550808273ffffffffffffffffffffffffffffffffffffffff168473ffffffffffffffffffffffffffffffffffffffff167fddf252ad1be2c89b69c2b068fc378daa952ba7f163c4a11628f55a4df523b3ef60405160405180910390a4610ff583838360016115a4565b505050565b60006002600083815260200190815260200160002060009054906101000a900473ffffffffffffffffffffffffffffffffffffffff169050919050565b600081600001549050919050565b6110db816040516024016110599190611d75565b6040516020818303038152906040527f41304fac000000000000000000000000000000000000000000000000000000007bffffffffffffffffffffffffffffffffffffffffffffffffffffffff19166020820180517bffffffffffffffffffffffffffffffffffffffffffffffffffffffff83818316178352505050506115aa565b50565b6060600082519050600081036111065760405180602001604052806000815250915050611270565b600060036002836111179190612a4c565b6111219190612aaf565b600461112d9190612ae0565b9050600060208261113e9190612a4c565b67ffffffffffffffff81111561115757611156611f76565b5b6040519080825280601f01601f1916602001820160405280156111895781602001600182028036833780820191505090505b50905060006040518060600160405280604081526020016130d7604091399050600181016020830160005b8681101561122d5760038101905062ffffff818a015116603f8160121c168401518060081b905060ff603f83600c1c1686015116810190508060081b905060ff603f8360061c1686015116810190508060081b905060ff603f831686015116810190508060e01b905080845260048401935050506111b4565b506003860660018114611247576002811461125757611262565b613d3d60f01b6002830352611262565b603d60f81b60018303525b508484525050819450505050505b919050565b61128f8282604051806020016040528060008152506115d3565b5050565b61129c8261155d565b6112db576040517f08c379a00000000000000000000000000000000000000000000000000000000081526004016112d290612b94565b60405180910390fd5b806006600084815260200190815260200160002090816112fb9190612d4b565b505050565b6001816000016000828254019250508190555050565b8173ffffffffffffffffffffffffffffffffffffffff168373ffffffffffffffffffffffffffffffffffffffff1603611384576040517f08c379a000000000000000000000000000000000000000000000000000000000815260040161137b90612e69565b60405180910390fd5b80600560008573ffffffffffffffffffffffffffffffffffffffff1673ffffffffffffffffffffffffffffffffffffffff16815260200190815260200160002060008473ffffffffffffffffffffffffffffffffffffffff1673ffffffffffffffffffffffffffffffffffffffff16815260200190815260200160002060006101000a81548160ff0219169083151502179055508173ffffffffffffffffffffffffffffffffffffffff168373ffffffffffffffffffffffffffffffffffffffff167f17307eab39ab6107e8899845ad3d59bd9653f200f220920489ca2b5937696c31836040516114759190611cca565b60405180910390a3505050565b61148d848484610d01565b6114998484848461162e565b6114d8576040517f08c379a00000000000000000000000000000000000000000000000000000000081526004016114cf90612efb565b60405180910390fd5b50505050565b606060405180602001604052806000815250905090565b606061150082610b60565b600061150a6114de565b9050600081511161152a5760405180602001604052806000815250611555565b80611534846117b5565b6040516020016115459291906128d5565b6040516020818303038152906040525b915050919050565b60008073ffffffffffffffffffffffffffffffffffffffff1661157f83610ffa565b73ffffffffffffffffffffffffffffffffffffffff1614159050919050565b50505050565b50505050565b60008151905060006a636f6e736f6c652e6c6f679050602083016000808483855afa5050505050565b6115dd8383611883565b6115ea600084848461162e565b611629576040517f08c379a000000000000000000000000000000000000000000000000000000000815260040161162090612efb565b60405180910390fd5b505050565b600061164f8473ffffffffffffffffffffffffffffffffffffffff16611aa0565b156117a8578373ffffffffffffffffffffffffffffffffffffffff1663150b7a02611678610bab565b8786866040518563ffffffff1660e01b815260040161169a9493929190612f70565b6020604051808303816000875af19250505080156116d657506040513d601f19601f820116820180604052508101906116d39190612fd1565b60015b611758573d8060008114611706576040519150601f19603f3d011682016040523d82523d6000602084013e61170b565b606091505b506000815103611750576040517f08c379a000000000000000000000000000000000000000000000000000000000815260040161174790612efb565b60405180910390fd5b805181602001fd5b63150b7a0260e01b7bffffffffffffffffffffffffffffffffffffffffffffffffffffffff1916817bffffffffffffffffffffffffffffffffffffffffffffffffffffffff1916149150506117ad565b600190505b949350505050565b6060600060016117c484611ac3565b01905060008167ffffffffffffffff8111156117e3576117e2611f76565b5b6040519080825280601f01601f1916602001820160405280156118155781602001600182028036833780820191505090505b509050600082602001820190505b600115611878578080600190039150507f3031323334353637383961626364656600000000000000000000000000000000600a86061a8153600a858161186c5761186b612a80565b5b04945060008503611823575b819350505050919050565b600073ffffffffffffffffffffffffffffffffffffffff168273ffffffffffffffffffffffffffffffffffffffff16036118f2576040517f08c379a00000000000000000000000000000000000000000000000000000000081526004016118e99061304a565b60405180910390fd5b6118fb8161155d565b1561193b576040517f08c379a0000000000000000000000000000000000000000000000000000000008152600401611932906130b6565b60405180910390fd5b61194960008383600161159e565b6119528161155d565b15611992576040517f08c379a0000000000000000000000000000000000000000000000000000000008152600401611989906130b6565b60405180910390fd5b6001600360008473ffffffffffffffffffffffffffffffffffffffff1673ffffffffffffffffffffffffffffffffffffffff16815260200190815260200160002060008282540192505081905550816002600083815260200190815260200160002060006101000a81548173ffffffffffffffffffffffffffffffffffffffff021916908373ffffffffffffffffffffffffffffffffffffffff160217905550808273ffffffffffffffffffffffffffffffffffffffff16600073ffffffffffffffffffffffffffffffffffffffff167fddf252ad1be2c89b69c2b068fc378daa952ba7f163c4a11628f55a4df523b3ef60405160405180910390a4611a9c6000838360016115a4565b5050565b6000808273ffffffffffffffffffffffffffffffffffffffff163b119050919050565b600080600090507a184f03e93ff9f4daa797ed6e38ed64bf6a1f0100000000000000008310611b21577a184f03e93ff9f4daa797ed6e38ed64bf6a1f0100000000000000008381611b1757611b16612a80565b5b0492506040810190505b6d04ee2d6d415b85acef81000000008310611b5e576d04ee2d6d415b85acef81000000008381611b5457611b53612a80565b5b0492506020810190505b662386f26fc100008310611b8d57662386f26fc100008381611b8357611b82612a80565b5b0492506010810190505b6305f5e1008310611bb6576305f5e1008381611bac57611bab612a80565b5b0492506008810190505b6127108310611bdb576127108381611bd157611bd0612a80565b5b0492506004810190505b60648310611bfe5760648381611bf457611bf3612a80565b5b0492506002810190505b600a8310611c0d576001810190505b80915050919050565b6000604051905090565b600080fd5b600080fd5b60007fffffffff0000000000000000000000000000000000000000000000000000000082169050919050565b611c5f81611c2a565b8114611c6a57600080fd5b50565b600081359050611c7c81611c56565b92915050565b600060208284031215611c9857611c97611c20565b5b6000611ca684828501611c6d565b91505092915050565b60008115159050919050565b611cc481611caf565b82525050565b6000602082019050611cdf6000830184611cbb565b92915050565b600081519050919050565b600082825260208201905092915050565b60005b83811015611d1f578082015181840152602081019050611d04565b60008484015250505050565b6000601f19601f8301169050919050565b6000611d4782611ce5565b611d518185611cf0565b9350611d61818560208601611d01565b611d6a81611d2b565b840191505092915050565b60006020820190508181036000830152611d8f8184611d3c565b905092915050565b6000819050919050565b611daa81611d97565b8114611db557600080fd5b50565b600081359050611dc781611da1565b92915050565b600060208284031215611de357611de2611c20565b5b6000611df184828501611db8565b91505092915050565b600073ffffffffffffffffffffffffffffffffffffffff82169050919050565b6000611e2582611dfa565b9050919050565b611e3581611e1a565b82525050565b6000602082019050611e506000830184611e2c565b92915050565b611e5f81611e1a565b8114611e6a57600080fd5b50565b600081359050611e7c81611e56565b92915050565b60008060408385031215611e9957611e98611c20565b5b6000611ea785828601611e6d565b9250506020611eb885828601611db8565b9150509250929050565b600080600060608486031215611edb57611eda611c20565b5b6000611ee986828701611e6d565b9350506020611efa86828701611e6d565b9250506040611f0b86828701611db8565b9150509250925092565b600060208284031215611f2b57611f2a611c20565b5b6000611f3984828501611e6d565b91505092915050565b611f4b81611d97565b82525050565b6000602082019050611f666000830184611f42565b92915050565b600080fd5b600080fd5b7f4e487b7100000000000000000000000000000000000000000000000000000000600052604160045260246000fd5b611fae82611d2b565b810181811067ffffffffffffffff82111715611fcd57611fcc611f76565b5b80604052505050565b6000611fe0611c16565b9050611fec8282611fa5565b919050565b600067ffffffffffffffff82111561200c5761200b611f76565b5b61201582611d2b565b9050602081019050919050565b82818337600083830152505050565b600061204461203f84611ff1565b611fd6565b9050828152602081018484840111156120605761205f611f71565b5b61206b848285612022565b509392505050565b600082601f83011261208857612087611f6c565b5b8135612098848260208601612031565b91505092915050565b600080604083850312156120b8576120b7611c20565b5b60006120c685828601611e6d565b925050602083013567ffffffffffffffff8111156120e7576120e6611c25565b5b6120f385828601612073565b9150509250929050565b61210681611caf565b811461211157600080fd5b50565b600081359050612123816120fd565b92915050565b600080604083850312156121405761213f611c20565b5b600061214e85828601611e6d565b925050602061215f85828601612114565b9150509250929050565b600067ffffffffffffffff82111561218457612183611f76565b5b61218d82611d2b565b9050602081019050919050565b60006121ad6121a884612169565b611fd6565b9050828152602081018484840111156121c9576121c8611f71565b5b6121d4848285612022565b509392505050565b600082601f8301126121f1576121f0611f6c565b5b813561220184826020860161219a565b91505092915050565b6000806000806080858703121561222457612223611c20565b5b600061223287828801611e6d565b945050602061224387828801611e6d565b935050604061225487828801611db8565b925050606085013567ffffffffffffffff81111561227557612274611c25565b5b612281878288016121dc565b91505092959194509250565b600080604083850312156122a4576122a3611c20565b5b60006122b285828601611e6d565b92505060206122c385828601611e6d565b9150509250929050565b7f4e487b7100000000000000000000000000000000000000000000000000000000600052602260045260246000fd5b6000600282049050600182168061231457607f821691505b602082108103612327576123266122cd565b5b50919050565b7f4552433732313a20617070726f76616c20746f2063757272656e74206f776e6560008201527f7200000000000000000000000000000000000000000000000000000000000000602082015250565b6000612389602183611cf0565b91506123948261232d565b604082019050919050565b600060208201905081810360008301526123b88161237c565b9050919050565b7f4552433732313a20617070726f76652063616c6c6572206973206e6f7420746f60008201527f6b656e206f776e6572206f7220617070726f76656420666f7220616c6c000000602082015250565b600061241b603d83611cf0565b9150612426826123bf565b604082019050919050565b6000602082019050818103600083015261244a8161240e565b9050919050565b7f4552433732313a2063616c6c6572206973206e6f7420746f6b656e206f776e6560008201527f72206f7220617070726f76656400000000000000000000000000000000000000602082015250565b60006124ad602d83611cf0565b91506124b882612451565b604082019050919050565b600060208201905081810360008301526124dc816124a0565b9050919050565b7f4552433732313a20696e76616c696420746f6b656e2049440000000000000000600082015250565b6000612519601883611cf0565b9150612524826124e3565b602082019050919050565b600060208201905081810360008301526125488161250c565b9050919050565b7f4552433732313a2061646472657373207a65726f206973206e6f74206120766160008201527f6c6964206f776e65720000000000000000000000000000000000000000000000602082015250565b60006125ab602983611cf0565b91506125b68261254f565b604082019050919050565b600060208201905081810360008301526125da8161259e565b9050919050565b600081905092915050565b60008190508160005260206000209050919050565b6000815461260e816122fc565b61261881866125e1565b9450600182166000811461263357600181146126485761267b565b60ff198316865281151582028601935061267b565b612651856125ec565b60005b8381101561267357815481890152600182019150602081019050612654565b838801955050505b50505092915050565b600061268f82611ce5565b61269981856125e1565b93506126a9818560208601611d01565b80840191505092915050565b7f3c2f746578743e3c2f7376673e00000000000000000000000000000000000000600082015250565b60006126eb600d836125e1565b91506126f6826126b5565b600d82019050919050565b600061270d8285612601565b91506127198284612684565b9150612724826126de565b91508190509392505050565b7f7b226e616d65223a202244796e616d696320526174696e67204e4654222c226460008201527f65736372697074696f6e223a20224e465420776869636820646973706c61797360208201527f20746865206163636f756e7420726174696e67222c2022696d616765223a202260408201527f646174613a696d6167652f7376672b786d6c3b6261736536342c000000000000606082015250565b60006127d8607a836125e1565b91506127e382612730565b607a82019050919050565b7f227d000000000000000000000000000000000000000000000000000000000000600082015250565b60006128246002836125e1565b915061282f826127ee565b600282019050919050565b6000612845826127cb565b91506128518284612684565b915061285c82612817565b915081905092915050565b7f646174613a6170706c69636174696f6e2f6a736f6e3b6261736536342c000000600082015250565b600061289d601d836125e1565b91506128a882612867565b601d82019050919050565b60006128be82612890565b91506128ca8284612684565b915081905092915050565b60006128e18285612684565b91506128ed8284612684565b91508190509392505050565b7f4552433732313a207472616e736665722066726f6d20696e636f72726563742060008201527f6f776e6572000000000000000000000000000000000000000000000000000000602082015250565b6000612955602583611cf0565b9150612960826128f9565b604082019050919050565b6000602082019050818103600083015261298481612948565b9050919050565b7f4552433732313a207472616e7366657220746f20746865207a65726f2061646460008201527f7265737300000000000000000000000000000000000000000000000000000000602082015250565b60006129e7602483611cf0565b91506129f28261298b565b604082019050919050565b60006020820190508181036000830152612a16816129da565b9050919050565b7f4e487b7100000000000000000000000000000000000000000000000000000000600052601160045260246000fd5b6000612a5782611d97565b9150612a6283611d97565b9250828201905080821115612a7a57612a79612a1d565b5b92915050565b7f4e487b7100000000000000000000000000000000000000000000000000000000600052601260045260246000fd5b6000612aba82611d97565b9150612ac583611d97565b925082612ad557612ad4612a80565b5b828204905092915050565b6000612aeb82611d97565b9150612af683611d97565b9250828202612b0481611d97565b91508282048414831517612b1b57612b1a612a1d565b5b5092915050565b7f45524337323155524953746f726167653a2055524920736574206f66206e6f6e60008201527f6578697374656e7420746f6b656e000000000000000000000000000000000000602082015250565b6000612b7e602e83611cf0565b9150612b8982612b22565b604082019050919050565b60006020820190508181036000830152612bad81612b71565b9050919050565b60006020601f8301049050919050565b600082821b905092915050565b600060088302612c017fffffffffffffffffffffffffffffffffffffffffffffffffffffffffffffffff82612bc4565b612c0b8683612bc4565b95508019841693508086168417925050509392505050565b6000819050919050565b6000612c48612c43612c3e84611d97565b612c23565b611d97565b9050919050565b6000819050919050565b612c6283612c2d565b612c76612c6e82612c4f565b848454612bd1565b825550505050565b600090565b612c8b612c7e565b612c96818484612c59565b505050565b5b81811015612cba57612caf600082612c83565b600181019050612c9c565b5050565b601f821115612cff57612cd0816125ec565b612cd984612bb4565b81016020851015612ce8578190505b612cfc612cf485612bb4565b830182612c9b565b50505b505050565b600082821c905092915050565b6000612d2260001984600802612d04565b1980831691505092915050565b6000612d3b8383612d11565b9150826002028217905092915050565b612d5482611ce5565b67ffffffffffffffff811115612d6d57612d6c611f76565b5b612d7782546122fc565b612d82828285612cbe565b600060209050601f831160018114612db55760008415612da3578287015190505b612dad8582612d2f565b865550612e15565b601f198416612dc3866125ec565b60005b82811015612deb57848901518255600182019150602085019450602081019050612dc6565b86831015612e085784890151612e04601f891682612d11565b8355505b6001600288020188555050505b505050505050565b7f4552433732313a20617070726f766520746f2063616c6c657200000000000000600082015250565b6000612e53601983611cf0565b9150612e5e82612e1d565b602082019050919050565b60006020820190508181036000830152612e8281612e46565b9050919050565b7f4552433732313a207472616e7366657220746f206e6f6e20455243373231526560008201527f63656976657220696d706c656d656e7465720000000000000000000000000000602082015250565b6000612ee5603283611cf0565b9150612ef082612e89565b604082019050919050565b60006020820190508181036000830152612f1481612ed8565b9050919050565b600081519050919050565b600082825260208201905092915050565b6000612f4282612f1b565b612f4c8185612f26565b9350612f5c818560208601611d01565b612f6581611d2b565b840191505092915050565b6000608082019050612f856000830187611e2c565b612f926020830186611e2c565b612f9f6040830185611f42565b8181036060830152612fb18184612f37565b905095945050505050565b600081519050612fcb81611c56565b92915050565b600060208284031215612fe757612fe6611c20565b5b6000612ff584828501612fbc565b91505092915050565b7f4552433732313a206d696e7420746f20746865207a65726f2061646472657373600082015250565b6000613034602083611cf0565b915061303f82612ffe565b602082019050919050565b6000602082019050818103600083015261306381613027565b9050919050565b7f4552433732313a20746f6b656e20616c7265616479206d696e74656400000000600082015250565b60006130a0601c83611cf0565b91506130ab8261306a565b602082019050919050565b600060208201905081810360008301526130cf81613093565b905091905056fe4142434445464748494a4b4c4d4e4f505152535455565758595a6162636465666768696a6b6c6d6e6f707172737475767778797a303132333435363738392b2fa2646970667358221220dcf088d7f8932a1ad267e408f50f8c645fc39a726e3c4ab8f09010175066cc6364736f6c634300081300333c73766720786d6c6e733d27687474703a2f2f7777772e77332e6f72672f323030302f73766727207072657365727665417370656374526174696f3d27784d696e594d696e206d656574272076696577426f783d273020302033353020333530273e3c7374796c653e2e62617365207b2066696c6c3a2077686974653b20666f6e742d66616d696c793a2073657269663b20666f6e742d73697a653a2031303070783b207d3c2f7374796c653e3c726563742077696474683d273130302527206865696768743d2731303025272066696c6c3d27626c61636b27202f3e3c7465787420783d273530252720793d273530252720636c6173733d27626173652720646f6d696e616e742d626173656c696e653d276d6964646c652720746578742d616e63686f723d276d6964646c65273e",
  "linkReferences": {},
  "deployedLinkReferences": {}
}