{"contracts/Credit.sol":{"Credit":{"abi":[{"anonymous":false,"inputs":[{"indexed":false,"internalType":"uint256","name":"loanId","type":"uint256"},{"indexed":false,"internalType":"uint256","name":"amount","type":"uint256"},{"indexed":false,"internalType":"uint256","name":"interestRate","type":"uint256"},{"indexed":false,"internalType":"uint256","name":"durationInDays","type":"uint256"},{"indexed":false,"internalType":"uint256","name":"startTimestamp","type":"uint256"},{"indexed":false,"internalType":"address","name":"borrower","type":"address"}],"name":"NewLoan","type":"event"},{"anonymous":false,"inputs":[{"indexed":true,"internalType":"address","name":"previousOwner","type":"address"},{"indexed":true,"internalType":"address","name":"newOwner","type":"address"}],"name":"OwnershipTransferred","type":"event"},{"inputs":[{"internalType":"uint256","name":"_amount","type":"uint256"},{"internalType":"uint256","name":"_interestRate","type":"uint256"},{"internalType":"uint256","name":"_durationInDays","type":"uint256"}],"name":"createLoan","outputs":[],"stateMutability":"nonpayable","type":"function"},{"inputs":[{"internalType":"uint256","name":"_loanId","type":"uint256"}],"name":"getLoan","outputs":[{"components":[{"internalType":"uint256","name":"amount","type":"uint256"},{"internalType":"uint256","name":"interestRate","type":"uint256"},{"internalType":"uint256","name":"durationInDays","type":"uint256"},{"internalType":"uint256","name":"startTimestamp","type":"uint256"},{"internalType":"bool","name":"paidBack","type":"bool"},{"internalType":"address","name":"borrower","type":"address"}],"internalType":"struct Credit.Loan","name":"loan","type":"tuple"}],"stateMutability":"view","type":"function"},{"inputs":[{"internalType":"uint256","name":"","type":"uint256"}],"name":"loans","outputs":[{"internalType":"uint256","name":"amount","type":"uint256"},{"internalType":"uint256","name":"interestRate","type":"uint256"},{"internalType":"uint256","name":"durationInDays","type":"uint256"},{"internalType":"uint256","name":"startTimestamp","type":"uint256"},{"internalType":"bool","name":"paidBack","type":"bool"},{"internalType":"address","name":"borrower","type":"address"}],"stateMutability":"view","type":"function"},{"inputs":[],"name":"owner","outputs":[{"internalType":"address","name":"","type":"address"}],"stateMutability":"view","type":"function"},{"inputs":[{"internalType":"uint256","name":"_loanId","type":"uint256"}],"name":"payBackLoan","outputs":[],"stateMutability":"payable","type":"function"},{"inputs":[],"name":"renounceOwnership","outputs":[],"stateMutability":"nonpayable","type":"function"},{"inputs":[],"name":"totalLoans","outputs":[{"internalType":"uint256","name":"","type":"uint256"}],"stateMutability":"view","type":"function"},{"inputs":[{"internalType":"address","name":"newOwner","type":"address"}],"name":"transferOwnership","outputs":[],"stateMutability":"nonpayable","type":"function"}],"evm":{"bytecode":{"linkReferences":{},"object":"608060405273416cda3814691968a05fc620c338069b74abca3e600160006101000a81548173ffffffffffffffffffffffffffffffffffffffff021916908373ffffffffffffffffffffffffffffffffffffffff16021790555034801561006557600080fd5b5061008261007761008760201b60201c565b61008f60201b60201c565b610153565b600033905090565b60008060009054906101000a900473ffffffffffffffffffffffffffffffffffffffff169050816000806101000a81548173ffffffffffffffffffffffffffffffffffffffff021916908373ffffffffffffffffffffffffffffffffffffffff1602179055508173ffffffffffffffffffffffffffffffffffffffff168173ffffffffffffffffffffffffffffffffffffffff167f8be0079c531659141344cd1fd0a4f28419497f9722a3daafe3b4186f6b6457e060405160405180910390a35050565b611536806101626000396000f3fe60806040526004361061007b5760003560e01c8063904b513b1161004e578063904b513b1461011b578063cc952b5714610144578063e1ec3c681461016f578063f2fde38b146101b15761007b565b8063504006ca146100805780636faa8b3f146100bd578063715018a6146100d95780638da5cb5b146100f0575b600080fd5b34801561008c57600080fd5b506100a760048036038101906100a29190610b5c565b6101da565b6040516100b49190610c6f565b60405180910390f35b6100d760048036038101906100d29190610b5c565b6102a0565b005b3480156100e557600080fd5b506100ee61057f565b005b3480156100fc57600080fd5b50610105610593565b6040516101129190610c99565b60405180910390f35b34801561012757600080fd5b50610142600480360381019061013d9190610cb4565b6105bc565b005b34801561015057600080fd5b506101596107d2565b6040516101669190610d16565b60405180910390f35b34801561017b57600080fd5b5061019660048036038101906101919190610b5c565b6107d8565b6040516101a896959493929190610d40565b60405180910390f35b3480156101bd57600080fd5b506101d860048036038101906101d39190610dcd565b610841565b005b6101e2610ad3565b600360008381526020019081526020016000206040518060c0016040529081600082015481526020016001820154815260200160028201548152602001600382015481526020016004820160009054906101000a900460ff161515151581526020016004820160019054906101000a900473ffffffffffffffffffffffffffffffffffffffff1673ffffffffffffffffffffffffffffffffffffffff1673ffffffffffffffffffffffffffffffffffffffff16815250509050919050565b60006003600083815260200190815260200160002090508060040160019054906101000a900473ffffffffffffffffffffffffffffffffffffffff1673ffffffffffffffffffffffffffffffffffffffff163373ffffffffffffffffffffffffffffffffffffffff1614610349576040517f08c379a000000000000000000000000000000000000000000000000000000000815260040161034090610e7d565b60405180910390fd5b8060040160009054906101000a900460ff161561039b576040517f08c379a000000000000000000000000000000000000000000000000000000000815260040161039290610ee9565b60405180910390fd5b6064816001015482600001546103b19190610f38565b6103bb9190610fa9565b81600001546103ca9190610fda565b341461040b576040517f08c379a0000000000000000000000000000000000000000000000000000000008152600401610402906110a6565b60405180910390fd5b60018160040160006101000a81548160ff02191690831515021790555061048b6040518060400160405280600381526020017f626f7200000000000000000000000000000000000000000000000000000000008152508260040160019054906101000a900473ffffffffffffffffffffffffffffffffffffffff166108c4565b6104ca6040518060400160405280600381526020017f6d73670000000000000000000000000000000000000000000000000000000000815250336108c4565b600160009054906101000a900473ffffffffffffffffffffffffffffffffffffffff1673ffffffffffffffffffffffffffffffffffffffff16638be6e43c8260040160019054906101000a900473ffffffffffffffffffffffffffffffffffffffff166040518263ffffffff1660e01b81526004016105499190611112565b600060405180830381600087803b15801561056357600080fd5b505af1158015610577573d6000803e3d6000fd5b505050505050565b610587610960565b61059160006109de565b565b60008060009054906101000a900473ffffffffffffffffffffffffffffffffffffffff16905090565b600083116105ff576040517f08c379a00000000000000000000000000000000000000000000000000000000081526004016105f69061118c565b60405180910390fd5b60008211610642576040517f08c379a00000000000000000000000000000000000000000000000000000000081526004016106399061121e565b60405180910390fd5b60008111610685576040517f08c379a000000000000000000000000000000000000000000000000000000000815260040161067c9061128a565b60405180910390fd5b60026000815480929190610698906112aa565b91905055506040518060c001604052808481526020018381526020018281526020014281526020016000151581526020013373ffffffffffffffffffffffffffffffffffffffff168152506003600060025481526020019081526020016000206000820151816000015560208201518160010155604082015181600201556060820151816003015560808201518160040160006101000a81548160ff02191690831515021790555060a08201518160040160016101000a81548173ffffffffffffffffffffffffffffffffffffffff021916908373ffffffffffffffffffffffffffffffffffffffff1602179055509050507f76d49d9e0147609a87a0c46037c88aeb761c602df29ec9d11ce12807301596aa60025484848442336040516107c5969594939291906112f2565b60405180910390a1505050565b60025481565b60036020528060005260406000206000915090508060000154908060010154908060020154908060030154908060040160009054906101000a900460ff16908060040160019054906101000a900473ffffffffffffffffffffffffffffffffffffffff16905086565b610849610960565b600073ffffffffffffffffffffffffffffffffffffffff168173ffffffffffffffffffffffffffffffffffffffff16036108b8576040517f08c379a00000000000000000000000000000000000000000000000000000000081526004016108af906113c5565b60405180910390fd5b6108c1816109de565b50565b61095c82826040516024016108da929190611464565b6040516020818303038152906040527f319af333000000000000000000000000000000000000000000000000000000007bffffffffffffffffffffffffffffffffffffffffffffffffffffffff19166020820180517bffffffffffffffffffffffffffffffffffffffffffffffffffffffff8381831617835250505050610aa2565b5050565b610968610acb565b73ffffffffffffffffffffffffffffffffffffffff16610986610593565b73ffffffffffffffffffffffffffffffffffffffff16146109dc576040517f08c379a00000000000000000000000000000000000000000000000000000000081526004016109d3906114e0565b60405180910390fd5b565b60008060009054906101000a900473ffffffffffffffffffffffffffffffffffffffff169050816000806101000a81548173ffffffffffffffffffffffffffffffffffffffff021916908373ffffffffffffffffffffffffffffffffffffffff1602179055508173ffffffffffffffffffffffffffffffffffffffff168173ffffffffffffffffffffffffffffffffffffffff167f8be0079c531659141344cd1fd0a4f28419497f9722a3daafe3b4186f6b6457e060405160405180910390a35050565b60008151905060006a636f6e736f6c652e6c6f679050602083016000808483855afa5050505050565b600033905090565b6040518060c0016040528060008152602001600081526020016000815260200160008152602001600015158152602001600073ffffffffffffffffffffffffffffffffffffffff1681525090565b600080fd5b6000819050919050565b610b3981610b26565b8114610b4457600080fd5b50565b600081359050610b5681610b30565b92915050565b600060208284031215610b7257610b71610b21565b5b6000610b8084828501610b47565b91505092915050565b610b9281610b26565b82525050565b60008115159050919050565b610bad81610b98565b82525050565b600073ffffffffffffffffffffffffffffffffffffffff82169050919050565b6000610bde82610bb3565b9050919050565b610bee81610bd3565b82525050565b60c082016000820151610c0a6000850182610b89565b506020820151610c1d6020850182610b89565b506040820151610c306040850182610b89565b506060820151610c436060850182610b89565b506080820151610c566080850182610ba4565b5060a0820151610c6960a0850182610be5565b50505050565b600060c082019050610c846000830184610bf4565b92915050565b610c9381610bd3565b82525050565b6000602082019050610cae6000830184610c8a565b92915050565b600080600060608486031215610ccd57610ccc610b21565b5b6000610cdb86828701610b47565b9350506020610cec86828701610b47565b9250506040610cfd86828701610b47565b9150509250925092565b610d1081610b26565b82525050565b6000602082019050610d2b6000830184610d07565b92915050565b610d3a81610b98565b82525050565b600060c082019050610d556000830189610d07565b610d626020830188610d07565b610d6f6040830187610d07565b610d7c6060830186610d07565b610d896080830185610d31565b610d9660a0830184610c8a565b979650505050505050565b610daa81610bd3565b8114610db557600080fd5b50565b600081359050610dc781610da1565b92915050565b600060208284031215610de357610de2610b21565b5b6000610df184828501610db8565b91505092915050565b600082825260208201905092915050565b7f4f6e6c792074686520626f72726f7765722063616e20706179206261636b207460008201527f6865206c6f616e00000000000000000000000000000000000000000000000000602082015250565b6000610e67602783610dfa565b9150610e7282610e0b565b604082019050919050565b60006020820190508181036000830152610e9681610e5a565b9050919050565b7f4c6f616e2068617320616c7265616479206265656e2070616964206261636b00600082015250565b6000610ed3601f83610dfa565b9150610ede82610e9d565b602082019050919050565b60006020820190508181036000830152610f0281610ec6565b9050919050565b7f4e487b7100000000000000000000000000000000000000000000000000000000600052601160045260246000fd5b6000610f4382610b26565b9150610f4e83610b26565b9250828202610f5c81610b26565b91508282048414831517610f7357610f72610f09565b5b5092915050565b7f4e487b7100000000000000000000000000000000000000000000000000000000600052601260045260246000fd5b6000610fb482610b26565b9150610fbf83610b26565b925082610fcf57610fce610f7a565b5b828204905092915050565b6000610fe582610b26565b9150610ff083610b26565b925082820190508082111561100857611007610f09565b5b92915050565b7f416d6f756e742073656e74206d75737420626520657175616c20746f2074686560008201527f20616d6f756e7420626f72726f77656420706c75732074686520696e7465726560208201527f7374000000000000000000000000000000000000000000000000000000000000604082015250565b6000611090604283610dfa565b915061109b8261100e565b606082019050919050565b600060208201905081810360008301526110bf81611083565b9050919050565b7f3400000000000000000000000000000000000000000000000000000000000000600082015250565b60006110fc600183610dfa565b9150611107826110c6565b602082019050919050565b60006040820190506111276000830184610c8a565b8181036020830152611138816110ef565b905092915050565b7f416d6f756e74206d7573742062652067726561746572207468616e2030000000600082015250565b6000611176601d83610dfa565b915061118182611140565b602082019050919050565b600060208201905081810360008301526111a581611169565b9050919050565b7f496e7465726573742072617465206d757374206265206772656174657220746860008201527f616e203000000000000000000000000000000000000000000000000000000000602082015250565b6000611208602483610dfa565b9150611213826111ac565b604082019050919050565b60006020820190508181036000830152611237816111fb565b9050919050565b7f4475726174696f6e206d7573742062652067726561746572207468616e203000600082015250565b6000611274601f83610dfa565b915061127f8261123e565b602082019050919050565b600060208201905081810360008301526112a381611267565b9050919050565b60006112b582610b26565b91507fffffffffffffffffffffffffffffffffffffffffffffffffffffffffffffffff82036112e7576112e6610f09565b5b600182019050919050565b600060c0820190506113076000830189610d07565b6113146020830188610d07565b6113216040830187610d07565b61132e6060830186610d07565b61133b6080830185610d07565b61134860a0830184610c8a565b979650505050505050565b7f4f776e61626c653a206e6577206f776e657220697320746865207a65726f206160008201527f6464726573730000000000000000000000000000000000000000000000000000602082015250565b60006113af602683610dfa565b91506113ba82611353565b604082019050919050565b600060208201905081810360008301526113de816113a2565b9050919050565b600081519050919050565b60005b8381101561140e5780820151818401526020810190506113f3565b60008484015250505050565b6000601f19601f8301169050919050565b6000611436826113e5565b6114408185610dfa565b93506114508185602086016113f0565b6114598161141a565b840191505092915050565b6000604082019050818103600083015261147e818561142b565b905061148d6020830184610c8a565b9392505050565b7f4f776e61626c653a2063616c6c6572206973206e6f7420746865206f776e6572600082015250565b60006114ca602083610dfa565b91506114d582611494565b602082019050919050565b600060208201905081810360008301526114f9816114bd565b905091905056fea26469706673582212209aa7f580dfc7ea329830ec0bf5d62c370961d70b392ad23e84948c5500ddb8b364736f6c63430008130033","opcodes":"PUSH1 0x80 PUSH1 0x40 MSTORE PUSH20 0x416CDA3814691968A05FC620C338069B74ABCA3E PUSH1 0x1 PUSH1 0x0 PUSH2 0x100 EXP DUP2 SLOAD DUP2 PUSH20 0xFFFFFFFFFFFFFFFFFFFFFFFFFFFFFFFFFFFFFFFF MUL NOT AND SWAP1 DUP4 PUSH20 0xFFFFFFFFFFFFFFFFFFFFFFFFFFFFFFFFFFFFFFFF AND MUL OR SWAP1 SSTORE POP CALLVALUE DUP1 ISZERO PUSH2 0x65 JUMPI PUSH1 0x0 DUP1 REVERT JUMPDEST POP PUSH2 0x82 PUSH2 0x77 PUSH2 0x87 PUSH1 0x20 SHL PUSH1 0x20 SHR JUMP JUMPDEST PUSH2 0x8F PUSH1 0x20 SHL PUSH1 0x20 SHR JUMP JUMPDEST PUSH2 0x153 JUMP JUMPDEST PUSH1 0x0 CALLER SWAP1 POP SWAP1 JUMP JUMPDEST PUSH1 0x0 DUP1 PUSH1 0x0 SWAP1 SLOAD SWAP1 PUSH2 0x100 EXP SWAP1 DIV PUSH20 0xFFFFFFFFFFFFFFFFFFFFFFFFFFFFFFFFFFFFFFFF AND SWAP1 POP DUP2 PUSH1 0x0 DUP1 PUSH2 0x100 EXP DUP2 SLOAD DUP2 PUSH20 0xFFFFFFFFFFFFFFFFFFFFFFFFFFFFFFFFFFFFFFFF MUL NOT AND SWAP1 DUP4 PUSH20 0xFFFFFFFFFFFFFFFFFFFFFFFFFFFFFFFFFFFFFFFF AND MUL OR SWAP1 SSTORE POP DUP2 PUSH20 0xFFFFFFFFFFFFFFFFFFFFFFFFFFFFFFFFFFFFFFFF AND DUP2 PUSH20 0xFFFFFFFFFFFFFFFFFFFFFFFFFFFFFFFFFFFFFFFF AND PUSH32 0x8BE0079C531659141344CD1FD0A4F28419497F9722A3DAAFE3B4186F6B6457E0 PUSH1 0x40 MLOAD PUSH1 0x40 MLOAD DUP1 SWAP2 SUB SWAP1 LOG3 POP POP JUMP JUMPDEST PUSH2 0x1536 DUP1 PUSH2 0x162 PUSH1 0x0 CODECOPY PUSH1 0x0 RETURN INVALID PUSH1 0x80 PUSH1 0x40 MSTORE PUSH1 0x4 CALLDATASIZE LT PUSH2 0x7B JUMPI PUSH1 0x0 CALLDATALOAD PUSH1 0xE0 SHR DUP1 PUSH4 0x904B513B GT PUSH2 0x4E JUMPI DUP1 PUSH4 0x904B513B EQ PUSH2 0x11B JUMPI DUP1 PUSH4 0xCC952B57 EQ PUSH2 0x144 JUMPI DUP1 PUSH4 0xE1EC3C68 EQ PUSH2 0x16F JUMPI DUP1 PUSH4 0xF2FDE38B EQ PUSH2 0x1B1 JUMPI PUSH2 0x7B JUMP JUMPDEST DUP1 PUSH4 0x504006CA EQ PUSH2 0x80 JUMPI DUP1 PUSH4 0x6FAA8B3F EQ PUSH2 0xBD JUMPI DUP1 PUSH4 0x715018A6 EQ PUSH2 0xD9 JUMPI DUP1 PUSH4 0x8DA5CB5B EQ PUSH2 0xF0 JUMPI JUMPDEST PUSH1 0x0 DUP1 REVERT JUMPDEST CALLVALUE DUP1 ISZERO PUSH2 0x8C JUMPI PUSH1 0x0 DUP1 REVERT JUMPDEST POP PUSH2 0xA7 PUSH1 0x4 DUP1 CALLDATASIZE SUB DUP2 ADD SWAP1 PUSH2 0xA2 SWAP2 SWAP1 PUSH2 0xB5C JUMP JUMPDEST PUSH2 0x1DA JUMP JUMPDEST PUSH1 0x40 MLOAD PUSH2 0xB4 SWAP2 SWAP1 PUSH2 0xC6F JUMP JUMPDEST PUSH1 0x40 MLOAD DUP1 SWAP2 SUB SWAP1 RETURN JUMPDEST PUSH2 0xD7 PUSH1 0x4 DUP1 CALLDATASIZE SUB DUP2 ADD SWAP1 PUSH2 0xD2 SWAP2 SWAP1 PUSH2 0xB5C JUMP JUMPDEST PUSH2 0x2A0 JUMP JUMPDEST STOP JUMPDEST CALLVALUE DUP1 ISZERO PUSH2 0xE5 JUMPI PUSH1 0x0 DUP1 REVERT JUMPDEST POP PUSH2 0xEE PUSH2 0x57F JUMP JUMPDEST STOP JUMPDEST CALLVALUE DUP1 ISZERO PUSH2 0xFC JUMPI PUSH1 0x0 DUP1 REVERT JUMPDEST POP PUSH2 0x105 PUSH2 0x593 JUMP JUMPDEST PUSH1 0x40 MLOAD PUSH2 0x112 SWAP2 SWAP1 PUSH2 0xC99 JUMP JUMPDEST PUSH1 0x40 MLOAD DUP1 SWAP2 SUB SWAP1 RETURN JUMPDEST CALLVALUE DUP1 ISZERO PUSH2 0x127 JUMPI PUSH1 0x0 DUP1 REVERT JUMPDEST POP PUSH2 0x142 PUSH1 0x4 DUP1 CALLDATASIZE SUB DUP2 ADD SWAP1 PUSH2 0x13D SWAP2 SWAP1 PUSH2 0xCB4 JUMP JUMPDEST PUSH2 0x5BC JUMP JUMPDEST STOP JUMPDEST CALLVALUE DUP1 ISZERO PUSH2 0x150 JUMPI PUSH1 0x0 DUP1 REVERT JUMPDEST POP PUSH2 0x159 PUSH2 0x7D2 JUMP JUMPDEST PUSH1 0x40 MLOAD PUSH2 0x166 SWAP2 SWAP1 PUSH2 0xD16 JUMP JUMPDEST PUSH1 0x40 MLOAD DUP1 SWAP2 SUB SWAP1 RETURN JUMPDEST CALLVALUE DUP1 ISZERO PUSH2 0x17B JUMPI PUSH1 0x0 DUP1 REVERT JUMPDEST POP PUSH2 0x196 PUSH1 0x4 DUP1 CALLDATASIZE SUB DUP2 ADD SWAP1 PUSH2 0x191 SWAP2 SWAP1 PUSH2 0xB5C JUMP JUMPDEST PUSH2 0x7D8 JUMP JUMPDEST PUSH1 0x40 MLOAD PUSH2 0x1A8 SWAP7 SWAP6 SWAP5 SWAP4 SWAP3 SWAP2 SWAP1 PUSH2 0xD40 JUMP JUMPDEST PUSH1 0x40 MLOAD DUP1 SWAP2 SUB SWAP1 RETURN JUMPDEST CALLVALUE DUP1 ISZERO PUSH2 0x1BD JUMPI PUSH1 0x0 DUP1 REVERT JUMPDEST POP PUSH2 0x1D8 PUSH1 0x4 DUP1 CALLDATASIZE SUB DUP2 ADD SWAP1 PUSH2 0x1D3 SWAP2 SWAP1 PUSH2 0xDCD JUMP JUMPDEST PUSH2 0x841 JUMP JUMPDEST STOP JUMPDEST PUSH2 0x1E2 PUSH2 0xAD3 JUMP JUMPDEST PUSH1 0x3 PUSH1 0x0 DUP4 DUP2 MSTORE PUSH1 0x20 ADD SWAP1 DUP2 MSTORE PUSH1 0x20 ADD PUSH1 0x0 KECCAK256 PUSH1 0x40 MLOAD DUP1 PUSH1 0xC0 ADD PUSH1 0x40 MSTORE SWAP1 DUP2 PUSH1 0x0 DUP3 ADD SLOAD DUP2 MSTORE PUSH1 0x20 ADD PUSH1 0x1 DUP3 ADD SLOAD DUP2 MSTORE PUSH1 0x20 ADD PUSH1 0x2 DUP3 ADD SLOAD DUP2 MSTORE PUSH1 0x20 ADD PUSH1 0x3 DUP3 ADD SLOAD DUP2 MSTORE PUSH1 0x20 ADD PUSH1 0x4 DUP3 ADD PUSH1 0x0 SWAP1 SLOAD SWAP1 PUSH2 0x100 EXP SWAP1 DIV PUSH1 0xFF AND ISZERO ISZERO ISZERO ISZERO DUP2 MSTORE PUSH1 0x20 ADD PUSH1 0x4 DUP3 ADD PUSH1 0x1 SWAP1 SLOAD SWAP1 PUSH2 0x100 EXP SWAP1 DIV PUSH20 0xFFFFFFFFFFFFFFFFFFFFFFFFFFFFFFFFFFFFFFFF AND PUSH20 0xFFFFFFFFFFFFFFFFFFFFFFFFFFFFFFFFFFFFFFFF AND PUSH20 0xFFFFFFFFFFFFFFFFFFFFFFFFFFFFFFFFFFFFFFFF AND DUP2 MSTORE POP POP SWAP1 POP SWAP2 SWAP1 POP JUMP JUMPDEST PUSH1 0x0 PUSH1 0x3 PUSH1 0x0 DUP4 DUP2 MSTORE PUSH1 0x20 ADD SWAP1 DUP2 MSTORE PUSH1 0x20 ADD PUSH1 0x0 KECCAK256 SWAP1 POP DUP1 PUSH1 0x4 ADD PUSH1 0x1 SWAP1 SLOAD SWAP1 PUSH2 0x100 EXP SWAP1 DIV PUSH20 0xFFFFFFFFFFFFFFFFFFFFFFFFFFFFFFFFFFFFFFFF AND PUSH20 0xFFFFFFFFFFFFFFFFFFFFFFFFFFFFFFFFFFFFFFFF AND CALLER PUSH20 0xFFFFFFFFFFFFFFFFFFFFFFFFFFFFFFFFFFFFFFFF AND EQ PUSH2 0x349 JUMPI PUSH1 0x40 MLOAD PUSH32 0x8C379A000000000000000000000000000000000000000000000000000000000 DUP2 MSTORE PUSH1 0x4 ADD PUSH2 0x340 SWAP1 PUSH2 0xE7D JUMP JUMPDEST PUSH1 0x40 MLOAD DUP1 SWAP2 SUB SWAP1 REVERT JUMPDEST DUP1 PUSH1 0x4 ADD PUSH1 0x0 SWAP1 SLOAD SWAP1 PUSH2 0x100 EXP SWAP1 DIV PUSH1 0xFF AND ISZERO PUSH2 0x39B JUMPI PUSH1 0x40 MLOAD PUSH32 0x8C379A000000000000000000000000000000000000000000000000000000000 DUP2 MSTORE PUSH1 0x4 ADD PUSH2 0x392 SWAP1 PUSH2 0xEE9 JUMP JUMPDEST PUSH1 0x40 MLOAD DUP1 SWAP2 SUB SWAP1 REVERT JUMPDEST PUSH1 0x64 DUP2 PUSH1 0x1 ADD SLOAD DUP3 PUSH1 0x0 ADD SLOAD PUSH2 0x3B1 SWAP2 SWAP1 PUSH2 0xF38 JUMP JUMPDEST PUSH2 0x3BB SWAP2 SWAP1 PUSH2 0xFA9 JUMP JUMPDEST DUP2 PUSH1 0x0 ADD SLOAD PUSH2 0x3CA SWAP2 SWAP1 PUSH2 0xFDA JUMP JUMPDEST CALLVALUE EQ PUSH2 0x40B JUMPI PUSH1 0x40 MLOAD PUSH32 0x8C379A000000000000000000000000000000000000000000000000000000000 DUP2 MSTORE PUSH1 0x4 ADD PUSH2 0x402 SWAP1 PUSH2 0x10A6 JUMP JUMPDEST PUSH1 0x40 MLOAD DUP1 SWAP2 SUB SWAP1 REVERT JUMPDEST PUSH1 0x1 DUP2 PUSH1 0x4 ADD PUSH1 0x0 PUSH2 0x100 EXP DUP2 SLOAD DUP2 PUSH1 0xFF MUL NOT AND SWAP1 DUP4 ISZERO ISZERO MUL OR SWAP1 SSTORE POP PUSH2 0x48B PUSH1 0x40 MLOAD DUP1 PUSH1 0x40 ADD PUSH1 0x40 MSTORE DUP1 PUSH1 0x3 DUP2 MSTORE PUSH1 0x20 ADD PUSH32 0x626F720000000000000000000000000000000000000000000000000000000000 DUP2 MSTORE POP DUP3 PUSH1 0x4 ADD PUSH1 0x1 SWAP1 SLOAD SWAP1 PUSH2 0x100 EXP SWAP1 DIV PUSH20 0xFFFFFFFFFFFFFFFFFFFFFFFFFFFFFFFFFFFFFFFF AND PUSH2 0x8C4 JUMP JUMPDEST PUSH2 0x4CA PUSH1 0x40 MLOAD DUP1 PUSH1 0x40 ADD PUSH1 0x40 MSTORE DUP1 PUSH1 0x3 DUP2 MSTORE PUSH1 0x20 ADD PUSH32 0x6D73670000000000000000000000000000000000000000000000000000000000 DUP2 MSTORE POP CALLER PUSH2 0x8C4 JUMP JUMPDEST PUSH1 0x1 PUSH1 0x0 SWAP1 SLOAD SWAP1 PUSH2 0x100 EXP SWAP1 DIV PUSH20 0xFFFFFFFFFFFFFFFFFFFFFFFFFFFFFFFFFFFFFFFF AND PUSH20 0xFFFFFFFFFFFFFFFFFFFFFFFFFFFFFFFFFFFFFFFF AND PUSH4 0x8BE6E43C DUP3 PUSH1 0x4 ADD PUSH1 0x1 SWAP1 SLOAD SWAP1 PUSH2 0x100 EXP SWAP1 DIV PUSH20 0xFFFFFFFFFFFFFFFFFFFFFFFFFFFFFFFFFFFFFFFF AND PUSH1 0x40 MLOAD DUP3 PUSH4 0xFFFFFFFF AND PUSH1 0xE0 SHL DUP2 MSTORE PUSH1 0x4 ADD PUSH2 0x549 SWAP2 SWAP1 PUSH2 0x1112 JUMP JUMPDEST PUSH1 0x0 PUSH1 0x40 MLOAD DUP1 DUP4 SUB DUP2 PUSH1 0x0 DUP8 DUP1 EXTCODESIZE ISZERO DUP1 ISZERO PUSH2 0x563 JUMPI PUSH1 0x0 DUP1 REVERT JUMPDEST POP GAS CALL ISZERO DUP1 ISZERO PUSH2 0x577 JUMPI RETURNDATASIZE PUSH1 0x0 DUP1 RETURNDATACOPY RETURNDATASIZE PUSH1 0x0 REVERT JUMPDEST POP POP POP POP POP POP JUMP JUMPDEST PUSH2 0x587 PUSH2 0x960 JUMP JUMPDEST PUSH2 0x591 PUSH1 0x0 PUSH2 0x9DE JUMP JUMPDEST JUMP JUMPDEST PUSH1 0x0 DUP1 PUSH1 0x0 SWAP1 SLOAD SWAP1 PUSH2 0x100 EXP SWAP1 DIV PUSH20 0xFFFFFFFFFFFFFFFFFFFFFFFFFFFFFFFFFFFFFFFF AND SWAP1 POP SWAP1 JUMP JUMPDEST PUSH1 0x0 DUP4 GT PUSH2 0x5FF JUMPI PUSH1 0x40 MLOAD PUSH32 0x8C379A000000000000000000000000000000000000000000000000000000000 DUP2 MSTORE PUSH1 0x4 ADD PUSH2 0x5F6 SWAP1 PUSH2 0x118C JUMP JUMPDEST PUSH1 0x40 MLOAD DUP1 SWAP2 SUB SWAP1 REVERT JUMPDEST PUSH1 0x0 DUP3 GT PUSH2 0x642 JUMPI PUSH1 0x40 MLOAD PUSH32 0x8C379A000000000000000000000000000000000000000000000000000000000 DUP2 MSTORE PUSH1 0x4 ADD PUSH2 0x639 SWAP1 PUSH2 0x121E JUMP JUMPDEST PUSH1 0x40 MLOAD DUP1 SWAP2 SUB SWAP1 REVERT JUMPDEST PUSH1 0x0 DUP2 GT PUSH2 0x685 JUMPI PUSH1 0x40 MLOAD PUSH32 0x8C379A000000000000000000000000000000000000000000000000000000000 DUP2 MSTORE PUSH1 0x4 ADD PUSH2 0x67C SWAP1 PUSH2 0x128A JUMP JUMPDEST PUSH1 0x40 MLOAD DUP1 SWAP2 SUB SWAP1 REVERT JUMPDEST PUSH1 0x2 PUSH1 0x0 DUP2 SLOAD DUP1 SWAP3 SWAP2 SWAP1 PUSH2 0x698 SWAP1 PUSH2 0x12AA JUMP JUMPDEST SWAP2 SWAP1 POP SSTORE POP PUSH1 0x40 MLOAD DUP1 PUSH1 0xC0 ADD PUSH1 0x40 MSTORE DUP1 DUP5 DUP2 MSTORE PUSH1 0x20 ADD DUP4 DUP2 MSTORE PUSH1 0x20 ADD DUP3 DUP2 MSTORE PUSH1 0x20 ADD TIMESTAMP DUP2 MSTORE PUSH1 0x20 ADD PUSH1 0x0 ISZERO ISZERO DUP2 MSTORE PUSH1 0x20 ADD CALLER PUSH20 0xFFFFFFFFFFFFFFFFFFFFFFFFFFFFFFFFFFFFFFFF AND DUP2 MSTORE POP PUSH1 0x3 PUSH1 0x0 PUSH1 0x2 SLOAD DUP2 MSTORE PUSH1 0x20 ADD SWAP1 DUP2 MSTORE PUSH1 0x20 ADD PUSH1 0x0 KECCAK256 PUSH1 0x0 DUP3 ADD MLOAD DUP2 PUSH1 0x0 ADD SSTORE PUSH1 0x20 DUP3 ADD MLOAD DUP2 PUSH1 0x1 ADD SSTORE PUSH1 0x40 DUP3 ADD MLOAD DUP2 PUSH1 0x2 ADD SSTORE PUSH1 0x60 DUP3 ADD MLOAD DUP2 PUSH1 0x3 ADD SSTORE PUSH1 0x80 DUP3 ADD MLOAD DUP2 PUSH1 0x4 ADD PUSH1 0x0 PUSH2 0x100 EXP DUP2 SLOAD DUP2 PUSH1 0xFF MUL NOT AND SWAP1 DUP4 ISZERO ISZERO MUL OR SWAP1 SSTORE POP PUSH1 0xA0 DUP3 ADD MLOAD DUP2 PUSH1 0x4 ADD PUSH1 0x1 PUSH2 0x100 EXP DUP2 SLOAD DUP2 PUSH20 0xFFFFFFFFFFFFFFFFFFFFFFFFFFFFFFFFFFFFFFFF MUL NOT AND SWAP1 DUP4 PUSH20 0xFFFFFFFFFFFFFFFFFFFFFFFFFFFFFFFFFFFFFFFF AND MUL OR SWAP1 SSTORE POP SWAP1 POP POP PUSH32 0x76D49D9E0147609A87A0C46037C88AEB761C602DF29EC9D11CE12807301596AA PUSH1 0x2 SLOAD DUP5 DUP5 DUP5 TIMESTAMP CALLER PUSH1 0x40 MLOAD PUSH2 0x7C5 SWAP7 SWAP6 SWAP5 SWAP4 SWAP3 SWAP2 SWAP1 PUSH2 0x12F2 JUMP JUMPDEST PUSH1 0x40 MLOAD DUP1 SWAP2 SUB SWAP1 LOG1 POP POP POP JUMP JUMPDEST PUSH1 0x2 SLOAD DUP2 JUMP JUMPDEST PUSH1 0x3 PUSH1 0x20 MSTORE DUP1 PUSH1 0x0 MSTORE PUSH1 0x40 PUSH1 0x0 KECCAK256 PUSH1 0x0 SWAP2 POP SWAP1 POP DUP1 PUSH1 0x0 ADD SLOAD SWAP1 DUP1 PUSH1 0x1 ADD SLOAD SWAP1 DUP1 PUSH1 0x2 ADD SLOAD SWAP1 DUP1 PUSH1 0x3 ADD SLOAD SWAP1 DUP1 PUSH1 0x4 ADD PUSH1 0x0 SWAP1 SLOAD SWAP1 PUSH2 0x100 EXP SWAP1 DIV PUSH1 0xFF AND SWAP1 DUP1 PUSH1 0x4 ADD PUSH1 0x1 SWAP1 SLOAD SWAP1 PUSH2 0x100 EXP SWAP1 DIV PUSH20 0xFFFFFFFFFFFFFFFFFFFFFFFFFFFFFFFFFFFFFFFF AND SWAP1 POP DUP7 JUMP JUMPDEST PUSH2 0x849 PUSH2 0x960 JUMP JUMPDEST PUSH1 0x0 PUSH20 0xFFFFFFFFFFFFFFFFFFFFFFFFFFFFFFFFFFFFFFFF AND DUP2 PUSH20 0xFFFFFFFFFFFFFFFFFFFFFFFFFFFFFFFFFFFFFFFF AND SUB PUSH2 0x8B8 JUMPI PUSH1 0x40 MLOAD PUSH32 0x8C379A000000000000000000000000000000000000000000000000000000000 DUP2 MSTORE PUSH1 0x4 ADD PUSH2 0x8AF SWAP1 PUSH2 0x13C5 JUMP JUMPDEST PUSH1 0x40 MLOAD DUP1 SWAP2 SUB SWAP1 REVERT JUMPDEST PUSH2 0x8C1 DUP2 PUSH2 0x9DE JUMP JUMPDEST POP JUMP JUMPDEST PUSH2 0x95C DUP3 DUP3 PUSH1 0x40 MLOAD PUSH1 0x24 ADD PUSH2 0x8DA SWAP3 SWAP2 SWAP1 PUSH2 0x1464 JUMP JUMPDEST PUSH1 0x40 MLOAD PUSH1 0x20 DUP2 DUP4 SUB SUB DUP2 MSTORE SWAP1 PUSH1 0x40 MSTORE PUSH32 0x319AF33300000000000000000000000000000000000000000000000000000000 PUSH28 0xFFFFFFFFFFFFFFFFFFFFFFFFFFFFFFFFFFFFFFFFFFFFFFFFFFFFFFFF NOT AND PUSH1 0x20 DUP3 ADD DUP1 MLOAD PUSH28 0xFFFFFFFFFFFFFFFFFFFFFFFFFFFFFFFFFFFFFFFFFFFFFFFFFFFFFFFF DUP4 DUP2 DUP4 AND OR DUP4 MSTORE POP POP POP POP PUSH2 0xAA2 JUMP JUMPDEST POP POP JUMP JUMPDEST PUSH2 0x968 PUSH2 0xACB JUMP JUMPDEST PUSH20 0xFFFFFFFFFFFFFFFFFFFFFFFFFFFFFFFFFFFFFFFF AND PUSH2 0x986 PUSH2 0x593 JUMP JUMPDEST PUSH20 0xFFFFFFFFFFFFFFFFFFFFFFFFFFFFFFFFFFFFFFFF AND EQ PUSH2 0x9DC JUMPI PUSH1 0x40 MLOAD PUSH32 0x8C379A000000000000000000000000000000000000000000000000000000000 DUP2 MSTORE PUSH1 0x4 ADD PUSH2 0x9D3 SWAP1 PUSH2 0x14E0 JUMP JUMPDEST PUSH1 0x40 MLOAD DUP1 SWAP2 SUB SWAP1 REVERT JUMPDEST JUMP JUMPDEST PUSH1 0x0 DUP1 PUSH1 0x0 SWAP1 SLOAD SWAP1 PUSH2 0x100 EXP SWAP1 DIV PUSH20 0xFFFFFFFFFFFFFFFFFFFFFFFFFFFFFFFFFFFFFFFF AND SWAP1 POP DUP2 PUSH1 0x0 DUP1 PUSH2 0x100 EXP DUP2 SLOAD DUP2 PUSH20 0xFFFFFFFFFFFFFFFFFFFFFFFFFFFFFFFFFFFFFFFF MUL NOT AND SWAP1 DUP4 PUSH20 0xFFFFFFFFFFFFFFFFFFFFFFFFFFFFFFFFFFFFFFFF AND MUL OR SWAP1 SSTORE POP DUP2 PUSH20 0xFFFFFFFFFFFFFFFFFFFFFFFFFFFFFFFFFFFFFFFF AND DUP2 PUSH20 0xFFFFFFFFFFFFFFFFFFFFFFFFFFFFFFFFFFFFFFFF AND PUSH32 0x8BE0079C531659141344CD1FD0A4F28419497F9722A3DAAFE3B4186F6B6457E0 PUSH1 0x40 MLOAD PUSH1 0x40 MLOAD DUP1 SWAP2 SUB SWAP1 LOG3 POP POP JUMP JUMPDEST PUSH1 0x0 DUP2 MLOAD SWAP1 POP PUSH1 0x0 PUSH11 0x636F6E736F6C652E6C6F67 SWAP1 POP PUSH1 0x20 DUP4 ADD PUSH1 0x0 DUP1 DUP5 DUP4 DUP6 GAS STATICCALL POP POP POP POP POP JUMP JUMPDEST PUSH1 0x0 CALLER SWAP1 POP SWAP1 JUMP JUMPDEST PUSH1 0x40 MLOAD DUP1 PUSH1 0xC0 ADD PUSH1 0x40 MSTORE DUP1 PUSH1 0x0 DUP2 MSTORE PUSH1 0x20 ADD PUSH1 0x0 DUP2 MSTORE PUSH1 0x20 ADD PUSH1 0x0 DUP2 MSTORE PUSH1 0x20 ADD PUSH1 0x0 DUP2 MSTORE PUSH1 0x20 ADD PUSH1 0x0 ISZERO ISZERO DUP2 MSTORE PUSH1 0x20 ADD PUSH1 0x0 PUSH20 0xFFFFFFFFFFFFFFFFFFFFFFFFFFFFFFFFFFFFFFFF AND DUP2 MSTORE POP SWAP1 JUMP JUMPDEST PUSH1 0x0 DUP1 REVERT JUMPDEST PUSH1 0x0 DUP2 SWAP1 POP SWAP2 SWAP1 POP JUMP JUMPDEST PUSH2 0xB39 DUP2 PUSH2 0xB26 JUMP JUMPDEST DUP2 EQ PUSH2 0xB44 JUMPI PUSH1 0x0 DUP1 REVERT JUMPDEST POP JUMP JUMPDEST PUSH1 0x0 DUP2 CALLDATALOAD SWAP1 POP PUSH2 0xB56 DUP2 PUSH2 0xB30 JUMP JUMPDEST SWAP3 SWAP2 POP POP JUMP JUMPDEST PUSH1 0x0 PUSH1 0x20 DUP3 DUP5 SUB SLT ISZERO PUSH2 0xB72 JUMPI PUSH2 0xB71 PUSH2 0xB21 JUMP JUMPDEST JUMPDEST PUSH1 0x0 PUSH2 0xB80 DUP5 DUP3 DUP6 ADD PUSH2 0xB47 JUMP JUMPDEST SWAP2 POP POP SWAP3 SWAP2 POP POP JUMP JUMPDEST PUSH2 0xB92 DUP2 PUSH2 0xB26 JUMP JUMPDEST DUP3 MSTORE POP POP JUMP JUMPDEST PUSH1 0x0 DUP2 ISZERO ISZERO SWAP1 POP SWAP2 SWAP1 POP JUMP JUMPDEST PUSH2 0xBAD DUP2 PUSH2 0xB98 JUMP JUMPDEST DUP3 MSTORE POP POP JUMP JUMPDEST PUSH1 0x0 PUSH20 0xFFFFFFFFFFFFFFFFFFFFFFFFFFFFFFFFFFFFFFFF DUP3 AND SWAP1 POP SWAP2 SWAP1 POP JUMP JUMPDEST PUSH1 0x0 PUSH2 0xBDE DUP3 PUSH2 0xBB3 JUMP JUMPDEST SWAP1 POP SWAP2 SWAP1 POP JUMP JUMPDEST PUSH2 0xBEE DUP2 PUSH2 0xBD3 JUMP JUMPDEST DUP3 MSTORE POP POP JUMP JUMPDEST PUSH1 0xC0 DUP3 ADD PUSH1 0x0 DUP3 ADD MLOAD PUSH2 0xC0A PUSH1 0x0 DUP6 ADD DUP3 PUSH2 0xB89 JUMP JUMPDEST POP PUSH1 0x20 DUP3 ADD MLOAD PUSH2 0xC1D PUSH1 0x20 DUP6 ADD DUP3 PUSH2 0xB89 JUMP JUMPDEST POP PUSH1 0x40 DUP3 ADD MLOAD PUSH2 0xC30 PUSH1 0x40 DUP6 ADD DUP3 PUSH2 0xB89 JUMP JUMPDEST POP PUSH1 0x60 DUP3 ADD MLOAD PUSH2 0xC43 PUSH1 0x60 DUP6 ADD DUP3 PUSH2 0xB89 JUMP JUMPDEST POP PUSH1 0x80 DUP3 ADD MLOAD PUSH2 0xC56 PUSH1 0x80 DUP6 ADD DUP3 PUSH2 0xBA4 JUMP JUMPDEST POP PUSH1 0xA0 DUP3 ADD MLOAD PUSH2 0xC69 PUSH1 0xA0 DUP6 ADD DUP3 PUSH2 0xBE5 JUMP JUMPDEST POP POP POP POP JUMP JUMPDEST PUSH1 0x0 PUSH1 0xC0 DUP3 ADD SWAP1 POP PUSH2 0xC84 PUSH1 0x0 DUP4 ADD DUP5 PUSH2 0xBF4 JUMP JUMPDEST SWAP3 SWAP2 POP POP JUMP JUMPDEST PUSH2 0xC93 DUP2 PUSH2 0xBD3 JUMP JUMPDEST DUP3 MSTORE POP POP JUMP JUMPDEST PUSH1 0x0 PUSH1 0x20 DUP3 ADD SWAP1 POP PUSH2 0xCAE PUSH1 0x0 DUP4 ADD DUP5 PUSH2 0xC8A JUMP JUMPDEST SWAP3 SWAP2 POP POP JUMP JUMPDEST PUSH1 0x0 DUP1 PUSH1 0x0 PUSH1 0x60 DUP5 DUP7 SUB SLT ISZERO PUSH2 0xCCD JUMPI PUSH2 0xCCC PUSH2 0xB21 JUMP JUMPDEST JUMPDEST PUSH1 0x0 PUSH2 0xCDB DUP7 DUP3 DUP8 ADD PUSH2 0xB47 JUMP JUMPDEST SWAP4 POP POP PUSH1 0x20 PUSH2 0xCEC DUP7 DUP3 DUP8 ADD PUSH2 0xB47 JUMP JUMPDEST SWAP3 POP POP PUSH1 0x40 PUSH2 0xCFD DUP7 DUP3 DUP8 ADD PUSH2 0xB47 JUMP JUMPDEST SWAP2 POP POP SWAP3 POP SWAP3 POP SWAP3 JUMP JUMPDEST PUSH2 0xD10 DUP2 PUSH2 0xB26 JUMP JUMPDEST DUP3 MSTORE POP POP JUMP JUMPDEST PUSH1 0x0 PUSH1 0x20 DUP3 ADD SWAP1 POP PUSH2 0xD2B PUSH1 0x0 DUP4 ADD DUP5 PUSH2 0xD07 JUMP JUMPDEST SWAP3 SWAP2 POP POP JUMP JUMPDEST PUSH2 0xD3A DUP2 PUSH2 0xB98 JUMP JUMPDEST DUP3 MSTORE POP POP JUMP JUMPDEST PUSH1 0x0 PUSH1 0xC0 DUP3 ADD SWAP1 POP PUSH2 0xD55 PUSH1 0x0 DUP4 ADD DUP10 PUSH2 0xD07 JUMP JUMPDEST PUSH2 0xD62 PUSH1 0x20 DUP4 ADD DUP9 PUSH2 0xD07 JUMP JUMPDEST PUSH2 0xD6F PUSH1 0x40 DUP4 ADD DUP8 PUSH2 0xD07 JUMP JUMPDEST PUSH2 0xD7C PUSH1 0x60 DUP4 ADD DUP7 PUSH2 0xD07 JUMP JUMPDEST PUSH2 0xD89 PUSH1 0x80 DUP4 ADD DUP6 PUSH2 0xD31 JUMP JUMPDEST PUSH2 0xD96 PUSH1 0xA0 DUP4 ADD DUP5 PUSH2 0xC8A JUMP JUMPDEST SWAP8 SWAP7 POP POP POP POP POP POP POP JUMP JUMPDEST PUSH2 0xDAA DUP2 PUSH2 0xBD3 JUMP JUMPDEST DUP2 EQ PUSH2 0xDB5 JUMPI PUSH1 0x0 DUP1 REVERT JUMPDEST POP JUMP JUMPDEST PUSH1 0x0 DUP2 CALLDATALOAD SWAP1 POP PUSH2 0xDC7 DUP2 PUSH2 0xDA1 JUMP JUMPDEST SWAP3 SWAP2 POP POP JUMP JUMPDEST PUSH1 0x0 PUSH1 0x20 DUP3 DUP5 SUB SLT ISZERO PUSH2 0xDE3 JUMPI PUSH2 0xDE2 PUSH2 0xB21 JUMP JUMPDEST JUMPDEST PUSH1 0x0 PUSH2 0xDF1 DUP5 DUP3 DUP6 ADD PUSH2 0xDB8 JUMP JUMPDEST SWAP2 POP POP SWAP3 SWAP2 POP POP JUMP JUMPDEST PUSH1 0x0 DUP3 DUP3 MSTORE PUSH1 0x20 DUP3 ADD SWAP1 POP SWAP3 SWAP2 POP POP JUMP JUMPDEST PUSH32 0x4F6E6C792074686520626F72726F7765722063616E20706179206261636B2074 PUSH1 0x0 DUP3 ADD MSTORE PUSH32 0x6865206C6F616E00000000000000000000000000000000000000000000000000 PUSH1 0x20 DUP3 ADD MSTORE POP JUMP JUMPDEST PUSH1 0x0 PUSH2 0xE67 PUSH1 0x27 DUP4 PUSH2 0xDFA JUMP JUMPDEST SWAP2 POP PUSH2 0xE72 DUP3 PUSH2 0xE0B JUMP JUMPDEST PUSH1 0x40 DUP3 ADD SWAP1 POP SWAP2 SWAP1 POP JUMP JUMPDEST PUSH1 0x0 PUSH1 0x20 DUP3 ADD SWAP1 POP DUP2 DUP2 SUB PUSH1 0x0 DUP4 ADD MSTORE PUSH2 0xE96 DUP2 PUSH2 0xE5A JUMP JUMPDEST SWAP1 POP SWAP2 SWAP1 POP JUMP JUMPDEST PUSH32 0x4C6F616E2068617320616C7265616479206265656E2070616964206261636B00 PUSH1 0x0 DUP3 ADD MSTORE POP JUMP JUMPDEST PUSH1 0x0 PUSH2 0xED3 PUSH1 0x1F DUP4 PUSH2 0xDFA JUMP JUMPDEST SWAP2 POP PUSH2 0xEDE DUP3 PUSH2 0xE9D JUMP JUMPDEST PUSH1 0x20 DUP3 ADD SWAP1 POP SWAP2 SWAP1 POP JUMP JUMPDEST PUSH1 0x0 PUSH1 0x20 DUP3 ADD SWAP1 POP DUP2 DUP2 SUB PUSH1 0x0 DUP4 ADD MSTORE PUSH2 0xF02 DUP2 PUSH2 0xEC6 JUMP JUMPDEST SWAP1 POP SWAP2 SWAP1 POP JUMP JUMPDEST PUSH32 0x4E487B7100000000000000000000000000000000000000000000000000000000 PUSH1 0x0 MSTORE PUSH1 0x11 PUSH1 0x4 MSTORE PUSH1 0x24 PUSH1 0x0 REVERT JUMPDEST PUSH1 0x0 PUSH2 0xF43 DUP3 PUSH2 0xB26 JUMP JUMPDEST SWAP2 POP PUSH2 0xF4E DUP4 PUSH2 0xB26 JUMP JUMPDEST SWAP3 POP DUP3 DUP3 MUL PUSH2 0xF5C DUP2 PUSH2 0xB26 JUMP JUMPDEST SWAP2 POP DUP3 DUP3 DIV DUP5 EQ DUP4 ISZERO OR PUSH2 0xF73 JUMPI PUSH2 0xF72 PUSH2 0xF09 JUMP JUMPDEST JUMPDEST POP SWAP3 SWAP2 POP POP JUMP JUMPDEST PUSH32 0x4E487B7100000000000000000000000000000000000000000000000000000000 PUSH1 0x0 MSTORE PUSH1 0x12 PUSH1 0x4 MSTORE PUSH1 0x24 PUSH1 0x0 REVERT JUMPDEST PUSH1 0x0 PUSH2 0xFB4 DUP3 PUSH2 0xB26 JUMP JUMPDEST SWAP2 POP PUSH2 0xFBF DUP4 PUSH2 0xB26 JUMP JUMPDEST SWAP3 POP DUP3 PUSH2 0xFCF JUMPI PUSH2 0xFCE PUSH2 0xF7A JUMP JUMPDEST JUMPDEST DUP3 DUP3 DIV SWAP1 POP SWAP3 SWAP2 POP POP JUMP JUMPDEST PUSH1 0x0 PUSH2 0xFE5 DUP3 PUSH2 0xB26 JUMP JUMPDEST SWAP2 POP PUSH2 0xFF0 DUP4 PUSH2 0xB26 JUMP JUMPDEST SWAP3 POP DUP3 DUP3 ADD SWAP1 POP DUP1 DUP3 GT ISZERO PUSH2 0x1008 JUMPI PUSH2 0x1007 PUSH2 0xF09 JUMP JUMPDEST JUMPDEST SWAP3 SWAP2 POP POP JUMP JUMPDEST PUSH32 0x416D6F756E742073656E74206D75737420626520657175616C20746F20746865 PUSH1 0x0 DUP3 ADD MSTORE PUSH32 0x20616D6F756E7420626F72726F77656420706C75732074686520696E74657265 PUSH1 0x20 DUP3 ADD MSTORE PUSH32 0x7374000000000000000000000000000000000000000000000000000000000000 PUSH1 0x40 DUP3 ADD MSTORE POP JUMP JUMPDEST PUSH1 0x0 PUSH2 0x1090 PUSH1 0x42 DUP4 PUSH2 0xDFA JUMP JUMPDEST SWAP2 POP PUSH2 0x109B DUP3 PUSH2 0x100E JUMP JUMPDEST PUSH1 0x60 DUP3 ADD SWAP1 POP SWAP2 SWAP1 POP JUMP JUMPDEST PUSH1 0x0 PUSH1 0x20 DUP3 ADD SWAP1 POP DUP2 DUP2 SUB PUSH1 0x0 DUP4 ADD MSTORE PUSH2 0x10BF DUP2 PUSH2 0x1083 JUMP JUMPDEST SWAP1 POP SWAP2 SWAP1 POP JUMP JUMPDEST PUSH32 0x3400000000000000000000000000000000000000000000000000000000000000 PUSH1 0x0 DUP3 ADD MSTORE POP JUMP JUMPDEST PUSH1 0x0 PUSH2 0x10FC PUSH1 0x1 DUP4 PUSH2 0xDFA JUMP JUMPDEST SWAP2 POP PUSH2 0x1107 DUP3 PUSH2 0x10C6 JUMP JUMPDEST PUSH1 0x20 DUP3 ADD SWAP1 POP SWAP2 SWAP1 POP JUMP JUMPDEST PUSH1 0x0 PUSH1 0x40 DUP3 ADD SWAP1 POP PUSH2 0x1127 PUSH1 0x0 DUP4 ADD DUP5 PUSH2 0xC8A JUMP JUMPDEST DUP2 DUP2 SUB PUSH1 0x20 DUP4 ADD MSTORE PUSH2 0x1138 DUP2 PUSH2 0x10EF JUMP JUMPDEST SWAP1 POP SWAP3 SWAP2 POP POP JUMP JUMPDEST PUSH32 0x416D6F756E74206D7573742062652067726561746572207468616E2030000000 PUSH1 0x0 DUP3 ADD MSTORE POP JUMP JUMPDEST PUSH1 0x0 PUSH2 0x1176 PUSH1 0x1D DUP4 PUSH2 0xDFA JUMP JUMPDEST SWAP2 POP PUSH2 0x1181 DUP3 PUSH2 0x1140 JUMP JUMPDEST PUSH1 0x20 DUP3 ADD SWAP1 POP SWAP2 SWAP1 POP JUMP JUMPDEST PUSH1 0x0 PUSH1 0x20 DUP3 ADD SWAP1 POP DUP2 DUP2 SUB PUSH1 0x0 DUP4 ADD MSTORE PUSH2 0x11A5 DUP2 PUSH2 0x1169 JUMP JUMPDEST SWAP1 POP SWAP2 SWAP1 POP JUMP JUMPDEST PUSH32 0x496E7465726573742072617465206D7573742062652067726561746572207468 PUSH1 0x0 DUP3 ADD MSTORE PUSH32 0x616E203000000000000000000000000000000000000000000000000000000000 PUSH1 0x20 DUP3 ADD MSTORE POP JUMP JUMPDEST PUSH1 0x0 PUSH2 0x1208 PUSH1 0x24 DUP4 PUSH2 0xDFA JUMP JUMPDEST SWAP2 POP PUSH2 0x1213 DUP3 PUSH2 0x11AC JUMP JUMPDEST PUSH1 0x40 DUP3 ADD SWAP1 POP SWAP2 SWAP1 POP JUMP JUMPDEST PUSH1 0x0 PUSH1 0x20 DUP3 ADD SWAP1 POP DUP2 DUP2 SUB PUSH1 0x0 DUP4 ADD MSTORE PUSH2 0x1237 DUP2 PUSH2 0x11FB JUMP JUMPDEST SWAP1 POP SWAP2 SWAP1 POP JUMP JUMPDEST PUSH32 0x4475726174696F6E206D7573742062652067726561746572207468616E203000 PUSH1 0x0 DUP3 ADD MSTORE POP JUMP JUMPDEST PUSH1 0x0 PUSH2 0x1274 PUSH1 0x1F DUP4 PUSH2 0xDFA JUMP JUMPDEST SWAP2 POP PUSH2 0x127F DUP3 PUSH2 0x123E JUMP JUMPDEST PUSH1 0x20 DUP3 ADD SWAP1 POP SWAP2 SWAP1 POP JUMP JUMPDEST PUSH1 0x0 PUSH1 0x20 DUP3 ADD SWAP1 POP DUP2 DUP2 SUB PUSH1 0x0 DUP4 ADD MSTORE PUSH2 0x12A3 DUP2 PUSH2 0x1267 JUMP JUMPDEST SWAP1 POP SWAP2 SWAP1 POP JUMP JUMPDEST PUSH1 0x0 PUSH2 0x12B5 DUP3 PUSH2 0xB26 JUMP JUMPDEST SWAP2 POP PUSH32 0xFFFFFFFFFFFFFFFFFFFFFFFFFFFFFFFFFFFFFFFFFFFFFFFFFFFFFFFFFFFFFFFF DUP3 SUB PUSH2 0x12E7 JUMPI PUSH2 0x12E6 PUSH2 0xF09 JUMP JUMPDEST JUMPDEST PUSH1 0x1 DUP3 ADD SWAP1 POP SWAP2 SWAP1 POP JUMP JUMPDEST PUSH1 0x0 PUSH1 0xC0 DUP3 ADD SWAP1 POP PUSH2 0x1307 PUSH1 0x0 DUP4 ADD DUP10 PUSH2 0xD07 JUMP JUMPDEST PUSH2 0x1314 PUSH1 0x20 DUP4 ADD DUP9 PUSH2 0xD07 JUMP JUMPDEST PUSH2 0x1321 PUSH1 0x40 DUP4 ADD DUP8 PUSH2 0xD07 JUMP JUMPDEST PUSH2 0x132E PUSH1 0x60 DUP4 ADD DUP7 PUSH2 0xD07 JUMP JUMPDEST PUSH2 0x133B PUSH1 0x80 DUP4 ADD DUP6 PUSH2 0xD07 JUMP JUMPDEST PUSH2 0x1348 PUSH1 0xA0 DUP4 ADD DUP5 PUSH2 0xC8A JUMP JUMPDEST SWAP8 SWAP7 POP POP POP POP POP POP POP JUMP JUMPDEST PUSH32 0x4F776E61626C653A206E6577206F776E657220697320746865207A65726F2061 PUSH1 0x0 DUP3 ADD MSTORE PUSH32 0x6464726573730000000000000000000000000000000000000000000000000000 PUSH1 0x20 DUP3 ADD MSTORE POP JUMP JUMPDEST PUSH1 0x0 PUSH2 0x13AF PUSH1 0x26 DUP4 PUSH2 0xDFA JUMP JUMPDEST SWAP2 POP PUSH2 0x13BA DUP3 PUSH2 0x1353 JUMP JUMPDEST PUSH1 0x40 DUP3 ADD SWAP1 POP SWAP2 SWAP1 POP JUMP JUMPDEST PUSH1 0x0 PUSH1 0x20 DUP3 ADD SWAP1 POP DUP2 DUP2 SUB PUSH1 0x0 DUP4 ADD MSTORE PUSH2 0x13DE DUP2 PUSH2 0x13A2 JUMP JUMPDEST SWAP1 POP SWAP2 SWAP1 POP JUMP JUMPDEST PUSH1 0x0 DUP2 MLOAD SWAP1 POP SWAP2 SWAP1 POP JUMP JUMPDEST PUSH1 0x0 JUMPDEST DUP4 DUP2 LT ISZERO PUSH2 0x140E JUMPI DUP1 DUP3 ADD MLOAD DUP2 DUP5 ADD MSTORE PUSH1 0x20 DUP2 ADD SWAP1 POP PUSH2 0x13F3 JUMP JUMPDEST PUSH1 0x0 DUP5 DUP5 ADD MSTORE POP POP POP POP JUMP JUMPDEST PUSH1 0x0 PUSH1 0x1F NOT PUSH1 0x1F DUP4 ADD AND SWAP1 POP SWAP2 SWAP1 POP JUMP JUMPDEST PUSH1 0x0 PUSH2 0x1436 DUP3 PUSH2 0x13E5 JUMP JUMPDEST PUSH2 0x1440 DUP2 DUP6 PUSH2 0xDFA JUMP JUMPDEST SWAP4 POP PUSH2 0x1450 DUP2 DUP6 PUSH1 0x20 DUP7 ADD PUSH2 0x13F0 JUMP JUMPDEST PUSH2 0x1459 DUP2 PUSH2 0x141A JUMP JUMPDEST DUP5 ADD SWAP2 POP POP SWAP3 SWAP2 POP POP JUMP JUMPDEST PUSH1 0x0 PUSH1 0x40 DUP3 ADD SWAP1 POP DUP2 DUP2 SUB PUSH1 0x0 DUP4 ADD MSTORE PUSH2 0x147E DUP2 DUP6 PUSH2 0x142B JUMP JUMPDEST SWAP1 POP PUSH2 0x148D PUSH1 0x20 DUP4 ADD DUP5 PUSH2 0xC8A JUMP JUMPDEST SWAP4 SWAP3 POP POP POP JUMP JUMPDEST PUSH32 0x4F776E61626C653A2063616C6C6572206973206E6F7420746865206F776E6572 PUSH1 0x0 DUP3 ADD MSTORE POP JUMP JUMPDEST PUSH1 0x0 PUSH2 0x14CA PUSH1 0x20 DUP4 PUSH2 0xDFA JUMP JUMPDEST SWAP2 POP PUSH2 0x14D5 DUP3 PUSH2 0x1494 JUMP JUMPDEST PUSH1 0x20 DUP3 ADD SWAP1 POP SWAP2 SWAP1 POP JUMP JUMPDEST PUSH1 0x0 PUSH1 0x20 DUP3 ADD SWAP1 POP DUP2 DUP2 SUB PUSH1 0x0 DUP4 ADD MSTORE PUSH2 0x14F9 DUP2 PUSH2 0x14BD JUMP JUMPDEST SWAP1 POP SWAP2 SWAP1 POP JUMP INVALID LOG2 PUSH5 0x6970667358 0x22 SLT KECCAK256 SWAP11 0xA7 CREATE2 DUP1 0xDF 0xC7 0xEA ORIGIN SWAP9 ADDRESS 0xEC SIGNEXTEND CREATE2 0xD6 0x2C CALLDATACOPY MULMOD PUSH2 0xD70B CODECOPY 0x2A 0xD2 RETURNDATACOPY DUP5 SWAP5 DUP13 SSTORE STOP 0xDD 0xB8 0xB3 PUSH5 0x736F6C6343 STOP ADDMOD SGT STOP CALLER "},"methodIdentifiers":{"createLoan(uint256,uint256,uint256)":"904b513b","getLoan(uint256)":"504006ca","loans(uint256)":"e1ec3c68","owner()":"8da5cb5b","payBackLoan(uint256)":"6faa8b3f","renounceOwnership()":"715018a6","totalLoans()":"cc952b57","transferOwnership(address)":"f2fde38b"}}}}}