{"contracts/Credit.sol":{"Credit":{"abi":[{"inputs":[],"stateMutability":"nonpayable","type":"constructor"},{"anonymous":false,"inputs":[{"indexed":false,"internalType":"uint256","name":"loanId","type":"uint256"},{"indexed":false,"internalType":"uint256","name":"amount","type":"uint256"},{"indexed":false,"internalType":"uint256","name":"interestRate","type":"uint256"},{"indexed":false,"internalType":"uint256","name":"durationInDays","type":"uint256"},{"indexed":false,"internalType":"uint256","name":"startTimestamp","type":"uint256"},{"indexed":false,"internalType":"address","name":"borrower","type":"address"}],"name":"NewLoan","type":"event"},{"anonymous":false,"inputs":[{"indexed":true,"internalType":"address","name":"previousOwner","type":"address"},{"indexed":true,"internalType":"address","name":"newOwner","type":"address"}],"name":"OwnershipTransferred","type":"event"},{"inputs":[{"internalType":"uint256","name":"_amount","type":"uint256"},{"internalType":"uint256","name":"_interestRate","type":"uint256"},{"internalType":"uint256","name":"_durationInDays","type":"uint256"}],"name":"createLoan","outputs":[],"stateMutability":"nonpayable","type":"function"},{"inputs":[{"internalType":"uint256","name":"_loanId","type":"uint256"}],"name":"getLoan","outputs":[{"components":[{"internalType":"uint256","name":"amount","type":"uint256"},{"internalType":"uint256","name":"interestRate","type":"uint256"},{"internalType":"uint256","name":"durationInDays","type":"uint256"},{"internalType":"uint256","name":"startTimestamp","type":"uint256"},{"internalType":"bool","name":"paidBack","type":"bool"},{"internalType":"address","name":"borrower","type":"address"}],"internalType":"struct Credit.Loan","name":"loan","type":"tuple"}],"stateMutability":"view","type":"function"},{"inputs":[{"internalType":"uint256","name":"","type":"uint256"}],"name":"loans","outputs":[{"internalType":"uint256","name":"amount","type":"uint256"},{"internalType":"uint256","name":"interestRate","type":"uint256"},{"internalType":"uint256","name":"durationInDays","type":"uint256"},{"internalType":"uint256","name":"startTimestamp","type":"uint256"},{"internalType":"bool","name":"paidBack","type":"bool"},{"internalType":"address","name":"borrower","type":"address"}],"stateMutability":"view","type":"function"},{"inputs":[],"name":"nftContract","outputs":[{"internalType":"contract NFT","name":"","type":"address"}],"stateMutability":"view","type":"function"},{"inputs":[],"name":"owner","outputs":[{"internalType":"address","name":"","type":"address"}],"stateMutability":"view","type":"function"},{"inputs":[{"internalType":"uint256","name":"_loanId","type":"uint256"}],"name":"payBackLoan","outputs":[],"stateMutability":"payable","type":"function"},{"inputs":[],"name":"renounceOwnership","outputs":[],"stateMutability":"nonpayable","type":"function"},{"inputs":[],"name":"totalLoans","outputs":[{"internalType":"uint256","name":"","type":"uint256"}],"stateMutability":"view","type":"function"},{"inputs":[{"internalType":"address","name":"newOwner","type":"address"}],"name":"transferOwnership","outputs":[],"stateMutability":"nonpayable","type":"function"}],"evm":{"bytecode":{"linkReferences":{},"object":"608060405234801561001057600080fd5b5061002d61002261008760201b60201c565b61008f60201b60201c565b73f89e7f48a4c31cc26f7069291b041a4fcedb92db600160006101000a81548173ffffffffffffffffffffffffffffffffffffffff021916908373ffffffffffffffffffffffffffffffffffffffff160217905550610153565b600033905090565b60008060009054906101000a900473ffffffffffffffffffffffffffffffffffffffff169050816000806101000a81548173ffffffffffffffffffffffffffffffffffffffff021916908373ffffffffffffffffffffffffffffffffffffffff1602179055508173ffffffffffffffffffffffffffffffffffffffff168173ffffffffffffffffffffffffffffffffffffffff167f8be0079c531659141344cd1fd0a4f28419497f9722a3daafe3b4186f6b6457e060405160405180910390a35050565b6113d2806101626000396000f3fe6080604052600436106100865760003560e01c8063904b513b11610059578063904b513b14610126578063cc952b571461014f578063d56d229d1461017a578063e1ec3c68146101a5578063f2fde38b146101e757610086565b8063504006ca1461008b5780636faa8b3f146100c8578063715018a6146100e45780638da5cb5b146100fb575b600080fd5b34801561009757600080fd5b506100b260048036038101906100ad9190610a2d565b610210565b6040516100bf9190610b40565b60405180910390f35b6100e260048036038101906100dd9190610a2d565b6102d6565b005b3480156100f057600080fd5b506100f96104ef565b005b34801561010757600080fd5b50610110610503565b60405161011d9190610b6a565b60405180910390f35b34801561013257600080fd5b5061014d60048036038101906101489190610b85565b61052c565b005b34801561015b57600080fd5b50610164610742565b6040516101719190610be7565b60405180910390f35b34801561018657600080fd5b5061018f610748565b60405161019c9190610c61565b60405180910390f35b3480156101b157600080fd5b506101cc60048036038101906101c79190610a2d565b61076e565b6040516101de96959493929190610c8b565b60405180910390f35b3480156101f357600080fd5b5061020e60048036038101906102099190610d18565b6107d7565b005b6102186109a4565b600360008381526020019081526020016000206040518060c0016040529081600082015481526020016001820154815260200160028201548152602001600382015481526020016004820160009054906101000a900460ff161515151581526020016004820160019054906101000a900473ffffffffffffffffffffffffffffffffffffffff1673ffffffffffffffffffffffffffffffffffffffff1673ffffffffffffffffffffffffffffffffffffffff16815250509050919050565b60006003600083815260200190815260200160002090508060040160019054906101000a900473ffffffffffffffffffffffffffffffffffffffff1673ffffffffffffffffffffffffffffffffffffffff163373ffffffffffffffffffffffffffffffffffffffff161461037f576040517f08c379a000000000000000000000000000000000000000000000000000000000815260040161037690610dc8565b60405180910390fd5b8060040160009054906101000a900460ff16156103d1576040517f08c379a00000000000000000000000000000000000000000000000000000000081526004016103c890610e34565b60405180910390fd5b6064816001015482600001546103e79190610e83565b6103f19190610ef4565b81600001546104009190610f25565b3414610441576040517f08c379a000000000000000000000000000000000000000000000000000000000815260040161043890610ff1565b60405180910390fd5b60018160040160006101000a81548160ff021916908315150217905550600160009054906101000a900473ffffffffffffffffffffffffffffffffffffffff1673ffffffffffffffffffffffffffffffffffffffff16638be6e43c336040518263ffffffff1660e01b81526004016104b9919061105d565b600060405180830381600087803b1580156104d357600080fd5b505af11580156104e7573d6000803e3d6000fd5b505050505050565b6104f761085a565b61050160006108d8565b565b60008060009054906101000a900473ffffffffffffffffffffffffffffffffffffffff16905090565b6000831161056f576040517f08c379a0000000000000000000000000000000000000000000000000000000008152600401610566906110d7565b60405180910390fd5b600082116105b2576040517f08c379a00000000000000000000000000000000000000000000000000000000081526004016105a990611169565b60405180910390fd5b600081116105f5576040517f08c379a00000000000000000000000000000000000000000000000000000000081526004016105ec906111d5565b60405180910390fd5b60026000815480929190610608906111f5565b91905055506040518060c001604052808481526020018381526020018281526020014281526020016000151581526020013373ffffffffffffffffffffffffffffffffffffffff168152506003600060025481526020019081526020016000206000820151816000015560208201518160010155604082015181600201556060820151816003015560808201518160040160006101000a81548160ff02191690831515021790555060a08201518160040160016101000a81548173ffffffffffffffffffffffffffffffffffffffff021916908373ffffffffffffffffffffffffffffffffffffffff1602179055509050507f76d49d9e0147609a87a0c46037c88aeb761c602df29ec9d11ce12807301596aa60025484848442336040516107359695949392919061123d565b60405180910390a1505050565b60025481565b600160009054906101000a900473ffffffffffffffffffffffffffffffffffffffff1681565b60036020528060005260406000206000915090508060000154908060010154908060020154908060030154908060040160009054906101000a900460ff16908060040160019054906101000a900473ffffffffffffffffffffffffffffffffffffffff16905086565b6107df61085a565b600073ffffffffffffffffffffffffffffffffffffffff168173ffffffffffffffffffffffffffffffffffffffff160361084e576040517f08c379a000000000000000000000000000000000000000000000000000000000815260040161084590611310565b60405180910390fd5b610857816108d8565b50565b61086261099c565b73ffffffffffffffffffffffffffffffffffffffff16610880610503565b73ffffffffffffffffffffffffffffffffffffffff16146108d6576040517f08c379a00000000000000000000000000000000000000000000000000000000081526004016108cd9061137c565b60405180910390fd5b565b60008060009054906101000a900473ffffffffffffffffffffffffffffffffffffffff169050816000806101000a81548173ffffffffffffffffffffffffffffffffffffffff021916908373ffffffffffffffffffffffffffffffffffffffff1602179055508173ffffffffffffffffffffffffffffffffffffffff168173ffffffffffffffffffffffffffffffffffffffff167f8be0079c531659141344cd1fd0a4f28419497f9722a3daafe3b4186f6b6457e060405160405180910390a35050565b600033905090565b6040518060c0016040528060008152602001600081526020016000815260200160008152602001600015158152602001600073ffffffffffffffffffffffffffffffffffffffff1681525090565b600080fd5b6000819050919050565b610a0a816109f7565b8114610a1557600080fd5b50565b600081359050610a2781610a01565b92915050565b600060208284031215610a4357610a426109f2565b5b6000610a5184828501610a18565b91505092915050565b610a63816109f7565b82525050565b60008115159050919050565b610a7e81610a69565b82525050565b600073ffffffffffffffffffffffffffffffffffffffff82169050919050565b6000610aaf82610a84565b9050919050565b610abf81610aa4565b82525050565b60c082016000820151610adb6000850182610a5a565b506020820151610aee6020850182610a5a565b506040820151610b016040850182610a5a565b506060820151610b146060850182610a5a565b506080820151610b276080850182610a75565b5060a0820151610b3a60a0850182610ab6565b50505050565b600060c082019050610b556000830184610ac5565b92915050565b610b6481610aa4565b82525050565b6000602082019050610b7f6000830184610b5b565b92915050565b600080600060608486031215610b9e57610b9d6109f2565b5b6000610bac86828701610a18565b9350506020610bbd86828701610a18565b9250506040610bce86828701610a18565b9150509250925092565b610be1816109f7565b82525050565b6000602082019050610bfc6000830184610bd8565b92915050565b6000819050919050565b6000610c27610c22610c1d84610a84565b610c02565b610a84565b9050919050565b6000610c3982610c0c565b9050919050565b6000610c4b82610c2e565b9050919050565b610c5b81610c40565b82525050565b6000602082019050610c766000830184610c52565b92915050565b610c8581610a69565b82525050565b600060c082019050610ca06000830189610bd8565b610cad6020830188610bd8565b610cba6040830187610bd8565b610cc76060830186610bd8565b610cd46080830185610c7c565b610ce160a0830184610b5b565b979650505050505050565b610cf581610aa4565b8114610d0057600080fd5b50565b600081359050610d1281610cec565b92915050565b600060208284031215610d2e57610d2d6109f2565b5b6000610d3c84828501610d03565b91505092915050565b600082825260208201905092915050565b7f4f6e6c792074686520626f72726f7765722063616e20706179206261636b207460008201527f6865206c6f616e00000000000000000000000000000000000000000000000000602082015250565b6000610db2602783610d45565b9150610dbd82610d56565b604082019050919050565b60006020820190508181036000830152610de181610da5565b9050919050565b7f4c6f616e2068617320616c7265616479206265656e2070616964206261636b00600082015250565b6000610e1e601f83610d45565b9150610e2982610de8565b602082019050919050565b60006020820190508181036000830152610e4d81610e11565b9050919050565b7f4e487b7100000000000000000000000000000000000000000000000000000000600052601160045260246000fd5b6000610e8e826109f7565b9150610e99836109f7565b9250828202610ea7816109f7565b91508282048414831517610ebe57610ebd610e54565b5b5092915050565b7f4e487b7100000000000000000000000000000000000000000000000000000000600052601260045260246000fd5b6000610eff826109f7565b9150610f0a836109f7565b925082610f1a57610f19610ec5565b5b828204905092915050565b6000610f30826109f7565b9150610f3b836109f7565b9250828201905080821115610f5357610f52610e54565b5b92915050565b7f416d6f756e742073656e74206d75737420626520657175616c20746f2074686560008201527f20616d6f756e7420626f72726f77656420706c75732074686520696e7465726560208201527f7374000000000000000000000000000000000000000000000000000000000000604082015250565b6000610fdb604283610d45565b9150610fe682610f59565b606082019050919050565b6000602082019050818103600083015261100a81610fce565b9050919050565b7f3300000000000000000000000000000000000000000000000000000000000000600082015250565b6000611047600183610d45565b915061105282611011565b602082019050919050565b60006040820190506110726000830184610b5b565b81810360208301526110838161103a565b905092915050565b7f416d6f756e74206d7573742062652067726561746572207468616e2030000000600082015250565b60006110c1601d83610d45565b91506110cc8261108b565b602082019050919050565b600060208201905081810360008301526110f0816110b4565b9050919050565b7f496e7465726573742072617465206d757374206265206772656174657220746860008201527f616e203000000000000000000000000000000000000000000000000000000000602082015250565b6000611153602483610d45565b915061115e826110f7565b604082019050919050565b6000602082019050818103600083015261118281611146565b9050919050565b7f4475726174696f6e206d7573742062652067726561746572207468616e203000600082015250565b60006111bf601f83610d45565b91506111ca82611189565b602082019050919050565b600060208201905081810360008301526111ee816111b2565b9050919050565b6000611200826109f7565b91507fffffffffffffffffffffffffffffffffffffffffffffffffffffffffffffffff820361123257611231610e54565b5b600182019050919050565b600060c0820190506112526000830189610bd8565b61125f6020830188610bd8565b61126c6040830187610bd8565b6112796060830186610bd8565b6112866080830185610bd8565b61129360a0830184610b5b565b979650505050505050565b7f4f776e61626c653a206e6577206f776e657220697320746865207a65726f206160008201527f6464726573730000000000000000000000000000000000000000000000000000602082015250565b60006112fa602683610d45565b91506113058261129e565b604082019050919050565b60006020820190508181036000830152611329816112ed565b9050919050565b7f4f776e61626c653a2063616c6c6572206973206e6f7420746865206f776e6572600082015250565b6000611366602083610d45565b915061137182611330565b602082019050919050565b6000602082019050818103600083015261139581611359565b905091905056fea26469706673582212209e682738ae52e03893dd552720d1f028d403443553ad12b6681427178e11d2f164736f6c63430008130033","opcodes":"PUSH1 0x80 PUSH1 0x40 MSTORE CALLVALUE DUP1 ISZERO PUSH2 0x10 JUMPI PUSH1 0x0 DUP1 REVERT JUMPDEST POP PUSH2 0x2D PUSH2 0x22 PUSH2 0x87 PUSH1 0x20 SHL PUSH1 0x20 SHR JUMP JUMPDEST PUSH2 0x8F PUSH1 0x20 SHL PUSH1 0x20 SHR JUMP JUMPDEST PUSH20 0xF89E7F48A4C31CC26F7069291B041A4FCEDB92DB PUSH1 0x1 PUSH1 0x0 PUSH2 0x100 EXP DUP2 SLOAD DUP2 PUSH20 0xFFFFFFFFFFFFFFFFFFFFFFFFFFFFFFFFFFFFFFFF MUL NOT AND SWAP1 DUP4 PUSH20 0xFFFFFFFFFFFFFFFFFFFFFFFFFFFFFFFFFFFFFFFF AND MUL OR SWAP1 SSTORE POP PUSH2 0x153 JUMP JUMPDEST PUSH1 0x0 CALLER SWAP1 POP SWAP1 JUMP JUMPDEST PUSH1 0x0 DUP1 PUSH1 0x0 SWAP1 SLOAD SWAP1 PUSH2 0x100 EXP SWAP1 DIV PUSH20 0xFFFFFFFFFFFFFFFFFFFFFFFFFFFFFFFFFFFFFFFF AND SWAP1 POP DUP2 PUSH1 0x0 DUP1 PUSH2 0x100 EXP DUP2 SLOAD DUP2 PUSH20 0xFFFFFFFFFFFFFFFFFFFFFFFFFFFFFFFFFFFFFFFF MUL NOT AND SWAP1 DUP4 PUSH20 0xFFFFFFFFFFFFFFFFFFFFFFFFFFFFFFFFFFFFFFFF AND MUL OR SWAP1 SSTORE POP DUP2 PUSH20 0xFFFFFFFFFFFFFFFFFFFFFFFFFFFFFFFFFFFFFFFF AND DUP2 PUSH20 0xFFFFFFFFFFFFFFFFFFFFFFFFFFFFFFFFFFFFFFFF AND PUSH32 0x8BE0079C531659141344CD1FD0A4F28419497F9722A3DAAFE3B4186F6B6457E0 PUSH1 0x40 MLOAD PUSH1 0x40 MLOAD DUP1 SWAP2 SUB SWAP1 LOG3 POP POP JUMP JUMPDEST PUSH2 0x13D2 DUP1 PUSH2 0x162 PUSH1 0x0 CODECOPY PUSH1 0x0 RETURN INVALID PUSH1 0x80 PUSH1 0x40 MSTORE PUSH1 0x4 CALLDATASIZE LT PUSH2 0x86 JUMPI PUSH1 0x0 CALLDATALOAD PUSH1 0xE0 SHR DUP1 PUSH4 0x904B513B GT PUSH2 0x59 JUMPI DUP1 PUSH4 0x904B513B EQ PUSH2 0x126 JUMPI DUP1 PUSH4 0xCC952B57 EQ PUSH2 0x14F JUMPI DUP1 PUSH4 0xD56D229D EQ PUSH2 0x17A JUMPI DUP1 PUSH4 0xE1EC3C68 EQ PUSH2 0x1A5 JUMPI DUP1 PUSH4 0xF2FDE38B EQ PUSH2 0x1E7 JUMPI PUSH2 0x86 JUMP JUMPDEST DUP1 PUSH4 0x504006CA EQ PUSH2 0x8B JUMPI DUP1 PUSH4 0x6FAA8B3F EQ PUSH2 0xC8 JUMPI DUP1 PUSH4 0x715018A6 EQ PUSH2 0xE4 JUMPI DUP1 PUSH4 0x8DA5CB5B EQ PUSH2 0xFB JUMPI JUMPDEST PUSH1 0x0 DUP1 REVERT JUMPDEST CALLVALUE DUP1 ISZERO PUSH2 0x97 JUMPI PUSH1 0x0 DUP1 REVERT JUMPDEST POP PUSH2 0xB2 PUSH1 0x4 DUP1 CALLDATASIZE SUB DUP2 ADD SWAP1 PUSH2 0xAD SWAP2 SWAP1 PUSH2 0xA2D JUMP JUMPDEST PUSH2 0x210 JUMP JUMPDEST PUSH1 0x40 MLOAD PUSH2 0xBF SWAP2 SWAP1 PUSH2 0xB40 JUMP JUMPDEST PUSH1 0x40 MLOAD DUP1 SWAP2 SUB SWAP1 RETURN JUMPDEST PUSH2 0xE2 PUSH1 0x4 DUP1 CALLDATASIZE SUB DUP2 ADD SWAP1 PUSH2 0xDD SWAP2 SWAP1 PUSH2 0xA2D JUMP JUMPDEST PUSH2 0x2D6 JUMP JUMPDEST STOP JUMPDEST CALLVALUE DUP1 ISZERO PUSH2 0xF0 JUMPI PUSH1 0x0 DUP1 REVERT JUMPDEST POP PUSH2 0xF9 PUSH2 0x4EF JUMP JUMPDEST STOP JUMPDEST CALLVALUE DUP1 ISZERO PUSH2 0x107 JUMPI PUSH1 0x0 DUP1 REVERT JUMPDEST POP PUSH2 0x110 PUSH2 0x503 JUMP JUMPDEST PUSH1 0x40 MLOAD PUSH2 0x11D SWAP2 SWAP1 PUSH2 0xB6A JUMP JUMPDEST PUSH1 0x40 MLOAD DUP1 SWAP2 SUB SWAP1 RETURN JUMPDEST CALLVALUE DUP1 ISZERO PUSH2 0x132 JUMPI PUSH1 0x0 DUP1 REVERT JUMPDEST POP PUSH2 0x14D PUSH1 0x4 DUP1 CALLDATASIZE SUB DUP2 ADD SWAP1 PUSH2 0x148 SWAP2 SWAP1 PUSH2 0xB85 JUMP JUMPDEST PUSH2 0x52C JUMP JUMPDEST STOP JUMPDEST CALLVALUE DUP1 ISZERO PUSH2 0x15B JUMPI PUSH1 0x0 DUP1 REVERT JUMPDEST POP PUSH2 0x164 PUSH2 0x742 JUMP JUMPDEST PUSH1 0x40 MLOAD PUSH2 0x171 SWAP2 SWAP1 PUSH2 0xBE7 JUMP JUMPDEST PUSH1 0x40 MLOAD DUP1 SWAP2 SUB SWAP1 RETURN JUMPDEST CALLVALUE DUP1 ISZERO PUSH2 0x186 JUMPI PUSH1 0x0 DUP1 REVERT JUMPDEST POP PUSH2 0x18F PUSH2 0x748 JUMP JUMPDEST PUSH1 0x40 MLOAD PUSH2 0x19C SWAP2 SWAP1 PUSH2 0xC61 JUMP JUMPDEST PUSH1 0x40 MLOAD DUP1 SWAP2 SUB SWAP1 RETURN JUMPDEST CALLVALUE DUP1 ISZERO PUSH2 0x1B1 JUMPI PUSH1 0x0 DUP1 REVERT JUMPDEST POP PUSH2 0x1CC PUSH1 0x4 DUP1 CALLDATASIZE SUB DUP2 ADD SWAP1 PUSH2 0x1C7 SWAP2 SWAP1 PUSH2 0xA2D JUMP JUMPDEST PUSH2 0x76E JUMP JUMPDEST PUSH1 0x40 MLOAD PUSH2 0x1DE SWAP7 SWAP6 SWAP5 SWAP4 SWAP3 SWAP2 SWAP1 PUSH2 0xC8B JUMP JUMPDEST PUSH1 0x40 MLOAD DUP1 SWAP2 SUB SWAP1 RETURN JUMPDEST CALLVALUE DUP1 ISZERO PUSH2 0x1F3 JUMPI PUSH1 0x0 DUP1 REVERT JUMPDEST POP PUSH2 0x20E PUSH1 0x4 DUP1 CALLDATASIZE SUB DUP2 ADD SWAP1 PUSH2 0x209 SWAP2 SWAP1 PUSH2 0xD18 JUMP JUMPDEST PUSH2 0x7D7 JUMP JUMPDEST STOP JUMPDEST PUSH2 0x218 PUSH2 0x9A4 JUMP JUMPDEST PUSH1 0x3 PUSH1 0x0 DUP4 DUP2 MSTORE PUSH1 0x20 ADD SWAP1 DUP2 MSTORE PUSH1 0x20 ADD PUSH1 0x0 KECCAK256 PUSH1 0x40 MLOAD DUP1 PUSH1 0xC0 ADD PUSH1 0x40 MSTORE SWAP1 DUP2 PUSH1 0x0 DUP3 ADD SLOAD DUP2 MSTORE PUSH1 0x20 ADD PUSH1 0x1 DUP3 ADD SLOAD DUP2 MSTORE PUSH1 0x20 ADD PUSH1 0x2 DUP3 ADD SLOAD DUP2 MSTORE PUSH1 0x20 ADD PUSH1 0x3 DUP3 ADD SLOAD DUP2 MSTORE PUSH1 0x20 ADD PUSH1 0x4 DUP3 ADD PUSH1 0x0 SWAP1 SLOAD SWAP1 PUSH2 0x100 EXP SWAP1 DIV PUSH1 0xFF AND ISZERO ISZERO ISZERO ISZERO DUP2 MSTORE PUSH1 0x20 ADD PUSH1 0x4 DUP3 ADD PUSH1 0x1 SWAP1 SLOAD SWAP1 PUSH2 0x100 EXP SWAP1 DIV PUSH20 0xFFFFFFFFFFFFFFFFFFFFFFFFFFFFFFFFFFFFFFFF AND PUSH20 0xFFFFFFFFFFFFFFFFFFFFFFFFFFFFFFFFFFFFFFFF AND PUSH20 0xFFFFFFFFFFFFFFFFFFFFFFFFFFFFFFFFFFFFFFFF AND DUP2 MSTORE POP POP SWAP1 POP SWAP2 SWAP1 POP JUMP JUMPDEST PUSH1 0x0 PUSH1 0x3 PUSH1 0x0 DUP4 DUP2 MSTORE PUSH1 0x20 ADD SWAP1 DUP2 MSTORE PUSH1 0x20 ADD PUSH1 0x0 KECCAK256 SWAP1 POP DUP1 PUSH1 0x4 ADD PUSH1 0x1 SWAP1 SLOAD SWAP1 PUSH2 0x100 EXP SWAP1 DIV PUSH20 0xFFFFFFFFFFFFFFFFFFFFFFFFFFFFFFFFFFFFFFFF AND PUSH20 0xFFFFFFFFFFFFFFFFFFFFFFFFFFFFFFFFFFFFFFFF AND CALLER PUSH20 0xFFFFFFFFFFFFFFFFFFFFFFFFFFFFFFFFFFFFFFFF AND EQ PUSH2 0x37F JUMPI PUSH1 0x40 MLOAD PUSH32 0x8C379A000000000000000000000000000000000000000000000000000000000 DUP2 MSTORE PUSH1 0x4 ADD PUSH2 0x376 SWAP1 PUSH2 0xDC8 JUMP JUMPDEST PUSH1 0x40 MLOAD DUP1 SWAP2 SUB SWAP1 REVERT JUMPDEST DUP1 PUSH1 0x4 ADD PUSH1 0x0 SWAP1 SLOAD SWAP1 PUSH2 0x100 EXP SWAP1 DIV PUSH1 0xFF AND ISZERO PUSH2 0x3D1 JUMPI PUSH1 0x40 MLOAD PUSH32 0x8C379A000000000000000000000000000000000000000000000000000000000 DUP2 MSTORE PUSH1 0x4 ADD PUSH2 0x3C8 SWAP1 PUSH2 0xE34 JUMP JUMPDEST PUSH1 0x40 MLOAD DUP1 SWAP2 SUB SWAP1 REVERT JUMPDEST PUSH1 0x64 DUP2 PUSH1 0x1 ADD SLOAD DUP3 PUSH1 0x0 ADD SLOAD PUSH2 0x3E7 SWAP2 SWAP1 PUSH2 0xE83 JUMP JUMPDEST PUSH2 0x3F1 SWAP2 SWAP1 PUSH2 0xEF4 JUMP JUMPDEST DUP2 PUSH1 0x0 ADD SLOAD PUSH2 0x400 SWAP2 SWAP1 PUSH2 0xF25 JUMP JUMPDEST CALLVALUE EQ PUSH2 0x441 JUMPI PUSH1 0x40 MLOAD PUSH32 0x8C379A000000000000000000000000000000000000000000000000000000000 DUP2 MSTORE PUSH1 0x4 ADD PUSH2 0x438 SWAP1 PUSH2 0xFF1 JUMP JUMPDEST PUSH1 0x40 MLOAD DUP1 SWAP2 SUB SWAP1 REVERT JUMPDEST PUSH1 0x1 DUP2 PUSH1 0x4 ADD PUSH1 0x0 PUSH2 0x100 EXP DUP2 SLOAD DUP2 PUSH1 0xFF MUL NOT AND SWAP1 DUP4 ISZERO ISZERO MUL OR SWAP1 SSTORE POP PUSH1 0x1 PUSH1 0x0 SWAP1 SLOAD SWAP1 PUSH2 0x100 EXP SWAP1 DIV PUSH20 0xFFFFFFFFFFFFFFFFFFFFFFFFFFFFFFFFFFFFFFFF AND PUSH20 0xFFFFFFFFFFFFFFFFFFFFFFFFFFFFFFFFFFFFFFFF AND PUSH4 0x8BE6E43C CALLER PUSH1 0x40 MLOAD DUP3 PUSH4 0xFFFFFFFF AND PUSH1 0xE0 SHL DUP2 MSTORE PUSH1 0x4 ADD PUSH2 0x4B9 SWAP2 SWAP1 PUSH2 0x105D JUMP JUMPDEST PUSH1 0x0 PUSH1 0x40 MLOAD DUP1 DUP4 SUB DUP2 PUSH1 0x0 DUP8 DUP1 EXTCODESIZE ISZERO DUP1 ISZERO PUSH2 0x4D3 JUMPI PUSH1 0x0 DUP1 REVERT JUMPDEST POP GAS CALL ISZERO DUP1 ISZERO PUSH2 0x4E7 JUMPI RETURNDATASIZE PUSH1 0x0 DUP1 RETURNDATACOPY RETURNDATASIZE PUSH1 0x0 REVERT JUMPDEST POP POP POP POP POP POP JUMP JUMPDEST PUSH2 0x4F7 PUSH2 0x85A JUMP JUMPDEST PUSH2 0x501 PUSH1 0x0 PUSH2 0x8D8 JUMP JUMPDEST JUMP JUMPDEST PUSH1 0x0 DUP1 PUSH1 0x0 SWAP1 SLOAD SWAP1 PUSH2 0x100 EXP SWAP1 DIV PUSH20 0xFFFFFFFFFFFFFFFFFFFFFFFFFFFFFFFFFFFFFFFF AND SWAP1 POP SWAP1 JUMP JUMPDEST PUSH1 0x0 DUP4 GT PUSH2 0x56F JUMPI PUSH1 0x40 MLOAD PUSH32 0x8C379A000000000000000000000000000000000000000000000000000000000 DUP2 MSTORE PUSH1 0x4 ADD PUSH2 0x566 SWAP1 PUSH2 0x10D7 JUMP JUMPDEST PUSH1 0x40 MLOAD DUP1 SWAP2 SUB SWAP1 REVERT JUMPDEST PUSH1 0x0 DUP3 GT PUSH2 0x5B2 JUMPI PUSH1 0x40 MLOAD PUSH32 0x8C379A000000000000000000000000000000000000000000000000000000000 DUP2 MSTORE PUSH1 0x4 ADD PUSH2 0x5A9 SWAP1 PUSH2 0x1169 JUMP JUMPDEST PUSH1 0x40 MLOAD DUP1 SWAP2 SUB SWAP1 REVERT JUMPDEST PUSH1 0x0 DUP2 GT PUSH2 0x5F5 JUMPI PUSH1 0x40 MLOAD PUSH32 0x8C379A000000000000000000000000000000000000000000000000000000000 DUP2 MSTORE PUSH1 0x4 ADD PUSH2 0x5EC SWAP1 PUSH2 0x11D5 JUMP JUMPDEST PUSH1 0x40 MLOAD DUP1 SWAP2 SUB SWAP1 REVERT JUMPDEST PUSH1 0x2 PUSH1 0x0 DUP2 SLOAD DUP1 SWAP3 SWAP2 SWAP1 PUSH2 0x608 SWAP1 PUSH2 0x11F5 JUMP JUMPDEST SWAP2 SWAP1 POP SSTORE POP PUSH1 0x40 MLOAD DUP1 PUSH1 0xC0 ADD PUSH1 0x40 MSTORE DUP1 DUP5 DUP2 MSTORE PUSH1 0x20 ADD DUP4 DUP2 MSTORE PUSH1 0x20 ADD DUP3 DUP2 MSTORE PUSH1 0x20 ADD TIMESTAMP DUP2 MSTORE PUSH1 0x20 ADD PUSH1 0x0 ISZERO ISZERO DUP2 MSTORE PUSH1 0x20 ADD CALLER PUSH20 0xFFFFFFFFFFFFFFFFFFFFFFFFFFFFFFFFFFFFFFFF AND DUP2 MSTORE POP PUSH1 0x3 PUSH1 0x0 PUSH1 0x2 SLOAD DUP2 MSTORE PUSH1 0x20 ADD SWAP1 DUP2 MSTORE PUSH1 0x20 ADD PUSH1 0x0 KECCAK256 PUSH1 0x0 DUP3 ADD MLOAD DUP2 PUSH1 0x0 ADD SSTORE PUSH1 0x20 DUP3 ADD MLOAD DUP2 PUSH1 0x1 ADD SSTORE PUSH1 0x40 DUP3 ADD MLOAD DUP2 PUSH1 0x2 ADD SSTORE PUSH1 0x60 DUP3 ADD MLOAD DUP2 PUSH1 0x3 ADD SSTORE PUSH1 0x80 DUP3 ADD MLOAD DUP2 PUSH1 0x4 ADD PUSH1 0x0 PUSH2 0x100 EXP DUP2 SLOAD DUP2 PUSH1 0xFF MUL NOT AND SWAP1 DUP4 ISZERO ISZERO MUL OR SWAP1 SSTORE POP PUSH1 0xA0 DUP3 ADD MLOAD DUP2 PUSH1 0x4 ADD PUSH1 0x1 PUSH2 0x100 EXP DUP2 SLOAD DUP2 PUSH20 0xFFFFFFFFFFFFFFFFFFFFFFFFFFFFFFFFFFFFFFFF MUL NOT AND SWAP1 DUP4 PUSH20 0xFFFFFFFFFFFFFFFFFFFFFFFFFFFFFFFFFFFFFFFF AND MUL OR SWAP1 SSTORE POP SWAP1 POP POP PUSH32 0x76D49D9E0147609A87A0C46037C88AEB761C602DF29EC9D11CE12807301596AA PUSH1 0x2 SLOAD DUP5 DUP5 DUP5 TIMESTAMP CALLER PUSH1 0x40 MLOAD PUSH2 0x735 SWAP7 SWAP6 SWAP5 SWAP4 SWAP3 SWAP2 SWAP1 PUSH2 0x123D JUMP JUMPDEST PUSH1 0x40 MLOAD DUP1 SWAP2 SUB SWAP1 LOG1 POP POP POP JUMP JUMPDEST PUSH1 0x2 SLOAD DUP2 JUMP JUMPDEST PUSH1 0x1 PUSH1 0x0 SWAP1 SLOAD SWAP1 PUSH2 0x100 EXP SWAP1 DIV PUSH20 0xFFFFFFFFFFFFFFFFFFFFFFFFFFFFFFFFFFFFFFFF AND DUP2 JUMP JUMPDEST PUSH1 0x3 PUSH1 0x20 MSTORE DUP1 PUSH1 0x0 MSTORE PUSH1 0x40 PUSH1 0x0 KECCAK256 PUSH1 0x0 SWAP2 POP SWAP1 POP DUP1 PUSH1 0x0 ADD SLOAD SWAP1 DUP1 PUSH1 0x1 ADD SLOAD SWAP1 DUP1 PUSH1 0x2 ADD SLOAD SWAP1 DUP1 PUSH1 0x3 ADD SLOAD SWAP1 DUP1 PUSH1 0x4 ADD PUSH1 0x0 SWAP1 SLOAD SWAP1 PUSH2 0x100 EXP SWAP1 DIV PUSH1 0xFF AND SWAP1 DUP1 PUSH1 0x4 ADD PUSH1 0x1 SWAP1 SLOAD SWAP1 PUSH2 0x100 EXP SWAP1 DIV PUSH20 0xFFFFFFFFFFFFFFFFFFFFFFFFFFFFFFFFFFFFFFFF AND SWAP1 POP DUP7 JUMP JUMPDEST PUSH2 0x7DF PUSH2 0x85A JUMP JUMPDEST PUSH1 0x0 PUSH20 0xFFFFFFFFFFFFFFFFFFFFFFFFFFFFFFFFFFFFFFFF AND DUP2 PUSH20 0xFFFFFFFFFFFFFFFFFFFFFFFFFFFFFFFFFFFFFFFF AND SUB PUSH2 0x84E JUMPI PUSH1 0x40 MLOAD PUSH32 0x8C379A000000000000000000000000000000000000000000000000000000000 DUP2 MSTORE PUSH1 0x4 ADD PUSH2 0x845 SWAP1 PUSH2 0x1310 JUMP JUMPDEST PUSH1 0x40 MLOAD DUP1 SWAP2 SUB SWAP1 REVERT JUMPDEST PUSH2 0x857 DUP2 PUSH2 0x8D8 JUMP JUMPDEST POP JUMP JUMPDEST PUSH2 0x862 PUSH2 0x99C JUMP JUMPDEST PUSH20 0xFFFFFFFFFFFFFFFFFFFFFFFFFFFFFFFFFFFFFFFF AND PUSH2 0x880 PUSH2 0x503 JUMP JUMPDEST PUSH20 0xFFFFFFFFFFFFFFFFFFFFFFFFFFFFFFFFFFFFFFFF AND EQ PUSH2 0x8D6 JUMPI PUSH1 0x40 MLOAD PUSH32 0x8C379A000000000000000000000000000000000000000000000000000000000 DUP2 MSTORE PUSH1 0x4 ADD PUSH2 0x8CD SWAP1 PUSH2 0x137C JUMP JUMPDEST PUSH1 0x40 MLOAD DUP1 SWAP2 SUB SWAP1 REVERT JUMPDEST JUMP JUMPDEST PUSH1 0x0 DUP1 PUSH1 0x0 SWAP1 SLOAD SWAP1 PUSH2 0x100 EXP SWAP1 DIV PUSH20 0xFFFFFFFFFFFFFFFFFFFFFFFFFFFFFFFFFFFFFFFF AND SWAP1 POP DUP2 PUSH1 0x0 DUP1 PUSH2 0x100 EXP DUP2 SLOAD DUP2 PUSH20 0xFFFFFFFFFFFFFFFFFFFFFFFFFFFFFFFFFFFFFFFF MUL NOT AND SWAP1 DUP4 PUSH20 0xFFFFFFFFFFFFFFFFFFFFFFFFFFFFFFFFFFFFFFFF AND MUL OR SWAP1 SSTORE POP DUP2 PUSH20 0xFFFFFFFFFFFFFFFFFFFFFFFFFFFFFFFFFFFFFFFF AND DUP2 PUSH20 0xFFFFFFFFFFFFFFFFFFFFFFFFFFFFFFFFFFFFFFFF AND PUSH32 0x8BE0079C531659141344CD1FD0A4F28419497F9722A3DAAFE3B4186F6B6457E0 PUSH1 0x40 MLOAD PUSH1 0x40 MLOAD DUP1 SWAP2 SUB SWAP1 LOG3 POP POP JUMP JUMPDEST PUSH1 0x0 CALLER SWAP1 POP SWAP1 JUMP JUMPDEST PUSH1 0x40 MLOAD DUP1 PUSH1 0xC0 ADD PUSH1 0x40 MSTORE DUP1 PUSH1 0x0 DUP2 MSTORE PUSH1 0x20 ADD PUSH1 0x0 DUP2 MSTORE PUSH1 0x20 ADD PUSH1 0x0 DUP2 MSTORE PUSH1 0x20 ADD PUSH1 0x0 DUP2 MSTORE PUSH1 0x20 ADD PUSH1 0x0 ISZERO ISZERO DUP2 MSTORE PUSH1 0x20 ADD PUSH1 0x0 PUSH20 0xFFFFFFFFFFFFFFFFFFFFFFFFFFFFFFFFFFFFFFFF AND DUP2 MSTORE POP SWAP1 JUMP JUMPDEST PUSH1 0x0 DUP1 REVERT JUMPDEST PUSH1 0x0 DUP2 SWAP1 POP SWAP2 SWAP1 POP JUMP JUMPDEST PUSH2 0xA0A DUP2 PUSH2 0x9F7 JUMP JUMPDEST DUP2 EQ PUSH2 0xA15 JUMPI PUSH1 0x0 DUP1 REVERT JUMPDEST POP JUMP JUMPDEST PUSH1 0x0 DUP2 CALLDATALOAD SWAP1 POP PUSH2 0xA27 DUP2 PUSH2 0xA01 JUMP JUMPDEST SWAP3 SWAP2 POP POP JUMP JUMPDEST PUSH1 0x0 PUSH1 0x20 DUP3 DUP5 SUB SLT ISZERO PUSH2 0xA43 JUMPI PUSH2 0xA42 PUSH2 0x9F2 JUMP JUMPDEST JUMPDEST PUSH1 0x0 PUSH2 0xA51 DUP5 DUP3 DUP6 ADD PUSH2 0xA18 JUMP JUMPDEST SWAP2 POP POP SWAP3 SWAP2 POP POP JUMP JUMPDEST PUSH2 0xA63 DUP2 PUSH2 0x9F7 JUMP JUMPDEST DUP3 MSTORE POP POP JUMP JUMPDEST PUSH1 0x0 DUP2 ISZERO ISZERO SWAP1 POP SWAP2 SWAP1 POP JUMP JUMPDEST PUSH2 0xA7E DUP2 PUSH2 0xA69 JUMP JUMPDEST DUP3 MSTORE POP POP JUMP JUMPDEST PUSH1 0x0 PUSH20 0xFFFFFFFFFFFFFFFFFFFFFFFFFFFFFFFFFFFFFFFF DUP3 AND SWAP1 POP SWAP2 SWAP1 POP JUMP JUMPDEST PUSH1 0x0 PUSH2 0xAAF DUP3 PUSH2 0xA84 JUMP JUMPDEST SWAP1 POP SWAP2 SWAP1 POP JUMP JUMPDEST PUSH2 0xABF DUP2 PUSH2 0xAA4 JUMP JUMPDEST DUP3 MSTORE POP POP JUMP JUMPDEST PUSH1 0xC0 DUP3 ADD PUSH1 0x0 DUP3 ADD MLOAD PUSH2 0xADB PUSH1 0x0 DUP6 ADD DUP3 PUSH2 0xA5A JUMP JUMPDEST POP PUSH1 0x20 DUP3 ADD MLOAD PUSH2 0xAEE PUSH1 0x20 DUP6 ADD DUP3 PUSH2 0xA5A JUMP JUMPDEST POP PUSH1 0x40 DUP3 ADD MLOAD PUSH2 0xB01 PUSH1 0x40 DUP6 ADD DUP3 PUSH2 0xA5A JUMP JUMPDEST POP PUSH1 0x60 DUP3 ADD MLOAD PUSH2 0xB14 PUSH1 0x60 DUP6 ADD DUP3 PUSH2 0xA5A JUMP JUMPDEST POP PUSH1 0x80 DUP3 ADD MLOAD PUSH2 0xB27 PUSH1 0x80 DUP6 ADD DUP3 PUSH2 0xA75 JUMP JUMPDEST POP PUSH1 0xA0 DUP3 ADD MLOAD PUSH2 0xB3A PUSH1 0xA0 DUP6 ADD DUP3 PUSH2 0xAB6 JUMP JUMPDEST POP POP POP POP JUMP JUMPDEST PUSH1 0x0 PUSH1 0xC0 DUP3 ADD SWAP1 POP PUSH2 0xB55 PUSH1 0x0 DUP4 ADD DUP5 PUSH2 0xAC5 JUMP JUMPDEST SWAP3 SWAP2 POP POP JUMP JUMPDEST PUSH2 0xB64 DUP2 PUSH2 0xAA4 JUMP JUMPDEST DUP3 MSTORE POP POP JUMP JUMPDEST PUSH1 0x0 PUSH1 0x20 DUP3 ADD SWAP1 POP PUSH2 0xB7F PUSH1 0x0 DUP4 ADD DUP5 PUSH2 0xB5B JUMP JUMPDEST SWAP3 SWAP2 POP POP JUMP JUMPDEST PUSH1 0x0 DUP1 PUSH1 0x0 PUSH1 0x60 DUP5 DUP7 SUB SLT ISZERO PUSH2 0xB9E JUMPI PUSH2 0xB9D PUSH2 0x9F2 JUMP JUMPDEST JUMPDEST PUSH1 0x0 PUSH2 0xBAC DUP7 DUP3 DUP8 ADD PUSH2 0xA18 JUMP JUMPDEST SWAP4 POP POP PUSH1 0x20 PUSH2 0xBBD DUP7 DUP3 DUP8 ADD PUSH2 0xA18 JUMP JUMPDEST SWAP3 POP POP PUSH1 0x40 PUSH2 0xBCE DUP7 DUP3 DUP8 ADD PUSH2 0xA18 JUMP JUMPDEST SWAP2 POP POP SWAP3 POP SWAP3 POP SWAP3 JUMP JUMPDEST PUSH2 0xBE1 DUP2 PUSH2 0x9F7 JUMP JUMPDEST DUP3 MSTORE POP POP JUMP JUMPDEST PUSH1 0x0 PUSH1 0x20 DUP3 ADD SWAP1 POP PUSH2 0xBFC PUSH1 0x0 DUP4 ADD DUP5 PUSH2 0xBD8 JUMP JUMPDEST SWAP3 SWAP2 POP POP JUMP JUMPDEST PUSH1 0x0 DUP2 SWAP1 POP SWAP2 SWAP1 POP JUMP JUMPDEST PUSH1 0x0 PUSH2 0xC27 PUSH2 0xC22 PUSH2 0xC1D DUP5 PUSH2 0xA84 JUMP JUMPDEST PUSH2 0xC02 JUMP JUMPDEST PUSH2 0xA84 JUMP JUMPDEST SWAP1 POP SWAP2 SWAP1 POP JUMP JUMPDEST PUSH1 0x0 PUSH2 0xC39 DUP3 PUSH2 0xC0C JUMP JUMPDEST SWAP1 POP SWAP2 SWAP1 POP JUMP JUMPDEST PUSH1 0x0 PUSH2 0xC4B DUP3 PUSH2 0xC2E JUMP JUMPDEST SWAP1 POP SWAP2 SWAP1 POP JUMP JUMPDEST PUSH2 0xC5B DUP2 PUSH2 0xC40 JUMP JUMPDEST DUP3 MSTORE POP POP JUMP JUMPDEST PUSH1 0x0 PUSH1 0x20 DUP3 ADD SWAP1 POP PUSH2 0xC76 PUSH1 0x0 DUP4 ADD DUP5 PUSH2 0xC52 JUMP JUMPDEST SWAP3 SWAP2 POP POP JUMP JUMPDEST PUSH2 0xC85 DUP2 PUSH2 0xA69 JUMP JUMPDEST DUP3 MSTORE POP POP JUMP JUMPDEST PUSH1 0x0 PUSH1 0xC0 DUP3 ADD SWAP1 POP PUSH2 0xCA0 PUSH1 0x0 DUP4 ADD DUP10 PUSH2 0xBD8 JUMP JUMPDEST PUSH2 0xCAD PUSH1 0x20 DUP4 ADD DUP9 PUSH2 0xBD8 JUMP JUMPDEST PUSH2 0xCBA PUSH1 0x40 DUP4 ADD DUP8 PUSH2 0xBD8 JUMP JUMPDEST PUSH2 0xCC7 PUSH1 0x60 DUP4 ADD DUP7 PUSH2 0xBD8 JUMP JUMPDEST PUSH2 0xCD4 PUSH1 0x80 DUP4 ADD DUP6 PUSH2 0xC7C JUMP JUMPDEST PUSH2 0xCE1 PUSH1 0xA0 DUP4 ADD DUP5 PUSH2 0xB5B JUMP JUMPDEST SWAP8 SWAP7 POP POP POP POP POP POP POP JUMP JUMPDEST PUSH2 0xCF5 DUP2 PUSH2 0xAA4 JUMP JUMPDEST DUP2 EQ PUSH2 0xD00 JUMPI PUSH1 0x0 DUP1 REVERT JUMPDEST POP JUMP JUMPDEST PUSH1 0x0 DUP2 CALLDATALOAD SWAP1 POP PUSH2 0xD12 DUP2 PUSH2 0xCEC JUMP JUMPDEST SWAP3 SWAP2 POP POP JUMP JUMPDEST PUSH1 0x0 PUSH1 0x20 DUP3 DUP5 SUB SLT ISZERO PUSH2 0xD2E JUMPI PUSH2 0xD2D PUSH2 0x9F2 JUMP JUMPDEST JUMPDEST PUSH1 0x0 PUSH2 0xD3C DUP5 DUP3 DUP6 ADD PUSH2 0xD03 JUMP JUMPDEST SWAP2 POP POP SWAP3 SWAP2 POP POP JUMP JUMPDEST PUSH1 0x0 DUP3 DUP3 MSTORE PUSH1 0x20 DUP3 ADD SWAP1 POP SWAP3 SWAP2 POP POP JUMP JUMPDEST PUSH32 0x4F6E6C792074686520626F72726F7765722063616E20706179206261636B2074 PUSH1 0x0 DUP3 ADD MSTORE PUSH32 0x6865206C6F616E00000000000000000000000000000000000000000000000000 PUSH1 0x20 DUP3 ADD MSTORE POP JUMP JUMPDEST PUSH1 0x0 PUSH2 0xDB2 PUSH1 0x27 DUP4 PUSH2 0xD45 JUMP JUMPDEST SWAP2 POP PUSH2 0xDBD DUP3 PUSH2 0xD56 JUMP JUMPDEST PUSH1 0x40 DUP3 ADD SWAP1 POP SWAP2 SWAP1 POP JUMP JUMPDEST PUSH1 0x0 PUSH1 0x20 DUP3 ADD SWAP1 POP DUP2 DUP2 SUB PUSH1 0x0 DUP4 ADD MSTORE PUSH2 0xDE1 DUP2 PUSH2 0xDA5 JUMP JUMPDEST SWAP1 POP SWAP2 SWAP1 POP JUMP JUMPDEST PUSH32 0x4C6F616E2068617320616C7265616479206265656E2070616964206261636B00 PUSH1 0x0 DUP3 ADD MSTORE POP JUMP JUMPDEST PUSH1 0x0 PUSH2 0xE1E PUSH1 0x1F DUP4 PUSH2 0xD45 JUMP JUMPDEST SWAP2 POP PUSH2 0xE29 DUP3 PUSH2 0xDE8 JUMP JUMPDEST PUSH1 0x20 DUP3 ADD SWAP1 POP SWAP2 SWAP1 POP JUMP JUMPDEST PUSH1 0x0 PUSH1 0x20 DUP3 ADD SWAP1 POP DUP2 DUP2 SUB PUSH1 0x0 DUP4 ADD MSTORE PUSH2 0xE4D DUP2 PUSH2 0xE11 JUMP JUMPDEST SWAP1 POP SWAP2 SWAP1 POP JUMP JUMPDEST PUSH32 0x4E487B7100000000000000000000000000000000000000000000000000000000 PUSH1 0x0 MSTORE PUSH1 0x11 PUSH1 0x4 MSTORE PUSH1 0x24 PUSH1 0x0 REVERT JUMPDEST PUSH1 0x0 PUSH2 0xE8E DUP3 PUSH2 0x9F7 JUMP JUMPDEST SWAP2 POP PUSH2 0xE99 DUP4 PUSH2 0x9F7 JUMP JUMPDEST SWAP3 POP DUP3 DUP3 MUL PUSH2 0xEA7 DUP2 PUSH2 0x9F7 JUMP JUMPDEST SWAP2 POP DUP3 DUP3 DIV DUP5 EQ DUP4 ISZERO OR PUSH2 0xEBE JUMPI PUSH2 0xEBD PUSH2 0xE54 JUMP JUMPDEST JUMPDEST POP SWAP3 SWAP2 POP POP JUMP JUMPDEST PUSH32 0x4E487B7100000000000000000000000000000000000000000000000000000000 PUSH1 0x0 MSTORE PUSH1 0x12 PUSH1 0x4 MSTORE PUSH1 0x24 PUSH1 0x0 REVERT JUMPDEST PUSH1 0x0 PUSH2 0xEFF DUP3 PUSH2 0x9F7 JUMP JUMPDEST SWAP2 POP PUSH2 0xF0A DUP4 PUSH2 0x9F7 JUMP JUMPDEST SWAP3 POP DUP3 PUSH2 0xF1A JUMPI PUSH2 0xF19 PUSH2 0xEC5 JUMP JUMPDEST JUMPDEST DUP3 DUP3 DIV SWAP1 POP SWAP3 SWAP2 POP POP JUMP JUMPDEST PUSH1 0x0 PUSH2 0xF30 DUP3 PUSH2 0x9F7 JUMP JUMPDEST SWAP2 POP PUSH2 0xF3B DUP4 PUSH2 0x9F7 JUMP JUMPDEST SWAP3 POP DUP3 DUP3 ADD SWAP1 POP DUP1 DUP3 GT ISZERO PUSH2 0xF53 JUMPI PUSH2 0xF52 PUSH2 0xE54 JUMP JUMPDEST JUMPDEST SWAP3 SWAP2 POP POP JUMP JUMPDEST PUSH32 0x416D6F756E742073656E74206D75737420626520657175616C20746F20746865 PUSH1 0x0 DUP3 ADD MSTORE PUSH32 0x20616D6F756E7420626F72726F77656420706C75732074686520696E74657265 PUSH1 0x20 DUP3 ADD MSTORE PUSH32 0x7374000000000000000000000000000000000000000000000000000000000000 PUSH1 0x40 DUP3 ADD MSTORE POP JUMP JUMPDEST PUSH1 0x0 PUSH2 0xFDB PUSH1 0x42 DUP4 PUSH2 0xD45 JUMP JUMPDEST SWAP2 POP PUSH2 0xFE6 DUP3 PUSH2 0xF59 JUMP JUMPDEST PUSH1 0x60 DUP3 ADD SWAP1 POP SWAP2 SWAP1 POP JUMP JUMPDEST PUSH1 0x0 PUSH1 0x20 DUP3 ADD SWAP1 POP DUP2 DUP2 SUB PUSH1 0x0 DUP4 ADD MSTORE PUSH2 0x100A DUP2 PUSH2 0xFCE JUMP JUMPDEST SWAP1 POP SWAP2 SWAP1 POP JUMP JUMPDEST PUSH32 0x3300000000000000000000000000000000000000000000000000000000000000 PUSH1 0x0 DUP3 ADD MSTORE POP JUMP JUMPDEST PUSH1 0x0 PUSH2 0x1047 PUSH1 0x1 DUP4 PUSH2 0xD45 JUMP JUMPDEST SWAP2 POP PUSH2 0x1052 DUP3 PUSH2 0x1011 JUMP JUMPDEST PUSH1 0x20 DUP3 ADD SWAP1 POP SWAP2 SWAP1 POP JUMP JUMPDEST PUSH1 0x0 PUSH1 0x40 DUP3 ADD SWAP1 POP PUSH2 0x1072 PUSH1 0x0 DUP4 ADD DUP5 PUSH2 0xB5B JUMP JUMPDEST DUP2 DUP2 SUB PUSH1 0x20 DUP4 ADD MSTORE PUSH2 0x1083 DUP2 PUSH2 0x103A JUMP JUMPDEST SWAP1 POP SWAP3 SWAP2 POP POP JUMP JUMPDEST PUSH32 0x416D6F756E74206D7573742062652067726561746572207468616E2030000000 PUSH1 0x0 DUP3 ADD MSTORE POP JUMP JUMPDEST PUSH1 0x0 PUSH2 0x10C1 PUSH1 0x1D DUP4 PUSH2 0xD45 JUMP JUMPDEST SWAP2 POP PUSH2 0x10CC DUP3 PUSH2 0x108B JUMP JUMPDEST PUSH1 0x20 DUP3 ADD SWAP1 POP SWAP2 SWAP1 POP JUMP JUMPDEST PUSH1 0x0 PUSH1 0x20 DUP3 ADD SWAP1 POP DUP2 DUP2 SUB PUSH1 0x0 DUP4 ADD MSTORE PUSH2 0x10F0 DUP2 PUSH2 0x10B4 JUMP JUMPDEST SWAP1 POP SWAP2 SWAP1 POP JUMP JUMPDEST PUSH32 0x496E7465726573742072617465206D7573742062652067726561746572207468 PUSH1 0x0 DUP3 ADD MSTORE PUSH32 0x616E203000000000000000000000000000000000000000000000000000000000 PUSH1 0x20 DUP3 ADD MSTORE POP JUMP JUMPDEST PUSH1 0x0 PUSH2 0x1153 PUSH1 0x24 DUP4 PUSH2 0xD45 JUMP JUMPDEST SWAP2 POP PUSH2 0x115E DUP3 PUSH2 0x10F7 JUMP JUMPDEST PUSH1 0x40 DUP3 ADD SWAP1 POP SWAP2 SWAP1 POP JUMP JUMPDEST PUSH1 0x0 PUSH1 0x20 DUP3 ADD SWAP1 POP DUP2 DUP2 SUB PUSH1 0x0 DUP4 ADD MSTORE PUSH2 0x1182 DUP2 PUSH2 0x1146 JUMP JUMPDEST SWAP1 POP SWAP2 SWAP1 POP JUMP JUMPDEST PUSH32 0x4475726174696F6E206D7573742062652067726561746572207468616E203000 PUSH1 0x0 DUP3 ADD MSTORE POP JUMP JUMPDEST PUSH1 0x0 PUSH2 0x11BF PUSH1 0x1F DUP4 PUSH2 0xD45 JUMP JUMPDEST SWAP2 POP PUSH2 0x11CA DUP3 PUSH2 0x1189 JUMP JUMPDEST PUSH1 0x20 DUP3 ADD SWAP1 POP SWAP2 SWAP1 POP JUMP JUMPDEST PUSH1 0x0 PUSH1 0x20 DUP3 ADD SWAP1 POP DUP2 DUP2 SUB PUSH1 0x0 DUP4 ADD MSTORE PUSH2 0x11EE DUP2 PUSH2 0x11B2 JUMP JUMPDEST SWAP1 POP SWAP2 SWAP1 POP JUMP JUMPDEST PUSH1 0x0 PUSH2 0x1200 DUP3 PUSH2 0x9F7 JUMP JUMPDEST SWAP2 POP PUSH32 0xFFFFFFFFFFFFFFFFFFFFFFFFFFFFFFFFFFFFFFFFFFFFFFFFFFFFFFFFFFFFFFFF DUP3 SUB PUSH2 0x1232 JUMPI PUSH2 0x1231 PUSH2 0xE54 JUMP JUMPDEST JUMPDEST PUSH1 0x1 DUP3 ADD SWAP1 POP SWAP2 SWAP1 POP JUMP JUMPDEST PUSH1 0x0 PUSH1 0xC0 DUP3 ADD SWAP1 POP PUSH2 0x1252 PUSH1 0x0 DUP4 ADD DUP10 PUSH2 0xBD8 JUMP JUMPDEST PUSH2 0x125F PUSH1 0x20 DUP4 ADD DUP9 PUSH2 0xBD8 JUMP JUMPDEST PUSH2 0x126C PUSH1 0x40 DUP4 ADD DUP8 PUSH2 0xBD8 JUMP JUMPDEST PUSH2 0x1279 PUSH1 0x60 DUP4 ADD DUP7 PUSH2 0xBD8 JUMP JUMPDEST PUSH2 0x1286 PUSH1 0x80 DUP4 ADD DUP6 PUSH2 0xBD8 JUMP JUMPDEST PUSH2 0x1293 PUSH1 0xA0 DUP4 ADD DUP5 PUSH2 0xB5B JUMP JUMPDEST SWAP8 SWAP7 POP POP POP POP POP POP POP JUMP JUMPDEST PUSH32 0x4F776E61626C653A206E6577206F776E657220697320746865207A65726F2061 PUSH1 0x0 DUP3 ADD MSTORE PUSH32 0x6464726573730000000000000000000000000000000000000000000000000000 PUSH1 0x20 DUP3 ADD MSTORE POP JUMP JUMPDEST PUSH1 0x0 PUSH2 0x12FA PUSH1 0x26 DUP4 PUSH2 0xD45 JUMP JUMPDEST SWAP2 POP PUSH2 0x1305 DUP3 PUSH2 0x129E JUMP JUMPDEST PUSH1 0x40 DUP3 ADD SWAP1 POP SWAP2 SWAP1 POP JUMP JUMPDEST PUSH1 0x0 PUSH1 0x20 DUP3 ADD SWAP1 POP DUP2 DUP2 SUB PUSH1 0x0 DUP4 ADD MSTORE PUSH2 0x1329 DUP2 PUSH2 0x12ED JUMP JUMPDEST SWAP1 POP SWAP2 SWAP1 POP JUMP JUMPDEST PUSH32 0x4F776E61626C653A2063616C6C6572206973206E6F7420746865206F776E6572 PUSH1 0x0 DUP3 ADD MSTORE POP JUMP JUMPDEST PUSH1 0x0 PUSH2 0x1366 PUSH1 0x20 DUP4 PUSH2 0xD45 JUMP JUMPDEST SWAP2 POP PUSH2 0x1371 DUP3 PUSH2 0x1330 JUMP JUMPDEST PUSH1 0x20 DUP3 ADD SWAP1 POP SWAP2 SWAP1 POP JUMP JUMPDEST PUSH1 0x0 PUSH1 0x20 DUP3 ADD SWAP1 POP DUP2 DUP2 SUB PUSH1 0x0 DUP4 ADD MSTORE PUSH2 0x1395 DUP2 PUSH2 0x1359 JUMP JUMPDEST SWAP1 POP SWAP2 SWAP1 POP JUMP INVALID LOG2 PUSH5 0x6970667358 0x22 SLT KECCAK256 SWAP15 PUSH9 0x2738AE52E03893DD55 0x27 KECCAK256 0xD1 CREATE 0x28 0xD4 SUB PREVRANDAO CALLDATALOAD MSTORE8 0xAD SLT 0xB6 PUSH9 0x1427178E11D2F16473 PUSH16 0x6C634300081300330000000000000000 "},"methodIdentifiers":{"createLoan(uint256,uint256,uint256)":"904b513b","getLoan(uint256)":"504006ca","loans(uint256)":"e1ec3c68","nftContract()":"d56d229d","owner()":"8da5cb5b","payBackLoan(uint256)":"6faa8b3f","renounceOwnership()":"715018a6","totalLoans()":"cc952b57","transferOwnership(address)":"f2fde38b"}}}}}