{
	"contracts/Mapping.sol": {
		"Mapping": {
			"abi": [
				{
					"inputs": [
						{
							"internalType": "address",
							"name": "",
							"type": "address"
						}
					],
					"name": "addrToPass",
					"outputs": [
						{
							"internalType": "bytes32",
							"name": "",
							"type": "bytes32"
						}
					],
					"stateMutability": "view",
					"type": "function"
				},
				{
					"inputs": [
						{
							"internalType": "string",
							"name": "_pass",
							"type": "string"
						}
					],
					"name": "getAddressByPass",
					"outputs": [
						{
							"internalType": "address",
							"name": "_address",
							"type": "address"
						}
					],
					"stateMutability": "view",
					"type": "function"
				},
				{
					"inputs": [
						{
							"internalType": "address",
							"name": "_address",
							"type": "address"
						}
					],
					"name": "getPassByAddress",
					"outputs": [
						{
							"internalType": "bytes32",
							"name": "_pass",
							"type": "bytes32"
						}
					],
					"stateMutability": "view",
					"type": "function"
				},
				{
					"inputs": [
						{
							"internalType": "bytes32",
							"name": "",
							"type": "bytes32"
						}
					],
					"name": "passToAddr",
					"outputs": [
						{
							"internalType": "address",
							"name": "",
							"type": "address"
						}
					],
					"stateMutability": "view",
					"type": "function"
				},
				{
					"inputs": [
						{
							"internalType": "string",
							"name": "_pass",
							"type": "string"
						}
					],
					"name": "saveHashPair",
					"outputs": [],
					"stateMutability": "nonpayable",
					"type": "function"
				}
			],
			"devdoc": {
				"kind": "dev",
				"methods": {},
				"version": 1
			},
			"evm": {
				"assembly": "    /* \"contracts/Mapping.sol\":58:708  contract Mapping {... */\n  mstore(0x40, 0x80)\n  callvalue\n  dup1\n  iszero\n  tag_1\n  jumpi\n  0x00\n  dup1\n  revert\ntag_1:\n  pop\n  dataSize(sub_0)\n  dup1\n  dataOffset(sub_0)\n  0x00\n  codecopy\n  0x00\n  return\nstop\n\nsub_0: assembly {\n        /* \"contracts/Mapping.sol\":58:708  contract Mapping {... */\n      mstore(0x40, 0x80)\n      callvalue\n      dup1\n      iszero\n      tag_1\n      jumpi\n      0x00\n      dup1\n      revert\n    tag_1:\n      pop\n      jumpi(tag_2, lt(calldatasize, 0x04))\n      shr(0xe0, calldataload(0x00))\n      dup1\n      0x05888999\n      eq\n      tag_3\n      jumpi\n      dup1\n      0x08784db2\n      eq\n      tag_4\n      jumpi\n      dup1\n      0x6069910e\n      eq\n      tag_5\n      jumpi\n      dup1\n      0xc61084ba\n      eq\n      tag_6\n      jumpi\n      dup1\n      0xc90791a6\n      eq\n      tag_7\n      jumpi\n    tag_2:\n      0x00\n      dup1\n      revert\n        /* \"contracts/Mapping.sol\":81:126  mapping(bytes32 => address) public passToAddr */\n    tag_3:\n      tag_8\n      0x04\n      dup1\n      calldatasize\n      sub\n      dup2\n      add\n      swap1\n      tag_9\n      swap2\n      swap1\n      tag_10\n      jump\t// in\n    tag_9:\n      tag_11\n      jump\t// in\n    tag_8:\n      mload(0x40)\n      tag_12\n      swap2\n      swap1\n      tag_13\n      jump\t// in\n    tag_12:\n      mload(0x40)\n      dup1\n      swap2\n      sub\n      swap1\n      return\n        /* \"contracts/Mapping.sol\":567:706  function getPassByAddress(... */\n    tag_4:\n      tag_14\n      0x04\n      dup1\n      calldatasize\n      sub\n      dup2\n      add\n      swap1\n      tag_15\n      swap2\n      swap1\n      tag_16\n      jump\t// in\n    tag_15:\n      tag_17\n      jump\t// in\n    tag_14:\n      mload(0x40)\n      tag_18\n      swap2\n      swap1\n      tag_19\n      jump\t// in\n    tag_18:\n      mload(0x40)\n      dup1\n      swap2\n      sub\n      swap1\n      return\n        /* \"contracts/Mapping.sol\":132:177  mapping(address => bytes32) public addrToPass */\n    tag_5:\n      tag_20\n      0x04\n      dup1\n      calldatasize\n      sub\n      dup2\n      add\n      swap1\n      tag_21\n      swap2\n      swap1\n      tag_16\n      jump\t// in\n    tag_21:\n      tag_22\n      jump\t// in\n    tag_20:\n      mload(0x40)\n      tag_23\n      swap2\n      swap1\n      tag_19\n      jump\t// in\n    tag_23:\n      mload(0x40)\n      dup1\n      swap2\n      sub\n      swap1\n      return\n        /* \"contracts/Mapping.sol\":184:381  function saveHashPair(string calldata _pass) public {... */\n    tag_6:\n      tag_24\n      0x04\n      dup1\n      calldatasize\n      sub\n      dup2\n      add\n      swap1\n      tag_25\n      swap2\n      swap1\n      tag_26\n      jump\t// in\n    tag_25:\n      tag_27\n      jump\t// in\n    tag_24:\n      stop\n        /* \"contracts/Mapping.sol\":387:561  function getAddressByPass(... */\n    tag_7:\n      tag_28\n      0x04\n      dup1\n      calldatasize\n      sub\n      dup2\n      add\n      swap1\n      tag_29\n      swap2\n      swap1\n      tag_30\n      jump\t// in\n    tag_29:\n      tag_31\n      jump\t// in\n    tag_28:\n      mload(0x40)\n      tag_32\n      swap2\n      swap1\n      tag_13\n      jump\t// in\n    tag_32:\n      mload(0x40)\n      dup1\n      swap2\n      sub\n      swap1\n      return\n        /* \"contracts/Mapping.sol\":81:126  mapping(bytes32 => address) public passToAddr */\n    tag_11:\n      mstore(0x20, 0x00)\n      dup1\n      0x00\n      mstore\n      keccak256(0x00, 0x40)\n      0x00\n      swap2\n      pop\n      sload\n      swap1\n      0x0100\n      exp\n      swap1\n      div\n      0xffffffffffffffffffffffffffffffffffffffff\n      and\n      dup2\n      jump\t// out\n        /* \"contracts/Mapping.sol\":567:706  function getPassByAddress(... */\n    tag_17:\n        /* \"contracts/Mapping.sol\":646:659  bytes32 _pass */\n      0x00\n        /* \"contracts/Mapping.sol\":679:689  addrToPass */\n      0x01\n        /* \"contracts/Mapping.sol\":679:699  addrToPass[_address] */\n      0x00\n        /* \"contracts/Mapping.sol\":690:698  _address */\n      dup4\n        /* \"contracts/Mapping.sol\":679:699  addrToPass[_address] */\n      0xffffffffffffffffffffffffffffffffffffffff\n      and\n      0xffffffffffffffffffffffffffffffffffffffff\n      and\n      dup2\n      mstore\n      0x20\n      add\n      swap1\n      dup2\n      mstore\n      0x20\n      add\n      0x00\n      keccak256\n      sload\n        /* \"contracts/Mapping.sol\":671:699  _pass = addrToPass[_address] */\n      swap1\n      pop\n        /* \"contracts/Mapping.sol\":567:706  function getPassByAddress(... */\n      swap2\n      swap1\n      pop\n      jump\t// out\n        /* \"contracts/Mapping.sol\":132:177  mapping(address => bytes32) public addrToPass */\n    tag_22:\n      mstore(0x20, 0x01)\n      dup1\n      0x00\n      mstore\n      keccak256(0x00, 0x40)\n      0x00\n      swap2\n      pop\n      swap1\n      pop\n      sload\n      dup2\n      jump\t// out\n        /* \"contracts/Mapping.sol\":184:381  function saveHashPair(string calldata _pass) public {... */\n    tag_27:\n        /* \"contracts/Mapping.sol\":295:305  msg.sender */\n      caller\n        /* \"contracts/Mapping.sol\":246:256  passToAddr */\n      0x00\n        /* \"contracts/Mapping.sol\":246:292  passToAddr[keccak256(abi.encodePacked(_pass))] */\n      dup1\n        /* \"contracts/Mapping.sol\":284:289  _pass */\n      dup5\n      dup5\n        /* \"contracts/Mapping.sol\":267:290  abi.encodePacked(_pass) */\n      add(0x20, mload(0x40))\n      tag_35\n      swap3\n      swap2\n      swap1\n      tag_36\n      jump\t// in\n    tag_35:\n      mload(0x40)\n      0x20\n      dup2\n      dup4\n      sub\n      sub\n      dup2\n      mstore\n      swap1\n      0x40\n      mstore\n        /* \"contracts/Mapping.sol\":257:291  keccak256(abi.encodePacked(_pass)) */\n      dup1\n      mload\n      swap1\n      0x20\n      add\n      keccak256\n        /* \"contracts/Mapping.sol\":246:292  passToAddr[keccak256(abi.encodePacked(_pass))] */\n      dup2\n      mstore\n      0x20\n      add\n      swap1\n      dup2\n      mstore\n      0x20\n      add\n      0x00\n      keccak256\n      0x00\n        /* \"contracts/Mapping.sol\":246:305  passToAddr[keccak256(abi.encodePacked(_pass))] = msg.sender */\n      0x0100\n      exp\n      dup2\n      sload\n      dup2\n      0xffffffffffffffffffffffffffffffffffffffff\n      mul\n      not\n      and\n      swap1\n      dup4\n      0xffffffffffffffffffffffffffffffffffffffff\n      and\n      mul\n      or\n      swap1\n      sstore\n      pop\n        /* \"contracts/Mapping.sol\":367:372  _pass */\n      dup2\n      dup2\n        /* \"contracts/Mapping.sol\":350:373  abi.encodePacked(_pass) */\n      add(0x20, mload(0x40))\n      tag_37\n      swap3\n      swap2\n      swap1\n      tag_36\n      jump\t// in\n    tag_37:\n      mload(0x40)\n      0x20\n      dup2\n      dup4\n      sub\n      sub\n      dup2\n      mstore\n      swap1\n      0x40\n      mstore\n        /* \"contracts/Mapping.sol\":340:374  keccak256(abi.encodePacked(_pass)) */\n      dup1\n      mload\n      swap1\n      0x20\n      add\n      keccak256\n        /* \"contracts/Mapping.sol\":315:325  addrToPass */\n      0x01\n        /* \"contracts/Mapping.sol\":315:337  addrToPass[msg.sender] */\n      0x00\n        /* \"contracts/Mapping.sol\":326:336  msg.sender */\n      caller\n        /* \"contracts/Mapping.sol\":315:337  addrToPass[msg.sender] */\n      0xffffffffffffffffffffffffffffffffffffffff\n      and\n      0xffffffffffffffffffffffffffffffffffffffff\n      and\n      dup2\n      mstore\n      0x20\n      add\n      swap1\n      dup2\n      mstore\n      0x20\n      add\n      0x00\n      keccak256\n        /* \"contracts/Mapping.sol\":315:374  addrToPass[msg.sender] = keccak256(abi.encodePacked(_pass)) */\n      dup2\n      swap1\n      sstore\n      pop\n        /* \"contracts/Mapping.sol\":184:381  function saveHashPair(string calldata _pass) public {... */\n      pop\n      pop\n      jump\t// out\n        /* \"contracts/Mapping.sol\":387:561  function getAddressByPass(... */\n    tag_31:\n        /* \"contracts/Mapping.sol\":469:485  address _address */\n      0x00\n        /* \"contracts/Mapping.sol\":508:518  passToAddr */\n      dup1\n        /* \"contracts/Mapping.sol\":508:554  passToAddr[keccak256(abi.encodePacked(_pass))] */\n      0x00\n        /* \"contracts/Mapping.sol\":546:551  _pass */\n      dup4\n        /* \"contracts/Mapping.sol\":529:552  abi.encodePacked(_pass) */\n      add(0x20, mload(0x40))\n      tag_39\n      swap2\n      swap1\n      tag_40\n      jump\t// in\n    tag_39:\n      mload(0x40)\n      0x20\n      dup2\n      dup4\n      sub\n      sub\n      dup2\n      mstore\n      swap1\n      0x40\n      mstore\n        /* \"contracts/Mapping.sol\":519:553  keccak256(abi.encodePacked(_pass)) */\n      dup1\n      mload\n      swap1\n      0x20\n      add\n      keccak256\n        /* \"contracts/Mapping.sol\":508:554  passToAddr[keccak256(abi.encodePacked(_pass))] */\n      dup2\n      mstore\n      0x20\n      add\n      swap1\n      dup2\n      mstore\n      0x20\n      add\n      0x00\n      keccak256\n      0x00\n      swap1\n      sload\n      swap1\n      0x0100\n      exp\n      swap1\n      div\n      0xffffffffffffffffffffffffffffffffffffffff\n      and\n        /* \"contracts/Mapping.sol\":497:554  _address = passToAddr[keccak256(abi.encodePacked(_pass))] */\n      swap1\n      pop\n        /* \"contracts/Mapping.sol\":387:561  function getAddressByPass(... */\n      swap2\n      swap1\n      pop\n      jump\t// out\n        /* \"#utility.yul\":7:82   */\n    tag_41:\n        /* \"#utility.yul\":40:46   */\n      0x00\n        /* \"#utility.yul\":73:75   */\n      0x40\n        /* \"#utility.yul\":67:76   */\n      mload\n        /* \"#utility.yul\":57:76   */\n      swap1\n      pop\n        /* \"#utility.yul\":7:82   */\n      swap1\n      jump\t// out\n        /* \"#utility.yul\":88:205   */\n    tag_42:\n        /* \"#utility.yul\":197:198   */\n      0x00\n        /* \"#utility.yul\":194:195   */\n      dup1\n        /* \"#utility.yul\":187:199   */\n      revert\n        /* \"#utility.yul\":211:328   */\n    tag_43:\n        /* \"#utility.yul\":320:321   */\n      0x00\n        /* \"#utility.yul\":317:318   */\n      dup1\n        /* \"#utility.yul\":310:322   */\n      revert\n        /* \"#utility.yul\":334:411   */\n    tag_44:\n        /* \"#utility.yul\":371:378   */\n      0x00\n        /* \"#utility.yul\":400:405   */\n      dup2\n        /* \"#utility.yul\":389:405   */\n      swap1\n      pop\n        /* \"#utility.yul\":334:411   */\n      swap2\n      swap1\n      pop\n      jump\t// out\n        /* \"#utility.yul\":417:539   */\n    tag_45:\n        /* \"#utility.yul\":490:514   */\n      tag_77\n        /* \"#utility.yul\":508:513   */\n      dup2\n        /* \"#utility.yul\":490:514   */\n      tag_44\n      jump\t// in\n    tag_77:\n        /* \"#utility.yul\":483:488   */\n      dup2\n        /* \"#utility.yul\":480:515   */\n      eq\n        /* \"#utility.yul\":470:533   */\n      tag_78\n      jumpi\n        /* \"#utility.yul\":529:530   */\n      0x00\n        /* \"#utility.yul\":526:527   */\n      dup1\n        /* \"#utility.yul\":519:531   */\n      revert\n        /* \"#utility.yul\":470:533   */\n    tag_78:\n        /* \"#utility.yul\":417:539   */\n      pop\n      jump\t// out\n        /* \"#utility.yul\":545:684   */\n    tag_46:\n        /* \"#utility.yul\":591:596   */\n      0x00\n        /* \"#utility.yul\":629:635   */\n      dup2\n        /* \"#utility.yul\":616:636   */\n      calldataload\n        /* \"#utility.yul\":607:636   */\n      swap1\n      pop\n        /* \"#utility.yul\":645:678   */\n      tag_80\n        /* \"#utility.yul\":672:677   */\n      dup2\n        /* \"#utility.yul\":645:678   */\n      tag_45\n      jump\t// in\n    tag_80:\n        /* \"#utility.yul\":545:684   */\n      swap3\n      swap2\n      pop\n      pop\n      jump\t// out\n        /* \"#utility.yul\":690:1019   */\n    tag_10:\n        /* \"#utility.yul\":749:755   */\n      0x00\n        /* \"#utility.yul\":798:800   */\n      0x20\n        /* \"#utility.yul\":786:795   */\n      dup3\n        /* \"#utility.yul\":777:784   */\n      dup5\n        /* \"#utility.yul\":773:796   */\n      sub\n        /* \"#utility.yul\":769:801   */\n      slt\n        /* \"#utility.yul\":766:885   */\n      iszero\n      tag_82\n      jumpi\n        /* \"#utility.yul\":804:883   */\n      tag_83\n      tag_42\n      jump\t// in\n    tag_83:\n        /* \"#utility.yul\":766:885   */\n    tag_82:\n        /* \"#utility.yul\":924:925   */\n      0x00\n        /* \"#utility.yul\":949:1002   */\n      tag_84\n        /* \"#utility.yul\":994:1001   */\n      dup5\n        /* \"#utility.yul\":985:991   */\n      dup3\n        /* \"#utility.yul\":974:983   */\n      dup6\n        /* \"#utility.yul\":970:992   */\n      add\n        /* \"#utility.yul\":949:1002   */\n      tag_46\n      jump\t// in\n    tag_84:\n        /* \"#utility.yul\":939:1002   */\n      swap2\n      pop\n        /* \"#utility.yul\":895:1012   */\n      pop\n        /* \"#utility.yul\":690:1019   */\n      swap3\n      swap2\n      pop\n      pop\n      jump\t// out\n        /* \"#utility.yul\":1025:1151   */\n    tag_47:\n        /* \"#utility.yul\":1062:1069   */\n      0x00\n        /* \"#utility.yul\":1102:1144   */\n      0xffffffffffffffffffffffffffffffffffffffff\n        /* \"#utility.yul\":1095:1100   */\n      dup3\n        /* \"#utility.yul\":1091:1145   */\n      and\n        /* \"#utility.yul\":1080:1145   */\n      swap1\n      pop\n        /* \"#utility.yul\":1025:1151   */\n      swap2\n      swap1\n      pop\n      jump\t// out\n        /* \"#utility.yul\":1157:1253   */\n    tag_48:\n        /* \"#utility.yul\":1194:1201   */\n      0x00\n        /* \"#utility.yul\":1223:1247   */\n      tag_87\n        /* \"#utility.yul\":1241:1246   */\n      dup3\n        /* \"#utility.yul\":1223:1247   */\n      tag_47\n      jump\t// in\n    tag_87:\n        /* \"#utility.yul\":1212:1247   */\n      swap1\n      pop\n        /* \"#utility.yul\":1157:1253   */\n      swap2\n      swap1\n      pop\n      jump\t// out\n        /* \"#utility.yul\":1259:1377   */\n    tag_49:\n        /* \"#utility.yul\":1346:1370   */\n      tag_89\n        /* \"#utility.yul\":1364:1369   */\n      dup2\n        /* \"#utility.yul\":1346:1370   */\n      tag_48\n      jump\t// in\n    tag_89:\n        /* \"#utility.yul\":1341:1344   */\n      dup3\n        /* \"#utility.yul\":1334:1371   */\n      mstore\n        /* \"#utility.yul\":1259:1377   */\n      pop\n      pop\n      jump\t// out\n        /* \"#utility.yul\":1383:1605   */\n    tag_13:\n        /* \"#utility.yul\":1476:1480   */\n      0x00\n        /* \"#utility.yul\":1514:1516   */\n      0x20\n        /* \"#utility.yul\":1503:1512   */\n      dup3\n        /* \"#utility.yul\":1499:1517   */\n      add\n        /* \"#utility.yul\":1491:1517   */\n      swap1\n      pop\n        /* \"#utility.yul\":1527:1598   */\n      tag_91\n        /* \"#utility.yul\":1595:1596   */\n      0x00\n        /* \"#utility.yul\":1584:1593   */\n      dup4\n        /* \"#utility.yul\":1580:1597   */\n      add\n        /* \"#utility.yul\":1571:1577   */\n      dup5\n        /* \"#utility.yul\":1527:1598   */\n      tag_49\n      jump\t// in\n    tag_91:\n        /* \"#utility.yul\":1383:1605   */\n      swap3\n      swap2\n      pop\n      pop\n      jump\t// out\n        /* \"#utility.yul\":1611:1733   */\n    tag_50:\n        /* \"#utility.yul\":1684:1708   */\n      tag_93\n        /* \"#utility.yul\":1702:1707   */\n      dup2\n        /* \"#utility.yul\":1684:1708   */\n      tag_48\n      jump\t// in\n    tag_93:\n        /* \"#utility.yul\":1677:1682   */\n      dup2\n        /* \"#utility.yul\":1674:1709   */\n      eq\n        /* \"#utility.yul\":1664:1727   */\n      tag_94\n      jumpi\n        /* \"#utility.yul\":1723:1724   */\n      0x00\n        /* \"#utility.yul\":1720:1721   */\n      dup1\n        /* \"#utility.yul\":1713:1725   */\n      revert\n        /* \"#utility.yul\":1664:1727   */\n    tag_94:\n        /* \"#utility.yul\":1611:1733   */\n      pop\n      jump\t// out\n        /* \"#utility.yul\":1739:1878   */\n    tag_51:\n        /* \"#utility.yul\":1785:1790   */\n      0x00\n        /* \"#utility.yul\":1823:1829   */\n      dup2\n        /* \"#utility.yul\":1810:1830   */\n      calldataload\n        /* \"#utility.yul\":1801:1830   */\n      swap1\n      pop\n        /* \"#utility.yul\":1839:1872   */\n      tag_96\n        /* \"#utility.yul\":1866:1871   */\n      dup2\n        /* \"#utility.yul\":1839:1872   */\n      tag_50\n      jump\t// in\n    tag_96:\n        /* \"#utility.yul\":1739:1878   */\n      swap3\n      swap2\n      pop\n      pop\n      jump\t// out\n        /* \"#utility.yul\":1884:2213   */\n    tag_16:\n        /* \"#utility.yul\":1943:1949   */\n      0x00\n        /* \"#utility.yul\":1992:1994   */\n      0x20\n        /* \"#utility.yul\":1980:1989   */\n      dup3\n        /* \"#utility.yul\":1971:1978   */\n      dup5\n        /* \"#utility.yul\":1967:1990   */\n      sub\n        /* \"#utility.yul\":1963:1995   */\n      slt\n        /* \"#utility.yul\":1960:2079   */\n      iszero\n      tag_98\n      jumpi\n        /* \"#utility.yul\":1998:2077   */\n      tag_99\n      tag_42\n      jump\t// in\n    tag_99:\n        /* \"#utility.yul\":1960:2079   */\n    tag_98:\n        /* \"#utility.yul\":2118:2119   */\n      0x00\n        /* \"#utility.yul\":2143:2196   */\n      tag_100\n        /* \"#utility.yul\":2188:2195   */\n      dup5\n        /* \"#utility.yul\":2179:2185   */\n      dup3\n        /* \"#utility.yul\":2168:2177   */\n      dup6\n        /* \"#utility.yul\":2164:2186   */\n      add\n        /* \"#utility.yul\":2143:2196   */\n      tag_51\n      jump\t// in\n    tag_100:\n        /* \"#utility.yul\":2133:2196   */\n      swap2\n      pop\n        /* \"#utility.yul\":2089:2206   */\n      pop\n        /* \"#utility.yul\":1884:2213   */\n      swap3\n      swap2\n      pop\n      pop\n      jump\t// out\n        /* \"#utility.yul\":2219:2337   */\n    tag_52:\n        /* \"#utility.yul\":2306:2330   */\n      tag_102\n        /* \"#utility.yul\":2324:2329   */\n      dup2\n        /* \"#utility.yul\":2306:2330   */\n      tag_44\n      jump\t// in\n    tag_102:\n        /* \"#utility.yul\":2301:2304   */\n      dup3\n        /* \"#utility.yul\":2294:2331   */\n      mstore\n        /* \"#utility.yul\":2219:2337   */\n      pop\n      pop\n      jump\t// out\n        /* \"#utility.yul\":2343:2565   */\n    tag_19:\n        /* \"#utility.yul\":2436:2440   */\n      0x00\n        /* \"#utility.yul\":2474:2476   */\n      0x20\n        /* \"#utility.yul\":2463:2472   */\n      dup3\n        /* \"#utility.yul\":2459:2477   */\n      add\n        /* \"#utility.yul\":2451:2477   */\n      swap1\n      pop\n        /* \"#utility.yul\":2487:2558   */\n      tag_104\n        /* \"#utility.yul\":2555:2556   */\n      0x00\n        /* \"#utility.yul\":2544:2553   */\n      dup4\n        /* \"#utility.yul\":2540:2557   */\n      add\n        /* \"#utility.yul\":2531:2537   */\n      dup5\n        /* \"#utility.yul\":2487:2558   */\n      tag_52\n      jump\t// in\n    tag_104:\n        /* \"#utility.yul\":2343:2565   */\n      swap3\n      swap2\n      pop\n      pop\n      jump\t// out\n        /* \"#utility.yul\":2571:2688   */\n    tag_53:\n        /* \"#utility.yul\":2680:2681   */\n      0x00\n        /* \"#utility.yul\":2677:2678   */\n      dup1\n        /* \"#utility.yul\":2670:2682   */\n      revert\n        /* \"#utility.yul\":2694:2811   */\n    tag_54:\n        /* \"#utility.yul\":2803:2804   */\n      0x00\n        /* \"#utility.yul\":2800:2801   */\n      dup1\n        /* \"#utility.yul\":2793:2805   */\n      revert\n        /* \"#utility.yul\":2817:2934   */\n    tag_55:\n        /* \"#utility.yul\":2926:2927   */\n      0x00\n        /* \"#utility.yul\":2923:2924   */\n      dup1\n        /* \"#utility.yul\":2916:2928   */\n      revert\n        /* \"#utility.yul\":2954:3507   */\n    tag_56:\n        /* \"#utility.yul\":3012:3020   */\n      0x00\n        /* \"#utility.yul\":3022:3028   */\n      dup1\n        /* \"#utility.yul\":3072:3075   */\n      dup4\n        /* \"#utility.yul\":3065:3069   */\n      0x1f\n        /* \"#utility.yul\":3057:3063   */\n      dup5\n        /* \"#utility.yul\":3053:3070   */\n      add\n        /* \"#utility.yul\":3049:3076   */\n      slt\n        /* \"#utility.yul\":3039:3161   */\n      tag_109\n      jumpi\n        /* \"#utility.yul\":3080:3159   */\n      tag_110\n      tag_53\n      jump\t// in\n    tag_110:\n        /* \"#utility.yul\":3039:3161   */\n    tag_109:\n        /* \"#utility.yul\":3193:3199   */\n      dup3\n        /* \"#utility.yul\":3180:3200   */\n      calldataload\n        /* \"#utility.yul\":3170:3200   */\n      swap1\n      pop\n        /* \"#utility.yul\":3223:3241   */\n      0xffffffffffffffff\n        /* \"#utility.yul\":3215:3221   */\n      dup2\n        /* \"#utility.yul\":3212:3242   */\n      gt\n        /* \"#utility.yul\":3209:3326   */\n      iszero\n      tag_111\n      jumpi\n        /* \"#utility.yul\":3245:3324   */\n      tag_112\n      tag_54\n      jump\t// in\n    tag_112:\n        /* \"#utility.yul\":3209:3326   */\n    tag_111:\n        /* \"#utility.yul\":3359:3363   */\n      0x20\n        /* \"#utility.yul\":3351:3357   */\n      dup4\n        /* \"#utility.yul\":3347:3364   */\n      add\n        /* \"#utility.yul\":3335:3364   */\n      swap2\n      pop\n        /* \"#utility.yul\":3413:3416   */\n      dup4\n        /* \"#utility.yul\":3405:3409   */\n      0x01\n        /* \"#utility.yul\":3397:3403   */\n      dup3\n        /* \"#utility.yul\":3393:3410   */\n      mul\n        /* \"#utility.yul\":3383:3391   */\n      dup4\n        /* \"#utility.yul\":3379:3411   */\n      add\n        /* \"#utility.yul\":3376:3417   */\n      gt\n        /* \"#utility.yul\":3373:3501   */\n      iszero\n      tag_113\n      jumpi\n        /* \"#utility.yul\":3420:3499   */\n      tag_114\n      tag_55\n      jump\t// in\n    tag_114:\n        /* \"#utility.yul\":3373:3501   */\n    tag_113:\n        /* \"#utility.yul\":2954:3507   */\n      swap3\n      pop\n      swap3\n      swap1\n      pop\n      jump\t// out\n        /* \"#utility.yul\":3513:4042   */\n    tag_26:\n        /* \"#utility.yul\":3584:3590   */\n      0x00\n        /* \"#utility.yul\":3592:3598   */\n      dup1\n        /* \"#utility.yul\":3641:3643   */\n      0x20\n        /* \"#utility.yul\":3629:3638   */\n      dup4\n        /* \"#utility.yul\":3620:3627   */\n      dup6\n        /* \"#utility.yul\":3616:3639   */\n      sub\n        /* \"#utility.yul\":3612:3644   */\n      slt\n        /* \"#utility.yul\":3609:3728   */\n      iszero\n      tag_116\n      jumpi\n        /* \"#utility.yul\":3647:3726   */\n      tag_117\n      tag_42\n      jump\t// in\n    tag_117:\n        /* \"#utility.yul\":3609:3728   */\n    tag_116:\n        /* \"#utility.yul\":3795:3796   */\n      0x00\n        /* \"#utility.yul\":3784:3793   */\n      dup4\n        /* \"#utility.yul\":3780:3797   */\n      add\n        /* \"#utility.yul\":3767:3798   */\n      calldataload\n        /* \"#utility.yul\":3825:3843   */\n      0xffffffffffffffff\n        /* \"#utility.yul\":3817:3823   */\n      dup2\n        /* \"#utility.yul\":3814:3844   */\n      gt\n        /* \"#utility.yul\":3811:3928   */\n      iszero\n      tag_118\n      jumpi\n        /* \"#utility.yul\":3847:3926   */\n      tag_119\n      tag_43\n      jump\t// in\n    tag_119:\n        /* \"#utility.yul\":3811:3928   */\n    tag_118:\n        /* \"#utility.yul\":3960:4025   */\n      tag_120\n        /* \"#utility.yul\":4017:4024   */\n      dup6\n        /* \"#utility.yul\":4008:4014   */\n      dup3\n        /* \"#utility.yul\":3997:4006   */\n      dup7\n        /* \"#utility.yul\":3993:4015   */\n      add\n        /* \"#utility.yul\":3960:4025   */\n      tag_56\n      jump\t// in\n    tag_120:\n        /* \"#utility.yul\":3942:4025   */\n      swap3\n      pop\n      swap3\n      pop\n        /* \"#utility.yul\":3738:4035   */\n      pop\n        /* \"#utility.yul\":3513:4042   */\n      swap3\n      pop\n      swap3\n      swap1\n      pop\n      jump\t// out\n        /* \"#utility.yul\":4048:4165   */\n    tag_57:\n        /* \"#utility.yul\":4157:4158   */\n      0x00\n        /* \"#utility.yul\":4154:4155   */\n      dup1\n        /* \"#utility.yul\":4147:4159   */\n      revert\n        /* \"#utility.yul\":4171:4273   */\n    tag_58:\n        /* \"#utility.yul\":4212:4218   */\n      0x00\n        /* \"#utility.yul\":4263:4265   */\n      0x1f\n        /* \"#utility.yul\":4259:4266   */\n      not\n        /* \"#utility.yul\":4254:4256   */\n      0x1f\n        /* \"#utility.yul\":4247:4252   */\n      dup4\n        /* \"#utility.yul\":4243:4257   */\n      add\n        /* \"#utility.yul\":4239:4267   */\n      and\n        /* \"#utility.yul\":4229:4267   */\n      swap1\n      pop\n        /* \"#utility.yul\":4171:4273   */\n      swap2\n      swap1\n      pop\n      jump\t// out\n        /* \"#utility.yul\":4279:4459   */\n    tag_59:\n        /* \"#utility.yul\":4327:4404   */\n      0x4e487b7100000000000000000000000000000000000000000000000000000000\n        /* \"#utility.yul\":4324:4325   */\n      0x00\n        /* \"#utility.yul\":4317:4405   */\n      mstore\n        /* \"#utility.yul\":4424:4428   */\n      0x41\n        /* \"#utility.yul\":4421:4422   */\n      0x04\n        /* \"#utility.yul\":4414:4429   */\n      mstore\n        /* \"#utility.yul\":4448:4452   */\n      0x24\n        /* \"#utility.yul\":4445:4446   */\n      0x00\n        /* \"#utility.yul\":4438:4453   */\n      revert\n        /* \"#utility.yul\":4465:4746   */\n    tag_60:\n        /* \"#utility.yul\":4548:4575   */\n      tag_125\n        /* \"#utility.yul\":4570:4574   */\n      dup3\n        /* \"#utility.yul\":4548:4575   */\n      tag_58\n      jump\t// in\n    tag_125:\n        /* \"#utility.yul\":4540:4546   */\n      dup2\n        /* \"#utility.yul\":4536:4576   */\n      add\n        /* \"#utility.yul\":4678:4684   */\n      dup2\n        /* \"#utility.yul\":4666:4676   */\n      dup2\n        /* \"#utility.yul\":4663:4685   */\n      lt\n        /* \"#utility.yul\":4642:4660   */\n      0xffffffffffffffff\n        /* \"#utility.yul\":4630:4640   */\n      dup3\n        /* \"#utility.yul\":4627:4661   */\n      gt\n        /* \"#utility.yul\":4624:4686   */\n      or\n        /* \"#utility.yul\":4621:4709   */\n      iszero\n      tag_126\n      jumpi\n        /* \"#utility.yul\":4689:4707   */\n      tag_127\n      tag_59\n      jump\t// in\n    tag_127:\n        /* \"#utility.yul\":4621:4709   */\n    tag_126:\n        /* \"#utility.yul\":4729:4739   */\n      dup1\n        /* \"#utility.yul\":4725:4727   */\n      0x40\n        /* \"#utility.yul\":4718:4740   */\n      mstore\n        /* \"#utility.yul\":4508:4746   */\n      pop\n        /* \"#utility.yul\":4465:4746   */\n      pop\n      pop\n      jump\t// out\n        /* \"#utility.yul\":4752:4881   */\n    tag_61:\n        /* \"#utility.yul\":4786:4792   */\n      0x00\n        /* \"#utility.yul\":4813:4833   */\n      tag_129\n      tag_41\n      jump\t// in\n    tag_129:\n        /* \"#utility.yul\":4803:4833   */\n      swap1\n      pop\n        /* \"#utility.yul\":4842:4875   */\n      tag_130\n        /* \"#utility.yul\":4870:4874   */\n      dup3\n        /* \"#utility.yul\":4862:4868   */\n      dup3\n        /* \"#utility.yul\":4842:4875   */\n      tag_60\n      jump\t// in\n    tag_130:\n        /* \"#utility.yul\":4752:4881   */\n      swap2\n      swap1\n      pop\n      jump\t// out\n        /* \"#utility.yul\":4887:5195   */\n    tag_62:\n        /* \"#utility.yul\":4949:4953   */\n      0x00\n        /* \"#utility.yul\":5039:5057   */\n      0xffffffffffffffff\n        /* \"#utility.yul\":5031:5037   */\n      dup3\n        /* \"#utility.yul\":5028:5058   */\n      gt\n        /* \"#utility.yul\":5025:5081   */\n      iszero\n      tag_132\n      jumpi\n        /* \"#utility.yul\":5061:5079   */\n      tag_133\n      tag_59\n      jump\t// in\n    tag_133:\n        /* \"#utility.yul\":5025:5081   */\n    tag_132:\n        /* \"#utility.yul\":5099:5128   */\n      tag_134\n        /* \"#utility.yul\":5121:5127   */\n      dup3\n        /* \"#utility.yul\":5099:5128   */\n      tag_58\n      jump\t// in\n    tag_134:\n        /* \"#utility.yul\":5091:5128   */\n      swap1\n      pop\n        /* \"#utility.yul\":5183:5187   */\n      0x20\n        /* \"#utility.yul\":5177:5181   */\n      dup2\n        /* \"#utility.yul\":5173:5188   */\n      add\n        /* \"#utility.yul\":5165:5188   */\n      swap1\n      pop\n        /* \"#utility.yul\":4887:5195   */\n      swap2\n      swap1\n      pop\n      jump\t// out\n        /* \"#utility.yul\":5201:5347   */\n    tag_63:\n        /* \"#utility.yul\":5298:5304   */\n      dup3\n        /* \"#utility.yul\":5293:5296   */\n      dup2\n        /* \"#utility.yul\":5288:5291   */\n      dup4\n        /* \"#utility.yul\":5275:5305   */\n      calldatacopy\n        /* \"#utility.yul\":5339:5340   */\n      0x00\n        /* \"#utility.yul\":5330:5336   */\n      dup4\n        /* \"#utility.yul\":5325:5328   */\n      dup4\n        /* \"#utility.yul\":5321:5337   */\n      add\n        /* \"#utility.yul\":5314:5341   */\n      mstore\n        /* \"#utility.yul\":5201:5347   */\n      pop\n      pop\n      pop\n      jump\t// out\n        /* \"#utility.yul\":5353:5778   */\n    tag_64:\n        /* \"#utility.yul\":5431:5436   */\n      0x00\n        /* \"#utility.yul\":5456:5522   */\n      tag_137\n        /* \"#utility.yul\":5472:5521   */\n      tag_138\n        /* \"#utility.yul\":5514:5520   */\n      dup5\n        /* \"#utility.yul\":5472:5521   */\n      tag_62\n      jump\t// in\n    tag_138:\n        /* \"#utility.yul\":5456:5522   */\n      tag_61\n      jump\t// in\n    tag_137:\n        /* \"#utility.yul\":5447:5522   */\n      swap1\n      pop\n        /* \"#utility.yul\":5545:5551   */\n      dup3\n        /* \"#utility.yul\":5538:5543   */\n      dup2\n        /* \"#utility.yul\":5531:5552   */\n      mstore\n        /* \"#utility.yul\":5583:5587   */\n      0x20\n        /* \"#utility.yul\":5576:5581   */\n      dup2\n        /* \"#utility.yul\":5572:5588   */\n      add\n        /* \"#utility.yul\":5621:5624   */\n      dup5\n        /* \"#utility.yul\":5612:5618   */\n      dup5\n        /* \"#utility.yul\":5607:5610   */\n      dup5\n        /* \"#utility.yul\":5603:5619   */\n      add\n        /* \"#utility.yul\":5600:5625   */\n      gt\n        /* \"#utility.yul\":5597:5709   */\n      iszero\n      tag_139\n      jumpi\n        /* \"#utility.yul\":5628:5707   */\n      tag_140\n      tag_57\n      jump\t// in\n    tag_140:\n        /* \"#utility.yul\":5597:5709   */\n    tag_139:\n        /* \"#utility.yul\":5718:5772   */\n      tag_141\n        /* \"#utility.yul\":5765:5771   */\n      dup5\n        /* \"#utility.yul\":5760:5763   */\n      dup3\n        /* \"#utility.yul\":5755:5758   */\n      dup6\n        /* \"#utility.yul\":5718:5772   */\n      tag_63\n      jump\t// in\n    tag_141:\n        /* \"#utility.yul\":5437:5778   */\n      pop\n        /* \"#utility.yul\":5353:5778   */\n      swap4\n      swap3\n      pop\n      pop\n      pop\n      jump\t// out\n        /* \"#utility.yul\":5798:6138   */\n    tag_65:\n        /* \"#utility.yul\":5854:5859   */\n      0x00\n        /* \"#utility.yul\":5903:5906   */\n      dup3\n        /* \"#utility.yul\":5896:5900   */\n      0x1f\n        /* \"#utility.yul\":5888:5894   */\n      dup4\n        /* \"#utility.yul\":5884:5901   */\n      add\n        /* \"#utility.yul\":5880:5907   */\n      slt\n        /* \"#utility.yul\":5870:5992   */\n      tag_143\n      jumpi\n        /* \"#utility.yul\":5911:5990   */\n      tag_144\n      tag_53\n      jump\t// in\n    tag_144:\n        /* \"#utility.yul\":5870:5992   */\n    tag_143:\n        /* \"#utility.yul\":6028:6034   */\n      dup2\n        /* \"#utility.yul\":6015:6035   */\n      calldataload\n        /* \"#utility.yul\":6053:6132   */\n      tag_145\n        /* \"#utility.yul\":6128:6131   */\n      dup5\n        /* \"#utility.yul\":6120:6126   */\n      dup3\n        /* \"#utility.yul\":6113:6117   */\n      0x20\n        /* \"#utility.yul\":6105:6111   */\n      dup7\n        /* \"#utility.yul\":6101:6118   */\n      add\n        /* \"#utility.yul\":6053:6132   */\n      tag_64\n      jump\t// in\n    tag_145:\n        /* \"#utility.yul\":6044:6132   */\n      swap2\n      pop\n        /* \"#utility.yul\":5860:6138   */\n      pop\n        /* \"#utility.yul\":5798:6138   */\n      swap3\n      swap2\n      pop\n      pop\n      jump\t// out\n        /* \"#utility.yul\":6144:6653   */\n    tag_30:\n        /* \"#utility.yul\":6213:6219   */\n      0x00\n        /* \"#utility.yul\":6262:6264   */\n      0x20\n        /* \"#utility.yul\":6250:6259   */\n      dup3\n        /* \"#utility.yul\":6241:6248   */\n      dup5\n        /* \"#utility.yul\":6237:6260   */\n      sub\n        /* \"#utility.yul\":6233:6265   */\n      slt\n        /* \"#utility.yul\":6230:6349   */\n      iszero\n      tag_147\n      jumpi\n        /* \"#utility.yul\":6268:6347   */\n      tag_148\n      tag_42\n      jump\t// in\n    tag_148:\n        /* \"#utility.yul\":6230:6349   */\n    tag_147:\n        /* \"#utility.yul\":6416:6417   */\n      0x00\n        /* \"#utility.yul\":6405:6414   */\n      dup3\n        /* \"#utility.yul\":6401:6418   */\n      add\n        /* \"#utility.yul\":6388:6419   */\n      calldataload\n        /* \"#utility.yul\":6446:6464   */\n      0xffffffffffffffff\n        /* \"#utility.yul\":6438:6444   */\n      dup2\n        /* \"#utility.yul\":6435:6465   */\n      gt\n        /* \"#utility.yul\":6432:6549   */\n      iszero\n      tag_149\n      jumpi\n        /* \"#utility.yul\":6468:6547   */\n      tag_150\n      tag_43\n      jump\t// in\n    tag_150:\n        /* \"#utility.yul\":6432:6549   */\n    tag_149:\n        /* \"#utility.yul\":6573:6636   */\n      tag_151\n        /* \"#utility.yul\":6628:6635   */\n      dup5\n        /* \"#utility.yul\":6619:6625   */\n      dup3\n        /* \"#utility.yul\":6608:6617   */\n      dup6\n        /* \"#utility.yul\":6604:6626   */\n      add\n        /* \"#utility.yul\":6573:6636   */\n      tag_65\n      jump\t// in\n    tag_151:\n        /* \"#utility.yul\":6563:6636   */\n      swap2\n      pop\n        /* \"#utility.yul\":6359:6646   */\n      pop\n        /* \"#utility.yul\":6144:6653   */\n      swap3\n      swap2\n      pop\n      pop\n      jump\t// out\n        /* \"#utility.yul\":6659:6807   */\n    tag_66:\n        /* \"#utility.yul\":6761:6772   */\n      0x00\n        /* \"#utility.yul\":6798:6801   */\n      dup2\n        /* \"#utility.yul\":6783:6801   */\n      swap1\n      pop\n        /* \"#utility.yul\":6659:6807   */\n      swap3\n      swap2\n      pop\n      pop\n      jump\t// out\n        /* \"#utility.yul\":6837:7167   */\n    tag_67:\n        /* \"#utility.yul\":6953:6956   */\n      0x00\n        /* \"#utility.yul\":6974:7063   */\n      tag_154\n        /* \"#utility.yul\":7056:7062   */\n      dup4\n        /* \"#utility.yul\":7051:7054   */\n      dup6\n        /* \"#utility.yul\":6974:7063   */\n      tag_66\n      jump\t// in\n    tag_154:\n        /* \"#utility.yul\":6967:7063   */\n      swap4\n      pop\n        /* \"#utility.yul\":7073:7129   */\n      tag_155\n        /* \"#utility.yul\":7122:7128   */\n      dup4\n        /* \"#utility.yul\":7117:7120   */\n      dup6\n        /* \"#utility.yul\":7110:7115   */\n      dup5\n        /* \"#utility.yul\":7073:7129   */\n      tag_63\n      jump\t// in\n    tag_155:\n        /* \"#utility.yul\":7154:7160   */\n      dup3\n        /* \"#utility.yul\":7149:7152   */\n      dup5\n        /* \"#utility.yul\":7145:7161   */\n      add\n        /* \"#utility.yul\":7138:7161   */\n      swap1\n      pop\n        /* \"#utility.yul\":6837:7167   */\n      swap4\n      swap3\n      pop\n      pop\n      pop\n      jump\t// out\n        /* \"#utility.yul\":7173:7468   */\n    tag_36:\n        /* \"#utility.yul\":7315:7318   */\n      0x00\n        /* \"#utility.yul\":7337:7442   */\n      tag_157\n        /* \"#utility.yul\":7438:7441   */\n      dup3\n        /* \"#utility.yul\":7429:7435   */\n      dup5\n        /* \"#utility.yul\":7421:7427   */\n      dup7\n        /* \"#utility.yul\":7337:7442   */\n      tag_67\n      jump\t// in\n    tag_157:\n        /* \"#utility.yul\":7330:7442   */\n      swap2\n      pop\n        /* \"#utility.yul\":7459:7462   */\n      dup2\n        /* \"#utility.yul\":7452:7462   */\n      swap1\n      pop\n        /* \"#utility.yul\":7173:7468   */\n      swap4\n      swap3\n      pop\n      pop\n      pop\n      jump\t// out\n        /* \"#utility.yul\":7474:7573   */\n    tag_68:\n        /* \"#utility.yul\":7526:7532   */\n      0x00\n        /* \"#utility.yul\":7560:7565   */\n      dup2\n        /* \"#utility.yul\":7554:7566   */\n      mload\n        /* \"#utility.yul\":7544:7566   */\n      swap1\n      pop\n        /* \"#utility.yul\":7474:7573   */\n      swap2\n      swap1\n      pop\n      jump\t// out\n        /* \"#utility.yul\":7579:7825   */\n    tag_69:\n        /* \"#utility.yul\":7660:7661   */\n      0x00\n        /* \"#utility.yul\":7670:7783   */\n    tag_160:\n        /* \"#utility.yul\":7684:7690   */\n      dup4\n        /* \"#utility.yul\":7681:7682   */\n      dup2\n        /* \"#utility.yul\":7678:7691   */\n      lt\n        /* \"#utility.yul\":7670:7783   */\n      iszero\n      tag_162\n      jumpi\n        /* \"#utility.yul\":7769:7770   */\n      dup1\n        /* \"#utility.yul\":7764:7767   */\n      dup3\n        /* \"#utility.yul\":7760:7771   */\n      add\n        /* \"#utility.yul\":7754:7772   */\n      mload\n        /* \"#utility.yul\":7750:7751   */\n      dup2\n        /* \"#utility.yul\":7745:7748   */\n      dup5\n        /* \"#utility.yul\":7741:7752   */\n      add\n        /* \"#utility.yul\":7734:7773   */\n      mstore\n        /* \"#utility.yul\":7706:7708   */\n      0x20\n        /* \"#utility.yul\":7703:7704   */\n      dup2\n        /* \"#utility.yul\":7699:7709   */\n      add\n        /* \"#utility.yul\":7694:7709   */\n      swap1\n      pop\n        /* \"#utility.yul\":7670:7783   */\n      jump(tag_160)\n    tag_162:\n        /* \"#utility.yul\":7817:7818   */\n      0x00\n        /* \"#utility.yul\":7808:7814   */\n      dup5\n        /* \"#utility.yul\":7803:7806   */\n      dup5\n        /* \"#utility.yul\":7799:7815   */\n      add\n        /* \"#utility.yul\":7792:7819   */\n      mstore\n        /* \"#utility.yul\":7641:7825   */\n      pop\n        /* \"#utility.yul\":7579:7825   */\n      pop\n      pop\n      pop\n      jump\t// out\n        /* \"#utility.yul\":7831:8221   */\n    tag_70:\n        /* \"#utility.yul\":7937:7940   */\n      0x00\n        /* \"#utility.yul\":7965:8004   */\n      tag_164\n        /* \"#utility.yul\":7998:8003   */\n      dup3\n        /* \"#utility.yul\":7965:8004   */\n      tag_68\n      jump\t// in\n    tag_164:\n        /* \"#utility.yul\":8020:8109   */\n      tag_165\n        /* \"#utility.yul\":8102:8108   */\n      dup2\n        /* \"#utility.yul\":8097:8100   */\n      dup6\n        /* \"#utility.yul\":8020:8109   */\n      tag_66\n      jump\t// in\n    tag_165:\n        /* \"#utility.yul\":8013:8109   */\n      swap4\n      pop\n        /* \"#utility.yul\":8118:8183   */\n      tag_166\n        /* \"#utility.yul\":8176:8182   */\n      dup2\n        /* \"#utility.yul\":8171:8174   */\n      dup6\n        /* \"#utility.yul\":8164:8168   */\n      0x20\n        /* \"#utility.yul\":8157:8162   */\n      dup7\n        /* \"#utility.yul\":8153:8169   */\n      add\n        /* \"#utility.yul\":8118:8183   */\n      tag_69\n      jump\t// in\n    tag_166:\n        /* \"#utility.yul\":8208:8214   */\n      dup1\n        /* \"#utility.yul\":8203:8206   */\n      dup5\n        /* \"#utility.yul\":8199:8215   */\n      add\n        /* \"#utility.yul\":8192:8215   */\n      swap2\n      pop\n        /* \"#utility.yul\":7941:8221   */\n      pop\n        /* \"#utility.yul\":7831:8221   */\n      swap3\n      swap2\n      pop\n      pop\n      jump\t// out\n        /* \"#utility.yul\":8227:8502   */\n    tag_40:\n        /* \"#utility.yul\":8359:8362   */\n      0x00\n        /* \"#utility.yul\":8381:8476   */\n      tag_168\n        /* \"#utility.yul\":8472:8475   */\n      dup3\n        /* \"#utility.yul\":8463:8469   */\n      dup5\n        /* \"#utility.yul\":8381:8476   */\n      tag_70\n      jump\t// in\n    tag_168:\n        /* \"#utility.yul\":8374:8476   */\n      swap2\n      pop\n        /* \"#utility.yul\":8493:8496   */\n      dup2\n        /* \"#utility.yul\":8486:8496   */\n      swap1\n      pop\n        /* \"#utility.yul\":8227:8502   */\n      swap3\n      swap2\n      pop\n      pop\n      jump\t// out\n\n    auxdata: 0xa2646970667358221220e1ef75eecfa192e5ec1a3c0490d1008a436597e76a217532afbbd1f4df64507764736f6c63430008130033\n}\n",
				"bytecode": {
					"linkReferences": {},
					"object": "608060405234801561001057600080fd5b506107a5806100206000396000f3fe608060405234801561001057600080fd5b50600436106100575760003560e01c8063058889991461005c57806308784db21461008c5780636069910e146100bc578063c61084ba146100ec578063c90791a614610108575b600080fd5b61007660048036038101906100719190610361565b610138565b60405161008391906103cf565b60405180910390f35b6100a660048036038101906100a19190610416565b61016b565b6040516100b39190610452565b60405180910390f35b6100d660048036038101906100d19190610416565b6101b4565b6040516100e39190610452565b60405180910390f35b610106600480360381019061010191906104d2565b6101cc565b005b610122600480360381019061011d9190610660565b6102b5565b60405161012f91906103cf565b60405180910390f35b60006020528060005260406000206000915054906101000a900473ffffffffffffffffffffffffffffffffffffffff1681565b6000600160008373ffffffffffffffffffffffffffffffffffffffff1673ffffffffffffffffffffffffffffffffffffffff168152602001908152602001600020549050919050565b60016020528060005260406000206000915090505481565b3360008084846040516020016101e39291906106d9565b60405160208183030381529060405280519060200120815260200190815260200160002060006101000a81548173ffffffffffffffffffffffffffffffffffffffff021916908373ffffffffffffffffffffffffffffffffffffffff16021790555081816040516020016102589291906106d9565b60405160208183030381529060405280519060200120600160003373ffffffffffffffffffffffffffffffffffffffff1673ffffffffffffffffffffffffffffffffffffffff168152602001908152602001600020819055505050565b6000806000836040516020016102cb9190610758565b60405160208183030381529060405280519060200120815260200190815260200160002060009054906101000a900473ffffffffffffffffffffffffffffffffffffffff169050919050565b6000604051905090565b600080fd5b600080fd5b6000819050919050565b61033e8161032b565b811461034957600080fd5b50565b60008135905061035b81610335565b92915050565b60006020828403121561037757610376610321565b5b60006103858482850161034c565b91505092915050565b600073ffffffffffffffffffffffffffffffffffffffff82169050919050565b60006103b98261038e565b9050919050565b6103c9816103ae565b82525050565b60006020820190506103e460008301846103c0565b92915050565b6103f3816103ae565b81146103fe57600080fd5b50565b600081359050610410816103ea565b92915050565b60006020828403121561042c5761042b610321565b5b600061043a84828501610401565b91505092915050565b61044c8161032b565b82525050565b60006020820190506104676000830184610443565b92915050565b600080fd5b600080fd5b600080fd5b60008083601f8401126104925761049161046d565b5b8235905067ffffffffffffffff8111156104af576104ae610472565b5b6020830191508360018202830111156104cb576104ca610477565b5b9250929050565b600080602083850312156104e9576104e8610321565b5b600083013567ffffffffffffffff81111561050757610506610326565b5b6105138582860161047c565b92509250509250929050565b600080fd5b6000601f19601f8301169050919050565b7f4e487b7100000000000000000000000000000000000000000000000000000000600052604160045260246000fd5b61056d82610524565b810181811067ffffffffffffffff8211171561058c5761058b610535565b5b80604052505050565b600061059f610317565b90506105ab8282610564565b919050565b600067ffffffffffffffff8211156105cb576105ca610535565b5b6105d482610524565b9050602081019050919050565b82818337600083830152505050565b60006106036105fe846105b0565b610595565b90508281526020810184848401111561061f5761061e61051f565b5b61062a8482856105e1565b509392505050565b600082601f8301126106475761064661046d565b5b81356106578482602086016105f0565b91505092915050565b60006020828403121561067657610675610321565b5b600082013567ffffffffffffffff81111561069457610693610326565b5b6106a084828501610632565b91505092915050565b600081905092915050565b60006106c083856106a9565b93506106cd8385846105e1565b82840190509392505050565b60006106e68284866106b4565b91508190509392505050565b600081519050919050565b60005b8381101561071b578082015181840152602081019050610700565b60008484015250505050565b6000610732826106f2565b61073c81856106a9565b935061074c8185602086016106fd565b80840191505092915050565b60006107648284610727565b91508190509291505056fea2646970667358221220e1ef75eecfa192e5ec1a3c0490d1008a436597e76a217532afbbd1f4df64507764736f6c63430008130033",
					"opcodes": "PUSH1 0x80 PUSH1 0x40 MSTORE CALLVALUE DUP1 ISZERO PUSH2 0x10 JUMPI PUSH1 0x0 DUP1 REVERT JUMPDEST POP PUSH2 0x7A5 DUP1 PUSH2 0x20 PUSH1 0x0 CODECOPY PUSH1 0x0 RETURN INVALID PUSH1 0x80 PUSH1 0x40 MSTORE CALLVALUE DUP1 ISZERO PUSH2 0x10 JUMPI PUSH1 0x0 DUP1 REVERT JUMPDEST POP PUSH1 0x4 CALLDATASIZE LT PUSH2 0x57 JUMPI PUSH1 0x0 CALLDATALOAD PUSH1 0xE0 SHR DUP1 PUSH4 0x5888999 EQ PUSH2 0x5C JUMPI DUP1 PUSH4 0x8784DB2 EQ PUSH2 0x8C JUMPI DUP1 PUSH4 0x6069910E EQ PUSH2 0xBC JUMPI DUP1 PUSH4 0xC61084BA EQ PUSH2 0xEC JUMPI DUP1 PUSH4 0xC90791A6 EQ PUSH2 0x108 JUMPI JUMPDEST PUSH1 0x0 DUP1 REVERT JUMPDEST PUSH2 0x76 PUSH1 0x4 DUP1 CALLDATASIZE SUB DUP2 ADD SWAP1 PUSH2 0x71 SWAP2 SWAP1 PUSH2 0x361 JUMP JUMPDEST PUSH2 0x138 JUMP JUMPDEST PUSH1 0x40 MLOAD PUSH2 0x83 SWAP2 SWAP1 PUSH2 0x3CF JUMP JUMPDEST PUSH1 0x40 MLOAD DUP1 SWAP2 SUB SWAP1 RETURN JUMPDEST PUSH2 0xA6 PUSH1 0x4 DUP1 CALLDATASIZE SUB DUP2 ADD SWAP1 PUSH2 0xA1 SWAP2 SWAP1 PUSH2 0x416 JUMP JUMPDEST PUSH2 0x16B JUMP JUMPDEST PUSH1 0x40 MLOAD PUSH2 0xB3 SWAP2 SWAP1 PUSH2 0x452 JUMP JUMPDEST PUSH1 0x40 MLOAD DUP1 SWAP2 SUB SWAP1 RETURN JUMPDEST PUSH2 0xD6 PUSH1 0x4 DUP1 CALLDATASIZE SUB DUP2 ADD SWAP1 PUSH2 0xD1 SWAP2 SWAP1 PUSH2 0x416 JUMP JUMPDEST PUSH2 0x1B4 JUMP JUMPDEST PUSH1 0x40 MLOAD PUSH2 0xE3 SWAP2 SWAP1 PUSH2 0x452 JUMP JUMPDEST PUSH1 0x40 MLOAD DUP1 SWAP2 SUB SWAP1 RETURN JUMPDEST PUSH2 0x106 PUSH1 0x4 DUP1 CALLDATASIZE SUB DUP2 ADD SWAP1 PUSH2 0x101 SWAP2 SWAP1 PUSH2 0x4D2 JUMP JUMPDEST PUSH2 0x1CC JUMP JUMPDEST STOP JUMPDEST PUSH2 0x122 PUSH1 0x4 DUP1 CALLDATASIZE SUB DUP2 ADD SWAP1 PUSH2 0x11D SWAP2 SWAP1 PUSH2 0x660 JUMP JUMPDEST PUSH2 0x2B5 JUMP JUMPDEST PUSH1 0x40 MLOAD PUSH2 0x12F SWAP2 SWAP1 PUSH2 0x3CF JUMP JUMPDEST PUSH1 0x40 MLOAD DUP1 SWAP2 SUB SWAP1 RETURN JUMPDEST PUSH1 0x0 PUSH1 0x20 MSTORE DUP1 PUSH1 0x0 MSTORE PUSH1 0x40 PUSH1 0x0 KECCAK256 PUSH1 0x0 SWAP2 POP SLOAD SWAP1 PUSH2 0x100 EXP SWAP1 DIV PUSH20 0xFFFFFFFFFFFFFFFFFFFFFFFFFFFFFFFFFFFFFFFF AND DUP2 JUMP JUMPDEST PUSH1 0x0 PUSH1 0x1 PUSH1 0x0 DUP4 PUSH20 0xFFFFFFFFFFFFFFFFFFFFFFFFFFFFFFFFFFFFFFFF AND PUSH20 0xFFFFFFFFFFFFFFFFFFFFFFFFFFFFFFFFFFFFFFFF AND DUP2 MSTORE PUSH1 0x20 ADD SWAP1 DUP2 MSTORE PUSH1 0x20 ADD PUSH1 0x0 KECCAK256 SLOAD SWAP1 POP SWAP2 SWAP1 POP JUMP JUMPDEST PUSH1 0x1 PUSH1 0x20 MSTORE DUP1 PUSH1 0x0 MSTORE PUSH1 0x40 PUSH1 0x0 KECCAK256 PUSH1 0x0 SWAP2 POP SWAP1 POP SLOAD DUP2 JUMP JUMPDEST CALLER PUSH1 0x0 DUP1 DUP5 DUP5 PUSH1 0x40 MLOAD PUSH1 0x20 ADD PUSH2 0x1E3 SWAP3 SWAP2 SWAP1 PUSH2 0x6D9 JUMP JUMPDEST PUSH1 0x40 MLOAD PUSH1 0x20 DUP2 DUP4 SUB SUB DUP2 MSTORE SWAP1 PUSH1 0x40 MSTORE DUP1 MLOAD SWAP1 PUSH1 0x20 ADD KECCAK256 DUP2 MSTORE PUSH1 0x20 ADD SWAP1 DUP2 MSTORE PUSH1 0x20 ADD PUSH1 0x0 KECCAK256 PUSH1 0x0 PUSH2 0x100 EXP DUP2 SLOAD DUP2 PUSH20 0xFFFFFFFFFFFFFFFFFFFFFFFFFFFFFFFFFFFFFFFF MUL NOT AND SWAP1 DUP4 PUSH20 0xFFFFFFFFFFFFFFFFFFFFFFFFFFFFFFFFFFFFFFFF AND MUL OR SWAP1 SSTORE POP DUP2 DUP2 PUSH1 0x40 MLOAD PUSH1 0x20 ADD PUSH2 0x258 SWAP3 SWAP2 SWAP1 PUSH2 0x6D9 JUMP JUMPDEST PUSH1 0x40 MLOAD PUSH1 0x20 DUP2 DUP4 SUB SUB DUP2 MSTORE SWAP1 PUSH1 0x40 MSTORE DUP1 MLOAD SWAP1 PUSH1 0x20 ADD KECCAK256 PUSH1 0x1 PUSH1 0x0 CALLER PUSH20 0xFFFFFFFFFFFFFFFFFFFFFFFFFFFFFFFFFFFFFFFF AND PUSH20 0xFFFFFFFFFFFFFFFFFFFFFFFFFFFFFFFFFFFFFFFF AND DUP2 MSTORE PUSH1 0x20 ADD SWAP1 DUP2 MSTORE PUSH1 0x20 ADD PUSH1 0x0 KECCAK256 DUP2 SWAP1 SSTORE POP POP POP JUMP JUMPDEST PUSH1 0x0 DUP1 PUSH1 0x0 DUP4 PUSH1 0x40 MLOAD PUSH1 0x20 ADD PUSH2 0x2CB SWAP2 SWAP1 PUSH2 0x758 JUMP JUMPDEST PUSH1 0x40 MLOAD PUSH1 0x20 DUP2 DUP4 SUB SUB DUP2 MSTORE SWAP1 PUSH1 0x40 MSTORE DUP1 MLOAD SWAP1 PUSH1 0x20 ADD KECCAK256 DUP2 MSTORE PUSH1 0x20 ADD SWAP1 DUP2 MSTORE PUSH1 0x20 ADD PUSH1 0x0 KECCAK256 PUSH1 0x0 SWAP1 SLOAD SWAP1 PUSH2 0x100 EXP SWAP1 DIV PUSH20 0xFFFFFFFFFFFFFFFFFFFFFFFFFFFFFFFFFFFFFFFF AND SWAP1 POP SWAP2 SWAP1 POP JUMP JUMPDEST PUSH1 0x0 PUSH1 0x40 MLOAD SWAP1 POP SWAP1 JUMP JUMPDEST PUSH1 0x0 DUP1 REVERT JUMPDEST PUSH1 0x0 DUP1 REVERT JUMPDEST PUSH1 0x0 DUP2 SWAP1 POP SWAP2 SWAP1 POP JUMP JUMPDEST PUSH2 0x33E DUP2 PUSH2 0x32B JUMP JUMPDEST DUP2 EQ PUSH2 0x349 JUMPI PUSH1 0x0 DUP1 REVERT JUMPDEST POP JUMP JUMPDEST PUSH1 0x0 DUP2 CALLDATALOAD SWAP1 POP PUSH2 0x35B DUP2 PUSH2 0x335 JUMP JUMPDEST SWAP3 SWAP2 POP POP JUMP JUMPDEST PUSH1 0x0 PUSH1 0x20 DUP3 DUP5 SUB SLT ISZERO PUSH2 0x377 JUMPI PUSH2 0x376 PUSH2 0x321 JUMP JUMPDEST JUMPDEST PUSH1 0x0 PUSH2 0x385 DUP5 DUP3 DUP6 ADD PUSH2 0x34C JUMP JUMPDEST SWAP2 POP POP SWAP3 SWAP2 POP POP JUMP JUMPDEST PUSH1 0x0 PUSH20 0xFFFFFFFFFFFFFFFFFFFFFFFFFFFFFFFFFFFFFFFF DUP3 AND SWAP1 POP SWAP2 SWAP1 POP JUMP JUMPDEST PUSH1 0x0 PUSH2 0x3B9 DUP3 PUSH2 0x38E JUMP JUMPDEST SWAP1 POP SWAP2 SWAP1 POP JUMP JUMPDEST PUSH2 0x3C9 DUP2 PUSH2 0x3AE JUMP JUMPDEST DUP3 MSTORE POP POP JUMP JUMPDEST PUSH1 0x0 PUSH1 0x20 DUP3 ADD SWAP1 POP PUSH2 0x3E4 PUSH1 0x0 DUP4 ADD DUP5 PUSH2 0x3C0 JUMP JUMPDEST SWAP3 SWAP2 POP POP JUMP JUMPDEST PUSH2 0x3F3 DUP2 PUSH2 0x3AE JUMP JUMPDEST DUP2 EQ PUSH2 0x3FE JUMPI PUSH1 0x0 DUP1 REVERT JUMPDEST POP JUMP JUMPDEST PUSH1 0x0 DUP2 CALLDATALOAD SWAP1 POP PUSH2 0x410 DUP2 PUSH2 0x3EA JUMP JUMPDEST SWAP3 SWAP2 POP POP JUMP JUMPDEST PUSH1 0x0 PUSH1 0x20 DUP3 DUP5 SUB SLT ISZERO PUSH2 0x42C JUMPI PUSH2 0x42B PUSH2 0x321 JUMP JUMPDEST JUMPDEST PUSH1 0x0 PUSH2 0x43A DUP5 DUP3 DUP6 ADD PUSH2 0x401 JUMP JUMPDEST SWAP2 POP POP SWAP3 SWAP2 POP POP JUMP JUMPDEST PUSH2 0x44C DUP2 PUSH2 0x32B JUMP JUMPDEST DUP3 MSTORE POP POP JUMP JUMPDEST PUSH1 0x0 PUSH1 0x20 DUP3 ADD SWAP1 POP PUSH2 0x467 PUSH1 0x0 DUP4 ADD DUP5 PUSH2 0x443 JUMP JUMPDEST SWAP3 SWAP2 POP POP JUMP JUMPDEST PUSH1 0x0 DUP1 REVERT JUMPDEST PUSH1 0x0 DUP1 REVERT JUMPDEST PUSH1 0x0 DUP1 REVERT JUMPDEST PUSH1 0x0 DUP1 DUP4 PUSH1 0x1F DUP5 ADD SLT PUSH2 0x492 JUMPI PUSH2 0x491 PUSH2 0x46D JUMP JUMPDEST JUMPDEST DUP3 CALLDATALOAD SWAP1 POP PUSH8 0xFFFFFFFFFFFFFFFF DUP2 GT ISZERO PUSH2 0x4AF JUMPI PUSH2 0x4AE PUSH2 0x472 JUMP JUMPDEST JUMPDEST PUSH1 0x20 DUP4 ADD SWAP2 POP DUP4 PUSH1 0x1 DUP3 MUL DUP4 ADD GT ISZERO PUSH2 0x4CB JUMPI PUSH2 0x4CA PUSH2 0x477 JUMP JUMPDEST JUMPDEST SWAP3 POP SWAP3 SWAP1 POP JUMP JUMPDEST PUSH1 0x0 DUP1 PUSH1 0x20 DUP4 DUP6 SUB SLT ISZERO PUSH2 0x4E9 JUMPI PUSH2 0x4E8 PUSH2 0x321 JUMP JUMPDEST JUMPDEST PUSH1 0x0 DUP4 ADD CALLDATALOAD PUSH8 0xFFFFFFFFFFFFFFFF DUP2 GT ISZERO PUSH2 0x507 JUMPI PUSH2 0x506 PUSH2 0x326 JUMP JUMPDEST JUMPDEST PUSH2 0x513 DUP6 DUP3 DUP7 ADD PUSH2 0x47C JUMP JUMPDEST SWAP3 POP SWAP3 POP POP SWAP3 POP SWAP3 SWAP1 POP JUMP JUMPDEST PUSH1 0x0 DUP1 REVERT JUMPDEST PUSH1 0x0 PUSH1 0x1F NOT PUSH1 0x1F DUP4 ADD AND SWAP1 POP SWAP2 SWAP1 POP JUMP JUMPDEST PUSH32 0x4E487B7100000000000000000000000000000000000000000000000000000000 PUSH1 0x0 MSTORE PUSH1 0x41 PUSH1 0x4 MSTORE PUSH1 0x24 PUSH1 0x0 REVERT JUMPDEST PUSH2 0x56D DUP3 PUSH2 0x524 JUMP JUMPDEST DUP2 ADD DUP2 DUP2 LT PUSH8 0xFFFFFFFFFFFFFFFF DUP3 GT OR ISZERO PUSH2 0x58C JUMPI PUSH2 0x58B PUSH2 0x535 JUMP JUMPDEST JUMPDEST DUP1 PUSH1 0x40 MSTORE POP POP POP JUMP JUMPDEST PUSH1 0x0 PUSH2 0x59F PUSH2 0x317 JUMP JUMPDEST SWAP1 POP PUSH2 0x5AB DUP3 DUP3 PUSH2 0x564 JUMP JUMPDEST SWAP2 SWAP1 POP JUMP JUMPDEST PUSH1 0x0 PUSH8 0xFFFFFFFFFFFFFFFF DUP3 GT ISZERO PUSH2 0x5CB JUMPI PUSH2 0x5CA PUSH2 0x535 JUMP JUMPDEST JUMPDEST PUSH2 0x5D4 DUP3 PUSH2 0x524 JUMP JUMPDEST SWAP1 POP PUSH1 0x20 DUP2 ADD SWAP1 POP SWAP2 SWAP1 POP JUMP JUMPDEST DUP3 DUP2 DUP4 CALLDATACOPY PUSH1 0x0 DUP4 DUP4 ADD MSTORE POP POP POP JUMP JUMPDEST PUSH1 0x0 PUSH2 0x603 PUSH2 0x5FE DUP5 PUSH2 0x5B0 JUMP JUMPDEST PUSH2 0x595 JUMP JUMPDEST SWAP1 POP DUP3 DUP2 MSTORE PUSH1 0x20 DUP2 ADD DUP5 DUP5 DUP5 ADD GT ISZERO PUSH2 0x61F JUMPI PUSH2 0x61E PUSH2 0x51F JUMP JUMPDEST JUMPDEST PUSH2 0x62A DUP5 DUP3 DUP6 PUSH2 0x5E1 JUMP JUMPDEST POP SWAP4 SWAP3 POP POP POP JUMP JUMPDEST PUSH1 0x0 DUP3 PUSH1 0x1F DUP4 ADD SLT PUSH2 0x647 JUMPI PUSH2 0x646 PUSH2 0x46D JUMP JUMPDEST JUMPDEST DUP2 CALLDATALOAD PUSH2 0x657 DUP5 DUP3 PUSH1 0x20 DUP7 ADD PUSH2 0x5F0 JUMP JUMPDEST SWAP2 POP POP SWAP3 SWAP2 POP POP JUMP JUMPDEST PUSH1 0x0 PUSH1 0x20 DUP3 DUP5 SUB SLT ISZERO PUSH2 0x676 JUMPI PUSH2 0x675 PUSH2 0x321 JUMP JUMPDEST JUMPDEST PUSH1 0x0 DUP3 ADD CALLDATALOAD PUSH8 0xFFFFFFFFFFFFFFFF DUP2 GT ISZERO PUSH2 0x694 JUMPI PUSH2 0x693 PUSH2 0x326 JUMP JUMPDEST JUMPDEST PUSH2 0x6A0 DUP5 DUP3 DUP6 ADD PUSH2 0x632 JUMP JUMPDEST SWAP2 POP POP SWAP3 SWAP2 POP POP JUMP JUMPDEST PUSH1 0x0 DUP2 SWAP1 POP SWAP3 SWAP2 POP POP JUMP JUMPDEST PUSH1 0x0 PUSH2 0x6C0 DUP4 DUP6 PUSH2 0x6A9 JUMP JUMPDEST SWAP4 POP PUSH2 0x6CD DUP4 DUP6 DUP5 PUSH2 0x5E1 JUMP JUMPDEST DUP3 DUP5 ADD SWAP1 POP SWAP4 SWAP3 POP POP POP JUMP JUMPDEST PUSH1 0x0 PUSH2 0x6E6 DUP3 DUP5 DUP7 PUSH2 0x6B4 JUMP JUMPDEST SWAP2 POP DUP2 SWAP1 POP SWAP4 SWAP3 POP POP POP JUMP JUMPDEST PUSH1 0x0 DUP2 MLOAD SWAP1 POP SWAP2 SWAP1 POP JUMP JUMPDEST PUSH1 0x0 JUMPDEST DUP4 DUP2 LT ISZERO PUSH2 0x71B JUMPI DUP1 DUP3 ADD MLOAD DUP2 DUP5 ADD MSTORE PUSH1 0x20 DUP2 ADD SWAP1 POP PUSH2 0x700 JUMP JUMPDEST PUSH1 0x0 DUP5 DUP5 ADD MSTORE POP POP POP POP JUMP JUMPDEST PUSH1 0x0 PUSH2 0x732 DUP3 PUSH2 0x6F2 JUMP JUMPDEST PUSH2 0x73C DUP2 DUP6 PUSH2 0x6A9 JUMP JUMPDEST SWAP4 POP PUSH2 0x74C DUP2 DUP6 PUSH1 0x20 DUP7 ADD PUSH2 0x6FD JUMP JUMPDEST DUP1 DUP5 ADD SWAP2 POP POP SWAP3 SWAP2 POP POP JUMP JUMPDEST PUSH1 0x0 PUSH2 0x764 DUP3 DUP5 PUSH2 0x727 JUMP JUMPDEST SWAP2 POP DUP2 SWAP1 POP SWAP3 SWAP2 POP POP JUMP INVALID LOG2 PUSH5 0x6970667358 0x22 SLT KECCAK256 0xE1 0xEF PUSH22 0xEECFA192E5EC1A3C0490D1008A436597E76A217532AF 0xBB 0xD1 DELEGATECALL 0xDF PUSH5 0x507764736F PUSH13 0x63430008130033000000000000 "
				},
				"gasEstimates": {
					"creation": {
						"codeDepositCost": "391400",
						"executionCost": "430",
						"totalCost": "391830"
					},
					"external": {
						"addrToPass(address)": "2836",
						"getAddressByPass(string)": "infinite",
						"getPassByAddress(address)": "2841",
						"passToAddr(bytes32)": "2817",
						"saveHashPair(string)": "infinite"
					}
				},
				"methodIdentifiers": {
					"addrToPass(address)": "6069910e",
					"getAddressByPass(string)": "c90791a6",
					"getPassByAddress(address)": "08784db2",
					"passToAddr(bytes32)": "05888999",
					"saveHashPair(string)": "c61084ba"
				}
			},
			"storageLayout": {
				"storage": [
					{
						"astId": 5,
						"contract": "contracts/Mapping.sol:Mapping",
						"label": "passToAddr",
						"offset": 0,
						"slot": "0",
						"type": "t_mapping(t_bytes32,t_address)"
					},
					{
						"astId": 9,
						"contract": "contracts/Mapping.sol:Mapping",
						"label": "addrToPass",
						"offset": 0,
						"slot": "1",
						"type": "t_mapping(t_address,t_bytes32)"
					}
				],
				"types": {
					"t_address": {
						"encoding": "inplace",
						"label": "address",
						"numberOfBytes": "20"
					},
					"t_bytes32": {
						"encoding": "inplace",
						"label": "bytes32",
						"numberOfBytes": "32"
					},
					"t_mapping(t_address,t_bytes32)": {
						"encoding": "mapping",
						"key": "t_address",
						"label": "mapping(address => bytes32)",
						"numberOfBytes": "32",
						"value": "t_bytes32"
					},
					"t_mapping(t_bytes32,t_address)": {
						"encoding": "mapping",
						"key": "t_bytes32",
						"label": "mapping(bytes32 => address)",
						"numberOfBytes": "32",
						"value": "t_address"
					}
				}
			},
			"userdoc": {
				"kind": "user",
				"methods": {},
				"version": 1
			}
		}
	}
}