{
	"contracts/Rating.sol": {
		"Rating": {
			"abi": [
				{
					"inputs": [],
					"stateMutability": "payable",
					"type": "constructor"
				},
				{
					"inputs": [
						{
							"internalType": "string",
							"name": "_pass",
							"type": "string"
						}
					],
					"name": "getRating",
					"outputs": [
						{
							"internalType": "uint256",
							"name": "",
							"type": "uint256"
						}
					],
					"stateMutability": "view",
					"type": "function"
				},
				{
					"inputs": [
						{
							"internalType": "string",
							"name": "pass",
							"type": "string"
						},
						{
							"internalType": "uint256",
							"name": "rating",
							"type": "uint256"
						}
					],
					"name": "setRating",
					"outputs": [],
					"stateMutability": "nonpayable",
					"type": "function"
				},
				{
					"inputs": [
						{
							"internalType": "bytes32",
							"name": "",
							"type": "bytes32"
						}
					],
					"name": "usersRating",
					"outputs": [
						{
							"internalType": "uint256",
							"name": "",
							"type": "uint256"
						}
					],
					"stateMutability": "view",
					"type": "function"
				}
			],
			"devdoc": {
				"kind": "dev",
				"methods": {},
				"version": 1
			},
			"evm": {
				"assembly": "    /* \"contracts/Rating.sol\":134:659  contract Rating {... */\n  mstore(0x40, 0x80)\n    /* \"contracts/Rating.sol\":258:266  1000 wei */\n  0x03e8\n    /* \"contracts/Rating.sol\":246:255  msg.value */\n  callvalue\n    /* \"contracts/Rating.sol\":246:266  msg.value > 1000 wei */\n  gt\n    /* \"contracts/Rating.sol\":238:279  require(msg.value > 1000 wei, \"fuck you\") */\n  tag_3\n  jumpi\n  mload(0x40)\n  0x08c379a000000000000000000000000000000000000000000000000000000000\n  dup2\n  mstore\n  0x04\n  add\n  tag_4\n  swap1\n  tag_5\n  jump\t// in\ntag_4:\n  mload(0x40)\n  dup1\n  swap2\n  sub\n  swap1\n  revert\ntag_3:\n    /* \"contracts/Rating.sol\":134:659  contract Rating {... */\n  jump(tag_6)\n    /* \"#utility.yul\":7:176   */\ntag_7:\n    /* \"#utility.yul\":91:102   */\n  0x00\n    /* \"#utility.yul\":125:131   */\n  dup3\n    /* \"#utility.yul\":120:123   */\n  dup3\n    /* \"#utility.yul\":113:132   */\n  mstore\n    /* \"#utility.yul\":165:169   */\n  0x20\n    /* \"#utility.yul\":160:163   */\n  dup3\n    /* \"#utility.yul\":156:170   */\n  add\n    /* \"#utility.yul\":141:170   */\n  swap1\n  pop\n    /* \"#utility.yul\":7:176   */\n  swap3\n  swap2\n  pop\n  pop\n  jump\t// out\n    /* \"#utility.yul\":182:340   */\ntag_8:\n    /* \"#utility.yul\":322:332   */\n  0x6675636b20796f75000000000000000000000000000000000000000000000000\n    /* \"#utility.yul\":318:319   */\n  0x00\n    /* \"#utility.yul\":310:316   */\n  dup3\n    /* \"#utility.yul\":306:320   */\n  add\n    /* \"#utility.yul\":299:333   */\n  mstore\n    /* \"#utility.yul\":182:340   */\n  pop\n  jump\t// out\n    /* \"#utility.yul\":346:711   */\ntag_9:\n    /* \"#utility.yul\":488:491   */\n  0x00\n    /* \"#utility.yul\":509:575   */\n  tag_14\n    /* \"#utility.yul\":573:574   */\n  0x08\n    /* \"#utility.yul\":568:571   */\n  dup4\n    /* \"#utility.yul\":509:575   */\n  tag_7\n  jump\t// in\ntag_14:\n    /* \"#utility.yul\":502:575   */\n  swap2\n  pop\n    /* \"#utility.yul\":584:677   */\n  tag_15\n    /* \"#utility.yul\":673:676   */\n  dup3\n    /* \"#utility.yul\":584:677   */\n  tag_8\n  jump\t// in\ntag_15:\n    /* \"#utility.yul\":702:704   */\n  0x20\n    /* \"#utility.yul\":697:700   */\n  dup3\n    /* \"#utility.yul\":693:705   */\n  add\n    /* \"#utility.yul\":686:705   */\n  swap1\n  pop\n    /* \"#utility.yul\":346:711   */\n  swap2\n  swap1\n  pop\n  jump\t// out\n    /* \"#utility.yul\":717:1136   */\ntag_5:\n    /* \"#utility.yul\":883:887   */\n  0x00\n    /* \"#utility.yul\":921:923   */\n  0x20\n    /* \"#utility.yul\":910:919   */\n  dup3\n    /* \"#utility.yul\":906:924   */\n  add\n    /* \"#utility.yul\":898:924   */\n  swap1\n  pop\n    /* \"#utility.yul\":970:979   */\n  dup2\n    /* \"#utility.yul\":964:968   */\n  dup2\n    /* \"#utility.yul\":960:980   */\n  sub\n    /* \"#utility.yul\":956:957   */\n  0x00\n    /* \"#utility.yul\":945:954   */\n  dup4\n    /* \"#utility.yul\":941:958   */\n  add\n    /* \"#utility.yul\":934:981   */\n  mstore\n    /* \"#utility.yul\":998:1129   */\n  tag_17\n    /* \"#utility.yul\":1124:1128   */\n  dup2\n    /* \"#utility.yul\":998:1129   */\n  tag_9\n  jump\t// in\ntag_17:\n    /* \"#utility.yul\":990:1129   */\n  swap1\n  pop\n    /* \"#utility.yul\":717:1136   */\n  swap2\n  swap1\n  pop\n  jump\t// out\n    /* \"contracts/Rating.sol\":134:659  contract Rating {... */\ntag_6:\n  dataSize(sub_0)\n  dup1\n  dataOffset(sub_0)\n  0x00\n  codecopy\n  0x00\n  return\nstop\n\nsub_0: assembly {\n        /* \"contracts/Rating.sol\":134:659  contract Rating {... */\n      mstore(0x40, 0x80)\n      callvalue\n      dup1\n      iszero\n      tag_1\n      jumpi\n      0x00\n      dup1\n      revert\n    tag_1:\n      pop\n      jumpi(tag_2, lt(calldatasize, 0x04))\n      shr(0xe0, calldataload(0x00))\n      dup1\n      0x441f0f8b\n      eq\n      tag_3\n      jumpi\n      dup1\n      0x6afcbea0\n      eq\n      tag_4\n      jumpi\n      dup1\n      0xf8326a5e\n      eq\n      tag_5\n      jumpi\n    tag_2:\n      0x00\n      dup1\n      revert\n        /* \"contracts/Rating.sol\":156:199  mapping(bytes32 => uint) public usersRating */\n    tag_3:\n      tag_6\n      0x04\n      dup1\n      calldatasize\n      sub\n      dup2\n      add\n      swap1\n      tag_7\n      swap2\n      swap1\n      tag_8\n      jump\t// in\n    tag_7:\n      tag_9\n      jump\t// in\n    tag_6:\n      mload(0x40)\n      tag_10\n      swap2\n      swap1\n      tag_11\n      jump\t// in\n    tag_10:\n      mload(0x40)\n      dup1\n      swap2\n      sub\n      swap1\n      return\n        /* \"contracts/Rating.sol\":292:511  function setRating(string memory pass, uint rating) public {... */\n    tag_4:\n      tag_12\n      0x04\n      dup1\n      calldatasize\n      sub\n      dup2\n      add\n      swap1\n      tag_13\n      swap2\n      swap1\n      tag_14\n      jump\t// in\n    tag_13:\n      tag_15\n      jump\t// in\n    tag_12:\n      stop\n        /* \"contracts/Rating.sol\":517:657  function getRating(string calldata _pass) public view returns (uint) {... */\n    tag_5:\n      tag_16\n      0x04\n      dup1\n      calldatasize\n      sub\n      dup2\n      add\n      swap1\n      tag_17\n      swap2\n      swap1\n      tag_18\n      jump\t// in\n    tag_17:\n      tag_19\n      jump\t// in\n    tag_16:\n      mload(0x40)\n      tag_20\n      swap2\n      swap1\n      tag_11\n      jump\t// in\n    tag_20:\n      mload(0x40)\n      dup1\n      swap2\n      sub\n      swap1\n      return\n        /* \"contracts/Rating.sol\":156:199  mapping(bytes32 => uint) public usersRating */\n    tag_9:\n      mstore(0x20, 0x00)\n      dup1\n      0x00\n      mstore\n      keccak256(0x00, 0x40)\n      0x00\n      swap2\n      pop\n      swap1\n      pop\n      sload\n      dup2\n      jump\t// out\n        /* \"contracts/Rating.sol\":292:511  function setRating(string memory pass, uint rating) public {... */\n    tag_15:\n        /* \"contracts/Rating.sol\":378:379  6 */\n      0x06\n        /* \"contracts/Rating.sol\":369:375  rating */\n      dup2\n        /* \"contracts/Rating.sol\":369:379  rating < 6 */\n      lt\n        /* \"contracts/Rating.sol\":361:416  require(rating < 6, \"Rating should be between 0 and 5\") */\n      tag_22\n      jumpi\n      mload(0x40)\n      0x08c379a000000000000000000000000000000000000000000000000000000000\n      dup2\n      mstore\n      0x04\n      add\n      tag_23\n      swap1\n      tag_24\n      jump\t// in\n    tag_23:\n      mload(0x40)\n      dup1\n      swap2\n      sub\n      swap1\n      revert\n    tag_22:\n        /* \"contracts/Rating.sol\":436:439  100 */\n      0x64\n        /* \"contracts/Rating.sol\":426:439  rating *= 100 */\n      dup2\n      tag_25\n      swap2\n      swap1\n      tag_26\n      jump\t// in\n    tag_25:\n      swap1\n      pop\n        /* \"contracts/Rating.sol\":498:504  rating */\n      dup1\n        /* \"contracts/Rating.sol\":449:460  usersRating */\n      0x00\n        /* \"contracts/Rating.sol\":449:495  usersRating[keccak256(abi.encodePacked(pass))] */\n      dup1\n        /* \"contracts/Rating.sol\":488:492  pass */\n      dup5\n        /* \"contracts/Rating.sol\":471:493  abi.encodePacked(pass) */\n      add(0x20, mload(0x40))\n      tag_27\n      swap2\n      swap1\n      tag_28\n      jump\t// in\n    tag_27:\n      mload(0x40)\n      0x20\n      dup2\n      dup4\n      sub\n      sub\n      dup2\n      mstore\n      swap1\n      0x40\n      mstore\n        /* \"contracts/Rating.sol\":461:494  keccak256(abi.encodePacked(pass)) */\n      dup1\n      mload\n      swap1\n      0x20\n      add\n      keccak256\n        /* \"contracts/Rating.sol\":449:495  usersRating[keccak256(abi.encodePacked(pass))] */\n      dup2\n      mstore\n      0x20\n      add\n      swap1\n      dup2\n      mstore\n      0x20\n      add\n      0x00\n      keccak256\n        /* \"contracts/Rating.sol\":449:504  usersRating[keccak256(abi.encodePacked(pass))] = rating */\n      dup2\n      swap1\n      sstore\n      pop\n        /* \"contracts/Rating.sol\":292:511  function setRating(string memory pass, uint rating) public {... */\n      pop\n      pop\n      jump\t// out\n        /* \"contracts/Rating.sol\":517:657  function getRating(string calldata _pass) public view returns (uint) {... */\n    tag_19:\n        /* \"contracts/Rating.sol\":580:584  uint */\n      0x00\n        /* \"contracts/Rating.sol\":603:614  usersRating */\n      dup1\n        /* \"contracts/Rating.sol\":603:650  usersRating[keccak256(abi.encodePacked(_pass))] */\n      0x00\n        /* \"contracts/Rating.sol\":642:647  _pass */\n      dup5\n      dup5\n        /* \"contracts/Rating.sol\":625:648  abi.encodePacked(_pass) */\n      add(0x20, mload(0x40))\n      tag_30\n      swap3\n      swap2\n      swap1\n      tag_31\n      jump\t// in\n    tag_30:\n      mload(0x40)\n      0x20\n      dup2\n      dup4\n      sub\n      sub\n      dup2\n      mstore\n      swap1\n      0x40\n      mstore\n        /* \"contracts/Rating.sol\":615:649  keccak256(abi.encodePacked(_pass)) */\n      dup1\n      mload\n      swap1\n      0x20\n      add\n      keccak256\n        /* \"contracts/Rating.sol\":603:650  usersRating[keccak256(abi.encodePacked(_pass))] */\n      dup2\n      mstore\n      0x20\n      add\n      swap1\n      dup2\n      mstore\n      0x20\n      add\n      0x00\n      keccak256\n      sload\n        /* \"contracts/Rating.sol\":596:650  return usersRating[keccak256(abi.encodePacked(_pass))] */\n      swap1\n      pop\n        /* \"contracts/Rating.sol\":517:657  function getRating(string calldata _pass) public view returns (uint) {... */\n      swap3\n      swap2\n      pop\n      pop\n      jump\t// out\n        /* \"#utility.yul\":7:82   */\n    tag_32:\n        /* \"#utility.yul\":40:46   */\n      0x00\n        /* \"#utility.yul\":73:75   */\n      0x40\n        /* \"#utility.yul\":67:76   */\n      mload\n        /* \"#utility.yul\":57:76   */\n      swap1\n      pop\n        /* \"#utility.yul\":7:82   */\n      swap1\n      jump\t// out\n        /* \"#utility.yul\":88:205   */\n    tag_33:\n        /* \"#utility.yul\":197:198   */\n      0x00\n        /* \"#utility.yul\":194:195   */\n      dup1\n        /* \"#utility.yul\":187:199   */\n      revert\n        /* \"#utility.yul\":211:328   */\n    tag_34:\n        /* \"#utility.yul\":320:321   */\n      0x00\n        /* \"#utility.yul\":317:318   */\n      dup1\n        /* \"#utility.yul\":310:322   */\n      revert\n        /* \"#utility.yul\":334:411   */\n    tag_35:\n        /* \"#utility.yul\":371:378   */\n      0x00\n        /* \"#utility.yul\":400:405   */\n      dup2\n        /* \"#utility.yul\":389:405   */\n      swap1\n      pop\n        /* \"#utility.yul\":334:411   */\n      swap2\n      swap1\n      pop\n      jump\t// out\n        /* \"#utility.yul\":417:539   */\n    tag_36:\n        /* \"#utility.yul\":490:514   */\n      tag_70\n        /* \"#utility.yul\":508:513   */\n      dup2\n        /* \"#utility.yul\":490:514   */\n      tag_35\n      jump\t// in\n    tag_70:\n        /* \"#utility.yul\":483:488   */\n      dup2\n        /* \"#utility.yul\":480:515   */\n      eq\n        /* \"#utility.yul\":470:533   */\n      tag_71\n      jumpi\n        /* \"#utility.yul\":529:530   */\n      0x00\n        /* \"#utility.yul\":526:527   */\n      dup1\n        /* \"#utility.yul\":519:531   */\n      revert\n        /* \"#utility.yul\":470:533   */\n    tag_71:\n        /* \"#utility.yul\":417:539   */\n      pop\n      jump\t// out\n        /* \"#utility.yul\":545:684   */\n    tag_37:\n        /* \"#utility.yul\":591:596   */\n      0x00\n        /* \"#utility.yul\":629:635   */\n      dup2\n        /* \"#utility.yul\":616:636   */\n      calldataload\n        /* \"#utility.yul\":607:636   */\n      swap1\n      pop\n        /* \"#utility.yul\":645:678   */\n      tag_73\n        /* \"#utility.yul\":672:677   */\n      dup2\n        /* \"#utility.yul\":645:678   */\n      tag_36\n      jump\t// in\n    tag_73:\n        /* \"#utility.yul\":545:684   */\n      swap3\n      swap2\n      pop\n      pop\n      jump\t// out\n        /* \"#utility.yul\":690:1019   */\n    tag_8:\n        /* \"#utility.yul\":749:755   */\n      0x00\n        /* \"#utility.yul\":798:800   */\n      0x20\n        /* \"#utility.yul\":786:795   */\n      dup3\n        /* \"#utility.yul\":777:784   */\n      dup5\n        /* \"#utility.yul\":773:796   */\n      sub\n        /* \"#utility.yul\":769:801   */\n      slt\n        /* \"#utility.yul\":766:885   */\n      iszero\n      tag_75\n      jumpi\n        /* \"#utility.yul\":804:883   */\n      tag_76\n      tag_33\n      jump\t// in\n    tag_76:\n        /* \"#utility.yul\":766:885   */\n    tag_75:\n        /* \"#utility.yul\":924:925   */\n      0x00\n        /* \"#utility.yul\":949:1002   */\n      tag_77\n        /* \"#utility.yul\":994:1001   */\n      dup5\n        /* \"#utility.yul\":985:991   */\n      dup3\n        /* \"#utility.yul\":974:983   */\n      dup6\n        /* \"#utility.yul\":970:992   */\n      add\n        /* \"#utility.yul\":949:1002   */\n      tag_37\n      jump\t// in\n    tag_77:\n        /* \"#utility.yul\":939:1002   */\n      swap2\n      pop\n        /* \"#utility.yul\":895:1012   */\n      pop\n        /* \"#utility.yul\":690:1019   */\n      swap3\n      swap2\n      pop\n      pop\n      jump\t// out\n        /* \"#utility.yul\":1025:1102   */\n    tag_38:\n        /* \"#utility.yul\":1062:1069   */\n      0x00\n        /* \"#utility.yul\":1091:1096   */\n      dup2\n        /* \"#utility.yul\":1080:1096   */\n      swap1\n      pop\n        /* \"#utility.yul\":1025:1102   */\n      swap2\n      swap1\n      pop\n      jump\t// out\n        /* \"#utility.yul\":1108:1226   */\n    tag_39:\n        /* \"#utility.yul\":1195:1219   */\n      tag_80\n        /* \"#utility.yul\":1213:1218   */\n      dup2\n        /* \"#utility.yul\":1195:1219   */\n      tag_38\n      jump\t// in\n    tag_80:\n        /* \"#utility.yul\":1190:1193   */\n      dup3\n        /* \"#utility.yul\":1183:1220   */\n      mstore\n        /* \"#utility.yul\":1108:1226   */\n      pop\n      pop\n      jump\t// out\n        /* \"#utility.yul\":1232:1454   */\n    tag_11:\n        /* \"#utility.yul\":1325:1329   */\n      0x00\n        /* \"#utility.yul\":1363:1365   */\n      0x20\n        /* \"#utility.yul\":1352:1361   */\n      dup3\n        /* \"#utility.yul\":1348:1366   */\n      add\n        /* \"#utility.yul\":1340:1366   */\n      swap1\n      pop\n        /* \"#utility.yul\":1376:1447   */\n      tag_82\n        /* \"#utility.yul\":1444:1445   */\n      0x00\n        /* \"#utility.yul\":1433:1442   */\n      dup4\n        /* \"#utility.yul\":1429:1446   */\n      add\n        /* \"#utility.yul\":1420:1426   */\n      dup5\n        /* \"#utility.yul\":1376:1447   */\n      tag_39\n      jump\t// in\n    tag_82:\n        /* \"#utility.yul\":1232:1454   */\n      swap3\n      swap2\n      pop\n      pop\n      jump\t// out\n        /* \"#utility.yul\":1460:1577   */\n    tag_40:\n        /* \"#utility.yul\":1569:1570   */\n      0x00\n        /* \"#utility.yul\":1566:1567   */\n      dup1\n        /* \"#utility.yul\":1559:1571   */\n      revert\n        /* \"#utility.yul\":1583:1700   */\n    tag_41:\n        /* \"#utility.yul\":1692:1693   */\n      0x00\n        /* \"#utility.yul\":1689:1690   */\n      dup1\n        /* \"#utility.yul\":1682:1694   */\n      revert\n        /* \"#utility.yul\":1706:1808   */\n    tag_42:\n        /* \"#utility.yul\":1747:1753   */\n      0x00\n        /* \"#utility.yul\":1798:1800   */\n      0x1f\n        /* \"#utility.yul\":1794:1801   */\n      not\n        /* \"#utility.yul\":1789:1791   */\n      0x1f\n        /* \"#utility.yul\":1782:1787   */\n      dup4\n        /* \"#utility.yul\":1778:1792   */\n      add\n        /* \"#utility.yul\":1774:1802   */\n      and\n        /* \"#utility.yul\":1764:1802   */\n      swap1\n      pop\n        /* \"#utility.yul\":1706:1808   */\n      swap2\n      swap1\n      pop\n      jump\t// out\n        /* \"#utility.yul\":1814:1994   */\n    tag_43:\n        /* \"#utility.yul\":1862:1939   */\n      0x4e487b7100000000000000000000000000000000000000000000000000000000\n        /* \"#utility.yul\":1859:1860   */\n      0x00\n        /* \"#utility.yul\":1852:1940   */\n      mstore\n        /* \"#utility.yul\":1959:1963   */\n      0x41\n        /* \"#utility.yul\":1956:1957   */\n      0x04\n        /* \"#utility.yul\":1949:1964   */\n      mstore\n        /* \"#utility.yul\":1983:1987   */\n      0x24\n        /* \"#utility.yul\":1980:1981   */\n      0x00\n        /* \"#utility.yul\":1973:1988   */\n      revert\n        /* \"#utility.yul\":2000:2281   */\n    tag_44:\n        /* \"#utility.yul\":2083:2110   */\n      tag_88\n        /* \"#utility.yul\":2105:2109   */\n      dup3\n        /* \"#utility.yul\":2083:2110   */\n      tag_42\n      jump\t// in\n    tag_88:\n        /* \"#utility.yul\":2075:2081   */\n      dup2\n        /* \"#utility.yul\":2071:2111   */\n      add\n        /* \"#utility.yul\":2213:2219   */\n      dup2\n        /* \"#utility.yul\":2201:2211   */\n      dup2\n        /* \"#utility.yul\":2198:2220   */\n      lt\n        /* \"#utility.yul\":2177:2195   */\n      0xffffffffffffffff\n        /* \"#utility.yul\":2165:2175   */\n      dup3\n        /* \"#utility.yul\":2162:2196   */\n      gt\n        /* \"#utility.yul\":2159:2221   */\n      or\n        /* \"#utility.yul\":2156:2244   */\n      iszero\n      tag_89\n      jumpi\n        /* \"#utility.yul\":2224:2242   */\n      tag_90\n      tag_43\n      jump\t// in\n    tag_90:\n        /* \"#utility.yul\":2156:2244   */\n    tag_89:\n        /* \"#utility.yul\":2264:2274   */\n      dup1\n        /* \"#utility.yul\":2260:2262   */\n      0x40\n        /* \"#utility.yul\":2253:2275   */\n      mstore\n        /* \"#utility.yul\":2043:2281   */\n      pop\n        /* \"#utility.yul\":2000:2281   */\n      pop\n      pop\n      jump\t// out\n        /* \"#utility.yul\":2287:2416   */\n    tag_45:\n        /* \"#utility.yul\":2321:2327   */\n      0x00\n        /* \"#utility.yul\":2348:2368   */\n      tag_92\n      tag_32\n      jump\t// in\n    tag_92:\n        /* \"#utility.yul\":2338:2368   */\n      swap1\n      pop\n        /* \"#utility.yul\":2377:2410   */\n      tag_93\n        /* \"#utility.yul\":2405:2409   */\n      dup3\n        /* \"#utility.yul\":2397:2403   */\n      dup3\n        /* \"#utility.yul\":2377:2410   */\n      tag_44\n      jump\t// in\n    tag_93:\n        /* \"#utility.yul\":2287:2416   */\n      swap2\n      swap1\n      pop\n      jump\t// out\n        /* \"#utility.yul\":2422:2730   */\n    tag_46:\n        /* \"#utility.yul\":2484:2488   */\n      0x00\n        /* \"#utility.yul\":2574:2592   */\n      0xffffffffffffffff\n        /* \"#utility.yul\":2566:2572   */\n      dup3\n        /* \"#utility.yul\":2563:2593   */\n      gt\n        /* \"#utility.yul\":2560:2616   */\n      iszero\n      tag_95\n      jumpi\n        /* \"#utility.yul\":2596:2614   */\n      tag_96\n      tag_43\n      jump\t// in\n    tag_96:\n        /* \"#utility.yul\":2560:2616   */\n    tag_95:\n        /* \"#utility.yul\":2634:2663   */\n      tag_97\n        /* \"#utility.yul\":2656:2662   */\n      dup3\n        /* \"#utility.yul\":2634:2663   */\n      tag_42\n      jump\t// in\n    tag_97:\n        /* \"#utility.yul\":2626:2663   */\n      swap1\n      pop\n        /* \"#utility.yul\":2718:2722   */\n      0x20\n        /* \"#utility.yul\":2712:2716   */\n      dup2\n        /* \"#utility.yul\":2708:2723   */\n      add\n        /* \"#utility.yul\":2700:2723   */\n      swap1\n      pop\n        /* \"#utility.yul\":2422:2730   */\n      swap2\n      swap1\n      pop\n      jump\t// out\n        /* \"#utility.yul\":2736:2882   */\n    tag_47:\n        /* \"#utility.yul\":2833:2839   */\n      dup3\n        /* \"#utility.yul\":2828:2831   */\n      dup2\n        /* \"#utility.yul\":2823:2826   */\n      dup4\n        /* \"#utility.yul\":2810:2840   */\n      calldatacopy\n        /* \"#utility.yul\":2874:2875   */\n      0x00\n        /* \"#utility.yul\":2865:2871   */\n      dup4\n        /* \"#utility.yul\":2860:2863   */\n      dup4\n        /* \"#utility.yul\":2856:2872   */\n      add\n        /* \"#utility.yul\":2849:2876   */\n      mstore\n        /* \"#utility.yul\":2736:2882   */\n      pop\n      pop\n      pop\n      jump\t// out\n        /* \"#utility.yul\":2888:3313   */\n    tag_48:\n        /* \"#utility.yul\":2966:2971   */\n      0x00\n        /* \"#utility.yul\":2991:3057   */\n      tag_100\n        /* \"#utility.yul\":3007:3056   */\n      tag_101\n        /* \"#utility.yul\":3049:3055   */\n      dup5\n        /* \"#utility.yul\":3007:3056   */\n      tag_46\n      jump\t// in\n    tag_101:\n        /* \"#utility.yul\":2991:3057   */\n      tag_45\n      jump\t// in\n    tag_100:\n        /* \"#utility.yul\":2982:3057   */\n      swap1\n      pop\n        /* \"#utility.yul\":3080:3086   */\n      dup3\n        /* \"#utility.yul\":3073:3078   */\n      dup2\n        /* \"#utility.yul\":3066:3087   */\n      mstore\n        /* \"#utility.yul\":3118:3122   */\n      0x20\n        /* \"#utility.yul\":3111:3116   */\n      dup2\n        /* \"#utility.yul\":3107:3123   */\n      add\n        /* \"#utility.yul\":3156:3159   */\n      dup5\n        /* \"#utility.yul\":3147:3153   */\n      dup5\n        /* \"#utility.yul\":3142:3145   */\n      dup5\n        /* \"#utility.yul\":3138:3154   */\n      add\n        /* \"#utility.yul\":3135:3160   */\n      gt\n        /* \"#utility.yul\":3132:3244   */\n      iszero\n      tag_102\n      jumpi\n        /* \"#utility.yul\":3163:3242   */\n      tag_103\n      tag_41\n      jump\t// in\n    tag_103:\n        /* \"#utility.yul\":3132:3244   */\n    tag_102:\n        /* \"#utility.yul\":3253:3307   */\n      tag_104\n        /* \"#utility.yul\":3300:3306   */\n      dup5\n        /* \"#utility.yul\":3295:3298   */\n      dup3\n        /* \"#utility.yul\":3290:3293   */\n      dup6\n        /* \"#utility.yul\":3253:3307   */\n      tag_47\n      jump\t// in\n    tag_104:\n        /* \"#utility.yul\":2972:3313   */\n      pop\n        /* \"#utility.yul\":2888:3313   */\n      swap4\n      swap3\n      pop\n      pop\n      pop\n      jump\t// out\n        /* \"#utility.yul\":3333:3673   */\n    tag_49:\n        /* \"#utility.yul\":3389:3394   */\n      0x00\n        /* \"#utility.yul\":3438:3441   */\n      dup3\n        /* \"#utility.yul\":3431:3435   */\n      0x1f\n        /* \"#utility.yul\":3423:3429   */\n      dup4\n        /* \"#utility.yul\":3419:3436   */\n      add\n        /* \"#utility.yul\":3415:3442   */\n      slt\n        /* \"#utility.yul\":3405:3527   */\n      tag_106\n      jumpi\n        /* \"#utility.yul\":3446:3525   */\n      tag_107\n      tag_40\n      jump\t// in\n    tag_107:\n        /* \"#utility.yul\":3405:3527   */\n    tag_106:\n        /* \"#utility.yul\":3563:3569   */\n      dup2\n        /* \"#utility.yul\":3550:3570   */\n      calldataload\n        /* \"#utility.yul\":3588:3667   */\n      tag_108\n        /* \"#utility.yul\":3663:3666   */\n      dup5\n        /* \"#utility.yul\":3655:3661   */\n      dup3\n        /* \"#utility.yul\":3648:3652   */\n      0x20\n        /* \"#utility.yul\":3640:3646   */\n      dup7\n        /* \"#utility.yul\":3636:3653   */\n      add\n        /* \"#utility.yul\":3588:3667   */\n      tag_48\n      jump\t// in\n    tag_108:\n        /* \"#utility.yul\":3579:3667   */\n      swap2\n      pop\n        /* \"#utility.yul\":3395:3673   */\n      pop\n        /* \"#utility.yul\":3333:3673   */\n      swap3\n      swap2\n      pop\n      pop\n      jump\t// out\n        /* \"#utility.yul\":3679:3801   */\n    tag_50:\n        /* \"#utility.yul\":3752:3776   */\n      tag_110\n        /* \"#utility.yul\":3770:3775   */\n      dup2\n        /* \"#utility.yul\":3752:3776   */\n      tag_38\n      jump\t// in\n    tag_110:\n        /* \"#utility.yul\":3745:3750   */\n      dup2\n        /* \"#utility.yul\":3742:3777   */\n      eq\n        /* \"#utility.yul\":3732:3795   */\n      tag_111\n      jumpi\n        /* \"#utility.yul\":3791:3792   */\n      0x00\n        /* \"#utility.yul\":3788:3789   */\n      dup1\n        /* \"#utility.yul\":3781:3793   */\n      revert\n        /* \"#utility.yul\":3732:3795   */\n    tag_111:\n        /* \"#utility.yul\":3679:3801   */\n      pop\n      jump\t// out\n        /* \"#utility.yul\":3807:3946   */\n    tag_51:\n        /* \"#utility.yul\":3853:3858   */\n      0x00\n        /* \"#utility.yul\":3891:3897   */\n      dup2\n        /* \"#utility.yul\":3878:3898   */\n      calldataload\n        /* \"#utility.yul\":3869:3898   */\n      swap1\n      pop\n        /* \"#utility.yul\":3907:3940   */\n      tag_113\n        /* \"#utility.yul\":3934:3939   */\n      dup2\n        /* \"#utility.yul\":3907:3940   */\n      tag_50\n      jump\t// in\n    tag_113:\n        /* \"#utility.yul\":3807:3946   */\n      swap3\n      swap2\n      pop\n      pop\n      jump\t// out\n        /* \"#utility.yul\":3952:4606   */\n    tag_14:\n        /* \"#utility.yul\":4030:4036   */\n      0x00\n        /* \"#utility.yul\":4038:4044   */\n      dup1\n        /* \"#utility.yul\":4087:4089   */\n      0x40\n        /* \"#utility.yul\":4075:4084   */\n      dup4\n        /* \"#utility.yul\":4066:4073   */\n      dup6\n        /* \"#utility.yul\":4062:4085   */\n      sub\n        /* \"#utility.yul\":4058:4090   */\n      slt\n        /* \"#utility.yul\":4055:4174   */\n      iszero\n      tag_115\n      jumpi\n        /* \"#utility.yul\":4093:4172   */\n      tag_116\n      tag_33\n      jump\t// in\n    tag_116:\n        /* \"#utility.yul\":4055:4174   */\n    tag_115:\n        /* \"#utility.yul\":4241:4242   */\n      0x00\n        /* \"#utility.yul\":4230:4239   */\n      dup4\n        /* \"#utility.yul\":4226:4243   */\n      add\n        /* \"#utility.yul\":4213:4244   */\n      calldataload\n        /* \"#utility.yul\":4271:4289   */\n      0xffffffffffffffff\n        /* \"#utility.yul\":4263:4269   */\n      dup2\n        /* \"#utility.yul\":4260:4290   */\n      gt\n        /* \"#utility.yul\":4257:4374   */\n      iszero\n      tag_117\n      jumpi\n        /* \"#utility.yul\":4293:4372   */\n      tag_118\n      tag_34\n      jump\t// in\n    tag_118:\n        /* \"#utility.yul\":4257:4374   */\n    tag_117:\n        /* \"#utility.yul\":4398:4461   */\n      tag_119\n        /* \"#utility.yul\":4453:4460   */\n      dup6\n        /* \"#utility.yul\":4444:4450   */\n      dup3\n        /* \"#utility.yul\":4433:4442   */\n      dup7\n        /* \"#utility.yul\":4429:4451   */\n      add\n        /* \"#utility.yul\":4398:4461   */\n      tag_49\n      jump\t// in\n    tag_119:\n        /* \"#utility.yul\":4388:4461   */\n      swap3\n      pop\n        /* \"#utility.yul\":4184:4471   */\n      pop\n        /* \"#utility.yul\":4510:4512   */\n      0x20\n        /* \"#utility.yul\":4536:4589   */\n      tag_120\n        /* \"#utility.yul\":4581:4588   */\n      dup6\n        /* \"#utility.yul\":4572:4578   */\n      dup3\n        /* \"#utility.yul\":4561:4570   */\n      dup7\n        /* \"#utility.yul\":4557:4579   */\n      add\n        /* \"#utility.yul\":4536:4589   */\n      tag_51\n      jump\t// in\n    tag_120:\n        /* \"#utility.yul\":4526:4589   */\n      swap2\n      pop\n        /* \"#utility.yul\":4481:4599   */\n      pop\n        /* \"#utility.yul\":3952:4606   */\n      swap3\n      pop\n      swap3\n      swap1\n      pop\n      jump\t// out\n        /* \"#utility.yul\":4612:4729   */\n    tag_52:\n        /* \"#utility.yul\":4721:4722   */\n      0x00\n        /* \"#utility.yul\":4718:4719   */\n      dup1\n        /* \"#utility.yul\":4711:4723   */\n      revert\n        /* \"#utility.yul\":4735:4852   */\n    tag_53:\n        /* \"#utility.yul\":4844:4845   */\n      0x00\n        /* \"#utility.yul\":4841:4842   */\n      dup1\n        /* \"#utility.yul\":4834:4846   */\n      revert\n        /* \"#utility.yul\":4872:5425   */\n    tag_54:\n        /* \"#utility.yul\":4930:4938   */\n      0x00\n        /* \"#utility.yul\":4940:4946   */\n      dup1\n        /* \"#utility.yul\":4990:4993   */\n      dup4\n        /* \"#utility.yul\":4983:4987   */\n      0x1f\n        /* \"#utility.yul\":4975:4981   */\n      dup5\n        /* \"#utility.yul\":4971:4988   */\n      add\n        /* \"#utility.yul\":4967:4994   */\n      slt\n        /* \"#utility.yul\":4957:5079   */\n      tag_124\n      jumpi\n        /* \"#utility.yul\":4998:5077   */\n      tag_125\n      tag_40\n      jump\t// in\n    tag_125:\n        /* \"#utility.yul\":4957:5079   */\n    tag_124:\n        /* \"#utility.yul\":5111:5117   */\n      dup3\n        /* \"#utility.yul\":5098:5118   */\n      calldataload\n        /* \"#utility.yul\":5088:5118   */\n      swap1\n      pop\n        /* \"#utility.yul\":5141:5159   */\n      0xffffffffffffffff\n        /* \"#utility.yul\":5133:5139   */\n      dup2\n        /* \"#utility.yul\":5130:5160   */\n      gt\n        /* \"#utility.yul\":5127:5244   */\n      iszero\n      tag_126\n      jumpi\n        /* \"#utility.yul\":5163:5242   */\n      tag_127\n      tag_52\n      jump\t// in\n    tag_127:\n        /* \"#utility.yul\":5127:5244   */\n    tag_126:\n        /* \"#utility.yul\":5277:5281   */\n      0x20\n        /* \"#utility.yul\":5269:5275   */\n      dup4\n        /* \"#utility.yul\":5265:5282   */\n      add\n        /* \"#utility.yul\":5253:5282   */\n      swap2\n      pop\n        /* \"#utility.yul\":5331:5334   */\n      dup4\n        /* \"#utility.yul\":5323:5327   */\n      0x01\n        /* \"#utility.yul\":5315:5321   */\n      dup3\n        /* \"#utility.yul\":5311:5328   */\n      mul\n        /* \"#utility.yul\":5301:5309   */\n      dup4\n        /* \"#utility.yul\":5297:5329   */\n      add\n        /* \"#utility.yul\":5294:5335   */\n      gt\n        /* \"#utility.yul\":5291:5419   */\n      iszero\n      tag_128\n      jumpi\n        /* \"#utility.yul\":5338:5417   */\n      tag_129\n      tag_53\n      jump\t// in\n    tag_129:\n        /* \"#utility.yul\":5291:5419   */\n    tag_128:\n        /* \"#utility.yul\":4872:5425   */\n      swap3\n      pop\n      swap3\n      swap1\n      pop\n      jump\t// out\n        /* \"#utility.yul\":5431:5960   */\n    tag_18:\n        /* \"#utility.yul\":5502:5508   */\n      0x00\n        /* \"#utility.yul\":5510:5516   */\n      dup1\n        /* \"#utility.yul\":5559:5561   */\n      0x20\n        /* \"#utility.yul\":5547:5556   */\n      dup4\n        /* \"#utility.yul\":5538:5545   */\n      dup6\n        /* \"#utility.yul\":5534:5557   */\n      sub\n        /* \"#utility.yul\":5530:5562   */\n      slt\n        /* \"#utility.yul\":5527:5646   */\n      iszero\n      tag_131\n      jumpi\n        /* \"#utility.yul\":5565:5644   */\n      tag_132\n      tag_33\n      jump\t// in\n    tag_132:\n        /* \"#utility.yul\":5527:5646   */\n    tag_131:\n        /* \"#utility.yul\":5713:5714   */\n      0x00\n        /* \"#utility.yul\":5702:5711   */\n      dup4\n        /* \"#utility.yul\":5698:5715   */\n      add\n        /* \"#utility.yul\":5685:5716   */\n      calldataload\n        /* \"#utility.yul\":5743:5761   */\n      0xffffffffffffffff\n        /* \"#utility.yul\":5735:5741   */\n      dup2\n        /* \"#utility.yul\":5732:5762   */\n      gt\n        /* \"#utility.yul\":5729:5846   */\n      iszero\n      tag_133\n      jumpi\n        /* \"#utility.yul\":5765:5844   */\n      tag_134\n      tag_34\n      jump\t// in\n    tag_134:\n        /* \"#utility.yul\":5729:5846   */\n    tag_133:\n        /* \"#utility.yul\":5878:5943   */\n      tag_135\n        /* \"#utility.yul\":5935:5942   */\n      dup6\n        /* \"#utility.yul\":5926:5932   */\n      dup3\n        /* \"#utility.yul\":5915:5924   */\n      dup7\n        /* \"#utility.yul\":5911:5933   */\n      add\n        /* \"#utility.yul\":5878:5943   */\n      tag_54\n      jump\t// in\n    tag_135:\n        /* \"#utility.yul\":5860:5943   */\n      swap3\n      pop\n      swap3\n      pop\n        /* \"#utility.yul\":5656:5953   */\n      pop\n        /* \"#utility.yul\":5431:5960   */\n      swap3\n      pop\n      swap3\n      swap1\n      pop\n      jump\t// out\n        /* \"#utility.yul\":5966:6135   */\n    tag_55:\n        /* \"#utility.yul\":6050:6061   */\n      0x00\n        /* \"#utility.yul\":6084:6090   */\n      dup3\n        /* \"#utility.yul\":6079:6082   */\n      dup3\n        /* \"#utility.yul\":6072:6091   */\n      mstore\n        /* \"#utility.yul\":6124:6128   */\n      0x20\n        /* \"#utility.yul\":6119:6122   */\n      dup3\n        /* \"#utility.yul\":6115:6129   */\n      add\n        /* \"#utility.yul\":6100:6129   */\n      swap1\n      pop\n        /* \"#utility.yul\":5966:6135   */\n      swap3\n      swap2\n      pop\n      pop\n      jump\t// out\n        /* \"#utility.yul\":6141:6323   */\n    tag_56:\n        /* \"#utility.yul\":6281:6315   */\n      0x526174696e672073686f756c64206265206265747765656e203020616e642035\n        /* \"#utility.yul\":6277:6278   */\n      0x00\n        /* \"#utility.yul\":6269:6275   */\n      dup3\n        /* \"#utility.yul\":6265:6279   */\n      add\n        /* \"#utility.yul\":6258:6316   */\n      mstore\n        /* \"#utility.yul\":6141:6323   */\n      pop\n      jump\t// out\n        /* \"#utility.yul\":6329:6695   */\n    tag_57:\n        /* \"#utility.yul\":6471:6474   */\n      0x00\n        /* \"#utility.yul\":6492:6559   */\n      tag_139\n        /* \"#utility.yul\":6556:6558   */\n      0x20\n        /* \"#utility.yul\":6551:6554   */\n      dup4\n        /* \"#utility.yul\":6492:6559   */\n      tag_55\n      jump\t// in\n    tag_139:\n        /* \"#utility.yul\":6485:6559   */\n      swap2\n      pop\n        /* \"#utility.yul\":6568:6661   */\n      tag_140\n        /* \"#utility.yul\":6657:6660   */\n      dup3\n        /* \"#utility.yul\":6568:6661   */\n      tag_56\n      jump\t// in\n    tag_140:\n        /* \"#utility.yul\":6686:6688   */\n      0x20\n        /* \"#utility.yul\":6681:6684   */\n      dup3\n        /* \"#utility.yul\":6677:6689   */\n      add\n        /* \"#utility.yul\":6670:6689   */\n      swap1\n      pop\n        /* \"#utility.yul\":6329:6695   */\n      swap2\n      swap1\n      pop\n      jump\t// out\n        /* \"#utility.yul\":6701:7120   */\n    tag_24:\n        /* \"#utility.yul\":6867:6871   */\n      0x00\n        /* \"#utility.yul\":6905:6907   */\n      0x20\n        /* \"#utility.yul\":6894:6903   */\n      dup3\n        /* \"#utility.yul\":6890:6908   */\n      add\n        /* \"#utility.yul\":6882:6908   */\n      swap1\n      pop\n        /* \"#utility.yul\":6954:6963   */\n      dup2\n        /* \"#utility.yul\":6948:6952   */\n      dup2\n        /* \"#utility.yul\":6944:6964   */\n      sub\n        /* \"#utility.yul\":6940:6941   */\n      0x00\n        /* \"#utility.yul\":6929:6938   */\n      dup4\n        /* \"#utility.yul\":6925:6942   */\n      add\n        /* \"#utility.yul\":6918:6965   */\n      mstore\n        /* \"#utility.yul\":6982:7113   */\n      tag_142\n        /* \"#utility.yul\":7108:7112   */\n      dup2\n        /* \"#utility.yul\":6982:7113   */\n      tag_57\n      jump\t// in\n    tag_142:\n        /* \"#utility.yul\":6974:7113   */\n      swap1\n      pop\n        /* \"#utility.yul\":6701:7120   */\n      swap2\n      swap1\n      pop\n      jump\t// out\n        /* \"#utility.yul\":7126:7306   */\n    tag_58:\n        /* \"#utility.yul\":7174:7251   */\n      0x4e487b7100000000000000000000000000000000000000000000000000000000\n        /* \"#utility.yul\":7171:7172   */\n      0x00\n        /* \"#utility.yul\":7164:7252   */\n      mstore\n        /* \"#utility.yul\":7271:7275   */\n      0x11\n        /* \"#utility.yul\":7268:7269   */\n      0x04\n        /* \"#utility.yul\":7261:7276   */\n      mstore\n        /* \"#utility.yul\":7295:7299   */\n      0x24\n        /* \"#utility.yul\":7292:7293   */\n      0x00\n        /* \"#utility.yul\":7285:7300   */\n      revert\n        /* \"#utility.yul\":7312:7722   */\n    tag_26:\n        /* \"#utility.yul\":7352:7359   */\n      0x00\n        /* \"#utility.yul\":7375:7395   */\n      tag_145\n        /* \"#utility.yul\":7393:7394   */\n      dup3\n        /* \"#utility.yul\":7375:7395   */\n      tag_38\n      jump\t// in\n    tag_145:\n        /* \"#utility.yul\":7370:7395   */\n      swap2\n      pop\n        /* \"#utility.yul\":7409:7429   */\n      tag_146\n        /* \"#utility.yul\":7427:7428   */\n      dup4\n        /* \"#utility.yul\":7409:7429   */\n      tag_38\n      jump\t// in\n    tag_146:\n        /* \"#utility.yul\":7404:7429   */\n      swap3\n      pop\n        /* \"#utility.yul\":7464:7465   */\n      dup3\n        /* \"#utility.yul\":7461:7462   */\n      dup3\n        /* \"#utility.yul\":7457:7466   */\n      mul\n        /* \"#utility.yul\":7486:7516   */\n      tag_147\n        /* \"#utility.yul\":7504:7515   */\n      dup2\n        /* \"#utility.yul\":7486:7516   */\n      tag_38\n      jump\t// in\n    tag_147:\n        /* \"#utility.yul\":7475:7516   */\n      swap2\n      pop\n        /* \"#utility.yul\":7665:7666   */\n      dup3\n        /* \"#utility.yul\":7656:7663   */\n      dup3\n        /* \"#utility.yul\":7652:7667   */\n      div\n        /* \"#utility.yul\":7649:7650   */\n      dup5\n        /* \"#utility.yul\":7646:7668   */\n      eq\n        /* \"#utility.yul\":7626:7627   */\n      dup4\n        /* \"#utility.yul\":7619:7628   */\n      iszero\n        /* \"#utility.yul\":7599:7682   */\n      or\n        /* \"#utility.yul\":7576:7715   */\n      tag_148\n      jumpi\n        /* \"#utility.yul\":7695:7713   */\n      tag_149\n      tag_58\n      jump\t// in\n    tag_149:\n        /* \"#utility.yul\":7576:7715   */\n    tag_148:\n        /* \"#utility.yul\":7360:7722   */\n      pop\n        /* \"#utility.yul\":7312:7722   */\n      swap3\n      swap2\n      pop\n      pop\n      jump\t// out\n        /* \"#utility.yul\":7728:7827   */\n    tag_59:\n        /* \"#utility.yul\":7780:7786   */\n      0x00\n        /* \"#utility.yul\":7814:7819   */\n      dup2\n        /* \"#utility.yul\":7808:7820   */\n      mload\n        /* \"#utility.yul\":7798:7820   */\n      swap1\n      pop\n        /* \"#utility.yul\":7728:7827   */\n      swap2\n      swap1\n      pop\n      jump\t// out\n        /* \"#utility.yul\":7833:7981   */\n    tag_60:\n        /* \"#utility.yul\":7935:7946   */\n      0x00\n        /* \"#utility.yul\":7972:7975   */\n      dup2\n        /* \"#utility.yul\":7957:7975   */\n      swap1\n      pop\n        /* \"#utility.yul\":7833:7981   */\n      swap3\n      swap2\n      pop\n      pop\n      jump\t// out\n        /* \"#utility.yul\":7987:8233   */\n    tag_61:\n        /* \"#utility.yul\":8068:8069   */\n      0x00\n        /* \"#utility.yul\":8078:8191   */\n    tag_153:\n        /* \"#utility.yul\":8092:8098   */\n      dup4\n        /* \"#utility.yul\":8089:8090   */\n      dup2\n        /* \"#utility.yul\":8086:8099   */\n      lt\n        /* \"#utility.yul\":8078:8191   */\n      iszero\n      tag_155\n      jumpi\n        /* \"#utility.yul\":8177:8178   */\n      dup1\n        /* \"#utility.yul\":8172:8175   */\n      dup3\n        /* \"#utility.yul\":8168:8179   */\n      add\n        /* \"#utility.yul\":8162:8180   */\n      mload\n        /* \"#utility.yul\":8158:8159   */\n      dup2\n        /* \"#utility.yul\":8153:8156   */\n      dup5\n        /* \"#utility.yul\":8149:8160   */\n      add\n        /* \"#utility.yul\":8142:8181   */\n      mstore\n        /* \"#utility.yul\":8114:8116   */\n      0x20\n        /* \"#utility.yul\":8111:8112   */\n      dup2\n        /* \"#utility.yul\":8107:8117   */\n      add\n        /* \"#utility.yul\":8102:8117   */\n      swap1\n      pop\n        /* \"#utility.yul\":8078:8191   */\n      jump(tag_153)\n    tag_155:\n        /* \"#utility.yul\":8225:8226   */\n      0x00\n        /* \"#utility.yul\":8216:8222   */\n      dup5\n        /* \"#utility.yul\":8211:8214   */\n      dup5\n        /* \"#utility.yul\":8207:8223   */\n      add\n        /* \"#utility.yul\":8200:8227   */\n      mstore\n        /* \"#utility.yul\":8049:8233   */\n      pop\n        /* \"#utility.yul\":7987:8233   */\n      pop\n      pop\n      pop\n      jump\t// out\n        /* \"#utility.yul\":8239:8629   */\n    tag_62:\n        /* \"#utility.yul\":8345:8348   */\n      0x00\n        /* \"#utility.yul\":8373:8412   */\n      tag_157\n        /* \"#utility.yul\":8406:8411   */\n      dup3\n        /* \"#utility.yul\":8373:8412   */\n      tag_59\n      jump\t// in\n    tag_157:\n        /* \"#utility.yul\":8428:8517   */\n      tag_158\n        /* \"#utility.yul\":8510:8516   */\n      dup2\n        /* \"#utility.yul\":8505:8508   */\n      dup6\n        /* \"#utility.yul\":8428:8517   */\n      tag_60\n      jump\t// in\n    tag_158:\n        /* \"#utility.yul\":8421:8517   */\n      swap4\n      pop\n        /* \"#utility.yul\":8526:8591   */\n      tag_159\n        /* \"#utility.yul\":8584:8590   */\n      dup2\n        /* \"#utility.yul\":8579:8582   */\n      dup6\n        /* \"#utility.yul\":8572:8576   */\n      0x20\n        /* \"#utility.yul\":8565:8570   */\n      dup7\n        /* \"#utility.yul\":8561:8577   */\n      add\n        /* \"#utility.yul\":8526:8591   */\n      tag_61\n      jump\t// in\n    tag_159:\n        /* \"#utility.yul\":8616:8622   */\n      dup1\n        /* \"#utility.yul\":8611:8614   */\n      dup5\n        /* \"#utility.yul\":8607:8623   */\n      add\n        /* \"#utility.yul\":8600:8623   */\n      swap2\n      pop\n        /* \"#utility.yul\":8349:8629   */\n      pop\n        /* \"#utility.yul\":8239:8629   */\n      swap3\n      swap2\n      pop\n      pop\n      jump\t// out\n        /* \"#utility.yul\":8635:8910   */\n    tag_28:\n        /* \"#utility.yul\":8767:8770   */\n      0x00\n        /* \"#utility.yul\":8789:8884   */\n      tag_161\n        /* \"#utility.yul\":8880:8883   */\n      dup3\n        /* \"#utility.yul\":8871:8877   */\n      dup5\n        /* \"#utility.yul\":8789:8884   */\n      tag_62\n      jump\t// in\n    tag_161:\n        /* \"#utility.yul\":8782:8884   */\n      swap2\n      pop\n        /* \"#utility.yul\":8901:8904   */\n      dup2\n        /* \"#utility.yul\":8894:8904   */\n      swap1\n      pop\n        /* \"#utility.yul\":8635:8910   */\n      swap3\n      swap2\n      pop\n      pop\n      jump\t// out\n        /* \"#utility.yul\":8940:9270   */\n    tag_63:\n        /* \"#utility.yul\":9056:9059   */\n      0x00\n        /* \"#utility.yul\":9077:9166   */\n      tag_163\n        /* \"#utility.yul\":9159:9165   */\n      dup4\n        /* \"#utility.yul\":9154:9157   */\n      dup6\n        /* \"#utility.yul\":9077:9166   */\n      tag_60\n      jump\t// in\n    tag_163:\n        /* \"#utility.yul\":9070:9166   */\n      swap4\n      pop\n        /* \"#utility.yul\":9176:9232   */\n      tag_164\n        /* \"#utility.yul\":9225:9231   */\n      dup4\n        /* \"#utility.yul\":9220:9223   */\n      dup6\n        /* \"#utility.yul\":9213:9218   */\n      dup5\n        /* \"#utility.yul\":9176:9232   */\n      tag_47\n      jump\t// in\n    tag_164:\n        /* \"#utility.yul\":9257:9263   */\n      dup3\n        /* \"#utility.yul\":9252:9255   */\n      dup5\n        /* \"#utility.yul\":9248:9264   */\n      add\n        /* \"#utility.yul\":9241:9264   */\n      swap1\n      pop\n        /* \"#utility.yul\":8940:9270   */\n      swap4\n      swap3\n      pop\n      pop\n      pop\n      jump\t// out\n        /* \"#utility.yul\":9276:9571   */\n    tag_31:\n        /* \"#utility.yul\":9418:9421   */\n      0x00\n        /* \"#utility.yul\":9440:9545   */\n      tag_166\n        /* \"#utility.yul\":9541:9544   */\n      dup3\n        /* \"#utility.yul\":9532:9538   */\n      dup5\n        /* \"#utility.yul\":9524:9530   */\n      dup7\n        /* \"#utility.yul\":9440:9545   */\n      tag_63\n      jump\t// in\n    tag_166:\n        /* \"#utility.yul\":9433:9545   */\n      swap2\n      pop\n        /* \"#utility.yul\":9562:9565   */\n      dup2\n        /* \"#utility.yul\":9555:9565   */\n      swap1\n      pop\n        /* \"#utility.yul\":9276:9571   */\n      swap4\n      swap3\n      pop\n      pop\n      pop\n      jump\t// out\n\n    auxdata: 0xa2646970667358221220bb9759b1ff580a05a513c6c611f3c5ee3a53ed26a20d5d6f73e404c254f6bd8064736f6c63430008130033\n}\n",
				"bytecode": {
					"linkReferences": {},
					"object": "60806040526103e83411610048576040517f08c379a000000000000000000000000000000000000000000000000000000000815260040161003f906100aa565b60405180910390fd5b6100ca565b600082825260208201905092915050565b7f6675636b20796f75000000000000000000000000000000000000000000000000600082015250565b600061009460088361004d565b915061009f8261005e565b602082019050919050565b600060208201905081810360008301526100c381610087565b9050919050565b6106c2806100d96000396000f3fe608060405234801561001057600080fd5b50600436106100415760003560e01c8063441f0f8b146100465780636afcbea014610076578063f8326a5e14610092575b600080fd5b610060600480360381019061005b91906101fc565b6100c2565b60405161006d9190610242565b60405180910390f35b610090600480360381019061008b91906103cf565b6100da565b005b6100ac60048036038101906100a7919061048b565b61016d565b6040516100b99190610242565b60405180910390f35b60006020528060005260406000206000915090505481565b6006811061011d576040517f08c379a000000000000000000000000000000000000000000000000000000000815260040161011490610535565b60405180910390fd5b60648161012a9190610584565b905080600080846040516020016101419190610637565b604051602081830303815290604052805190602001208152602001908152602001600020819055505050565b60008060008484604051602001610185929190610673565b60405160208183030381529060405280519060200120815260200190815260200160002054905092915050565b6000604051905090565b600080fd5b600080fd5b6000819050919050565b6101d9816101c6565b81146101e457600080fd5b50565b6000813590506101f6816101d0565b92915050565b600060208284031215610212576102116101bc565b5b6000610220848285016101e7565b91505092915050565b6000819050919050565b61023c81610229565b82525050565b60006020820190506102576000830184610233565b92915050565b600080fd5b600080fd5b6000601f19601f8301169050919050565b7f4e487b7100000000000000000000000000000000000000000000000000000000600052604160045260246000fd5b6102b082610267565b810181811067ffffffffffffffff821117156102cf576102ce610278565b5b80604052505050565b60006102e26101b2565b90506102ee82826102a7565b919050565b600067ffffffffffffffff82111561030e5761030d610278565b5b61031782610267565b9050602081019050919050565b82818337600083830152505050565b6000610346610341846102f3565b6102d8565b90508281526020810184848401111561036257610361610262565b5b61036d848285610324565b509392505050565b600082601f83011261038a5761038961025d565b5b813561039a848260208601610333565b91505092915050565b6103ac81610229565b81146103b757600080fd5b50565b6000813590506103c9816103a3565b92915050565b600080604083850312156103e6576103e56101bc565b5b600083013567ffffffffffffffff811115610404576104036101c1565b5b61041085828601610375565b9250506020610421858286016103ba565b9150509250929050565b600080fd5b600080fd5b60008083601f84011261044b5761044a61025d565b5b8235905067ffffffffffffffff8111156104685761046761042b565b5b60208301915083600182028301111561048457610483610430565b5b9250929050565b600080602083850312156104a2576104a16101bc565b5b600083013567ffffffffffffffff8111156104c0576104bf6101c1565b5b6104cc85828601610435565b92509250509250929050565b600082825260208201905092915050565b7f526174696e672073686f756c64206265206265747765656e203020616e642035600082015250565b600061051f6020836104d8565b915061052a826104e9565b602082019050919050565b6000602082019050818103600083015261054e81610512565b9050919050565b7f4e487b7100000000000000000000000000000000000000000000000000000000600052601160045260246000fd5b600061058f82610229565b915061059a83610229565b92508282026105a881610229565b915082820484148315176105bf576105be610555565b5b5092915050565b600081519050919050565b600081905092915050565b60005b838110156105fa5780820151818401526020810190506105df565b60008484015250505050565b6000610611826105c6565b61061b81856105d1565b935061062b8185602086016105dc565b80840191505092915050565b60006106438284610606565b915081905092915050565b600061065a83856105d1565b9350610667838584610324565b82840190509392505050565b600061068082848661064e565b9150819050939250505056fea2646970667358221220bb9759b1ff580a05a513c6c611f3c5ee3a53ed26a20d5d6f73e404c254f6bd8064736f6c63430008130033",
					"opcodes": "PUSH1 0x80 PUSH1 0x40 MSTORE PUSH2 0x3E8 CALLVALUE GT PUSH2 0x48 JUMPI PUSH1 0x40 MLOAD PUSH32 0x8C379A000000000000000000000000000000000000000000000000000000000 DUP2 MSTORE PUSH1 0x4 ADD PUSH2 0x3F SWAP1 PUSH2 0xAA JUMP JUMPDEST PUSH1 0x40 MLOAD DUP1 SWAP2 SUB SWAP1 REVERT JUMPDEST PUSH2 0xCA JUMP JUMPDEST PUSH1 0x0 DUP3 DUP3 MSTORE PUSH1 0x20 DUP3 ADD SWAP1 POP SWAP3 SWAP2 POP POP JUMP JUMPDEST PUSH32 0x6675636B20796F75000000000000000000000000000000000000000000000000 PUSH1 0x0 DUP3 ADD MSTORE POP JUMP JUMPDEST PUSH1 0x0 PUSH2 0x94 PUSH1 0x8 DUP4 PUSH2 0x4D JUMP JUMPDEST SWAP2 POP PUSH2 0x9F DUP3 PUSH2 0x5E JUMP JUMPDEST PUSH1 0x20 DUP3 ADD SWAP1 POP SWAP2 SWAP1 POP JUMP JUMPDEST PUSH1 0x0 PUSH1 0x20 DUP3 ADD SWAP1 POP DUP2 DUP2 SUB PUSH1 0x0 DUP4 ADD MSTORE PUSH2 0xC3 DUP2 PUSH2 0x87 JUMP JUMPDEST SWAP1 POP SWAP2 SWAP1 POP JUMP JUMPDEST PUSH2 0x6C2 DUP1 PUSH2 0xD9 PUSH1 0x0 CODECOPY PUSH1 0x0 RETURN INVALID PUSH1 0x80 PUSH1 0x40 MSTORE CALLVALUE DUP1 ISZERO PUSH2 0x10 JUMPI PUSH1 0x0 DUP1 REVERT JUMPDEST POP PUSH1 0x4 CALLDATASIZE LT PUSH2 0x41 JUMPI PUSH1 0x0 CALLDATALOAD PUSH1 0xE0 SHR DUP1 PUSH4 0x441F0F8B EQ PUSH2 0x46 JUMPI DUP1 PUSH4 0x6AFCBEA0 EQ PUSH2 0x76 JUMPI DUP1 PUSH4 0xF8326A5E EQ PUSH2 0x92 JUMPI JUMPDEST PUSH1 0x0 DUP1 REVERT JUMPDEST PUSH2 0x60 PUSH1 0x4 DUP1 CALLDATASIZE SUB DUP2 ADD SWAP1 PUSH2 0x5B SWAP2 SWAP1 PUSH2 0x1FC JUMP JUMPDEST PUSH2 0xC2 JUMP JUMPDEST PUSH1 0x40 MLOAD PUSH2 0x6D SWAP2 SWAP1 PUSH2 0x242 JUMP JUMPDEST PUSH1 0x40 MLOAD DUP1 SWAP2 SUB SWAP1 RETURN JUMPDEST PUSH2 0x90 PUSH1 0x4 DUP1 CALLDATASIZE SUB DUP2 ADD SWAP1 PUSH2 0x8B SWAP2 SWAP1 PUSH2 0x3CF JUMP JUMPDEST PUSH2 0xDA JUMP JUMPDEST STOP JUMPDEST PUSH2 0xAC PUSH1 0x4 DUP1 CALLDATASIZE SUB DUP2 ADD SWAP1 PUSH2 0xA7 SWAP2 SWAP1 PUSH2 0x48B JUMP JUMPDEST PUSH2 0x16D JUMP JUMPDEST PUSH1 0x40 MLOAD PUSH2 0xB9 SWAP2 SWAP1 PUSH2 0x242 JUMP JUMPDEST PUSH1 0x40 MLOAD DUP1 SWAP2 SUB SWAP1 RETURN JUMPDEST PUSH1 0x0 PUSH1 0x20 MSTORE DUP1 PUSH1 0x0 MSTORE PUSH1 0x40 PUSH1 0x0 KECCAK256 PUSH1 0x0 SWAP2 POP SWAP1 POP SLOAD DUP2 JUMP JUMPDEST PUSH1 0x6 DUP2 LT PUSH2 0x11D JUMPI PUSH1 0x40 MLOAD PUSH32 0x8C379A000000000000000000000000000000000000000000000000000000000 DUP2 MSTORE PUSH1 0x4 ADD PUSH2 0x114 SWAP1 PUSH2 0x535 JUMP JUMPDEST PUSH1 0x40 MLOAD DUP1 SWAP2 SUB SWAP1 REVERT JUMPDEST PUSH1 0x64 DUP2 PUSH2 0x12A SWAP2 SWAP1 PUSH2 0x584 JUMP JUMPDEST SWAP1 POP DUP1 PUSH1 0x0 DUP1 DUP5 PUSH1 0x40 MLOAD PUSH1 0x20 ADD PUSH2 0x141 SWAP2 SWAP1 PUSH2 0x637 JUMP JUMPDEST PUSH1 0x40 MLOAD PUSH1 0x20 DUP2 DUP4 SUB SUB DUP2 MSTORE SWAP1 PUSH1 0x40 MSTORE DUP1 MLOAD SWAP1 PUSH1 0x20 ADD KECCAK256 DUP2 MSTORE PUSH1 0x20 ADD SWAP1 DUP2 MSTORE PUSH1 0x20 ADD PUSH1 0x0 KECCAK256 DUP2 SWAP1 SSTORE POP POP POP JUMP JUMPDEST PUSH1 0x0 DUP1 PUSH1 0x0 DUP5 DUP5 PUSH1 0x40 MLOAD PUSH1 0x20 ADD PUSH2 0x185 SWAP3 SWAP2 SWAP1 PUSH2 0x673 JUMP JUMPDEST PUSH1 0x40 MLOAD PUSH1 0x20 DUP2 DUP4 SUB SUB DUP2 MSTORE SWAP1 PUSH1 0x40 MSTORE DUP1 MLOAD SWAP1 PUSH1 0x20 ADD KECCAK256 DUP2 MSTORE PUSH1 0x20 ADD SWAP1 DUP2 MSTORE PUSH1 0x20 ADD PUSH1 0x0 KECCAK256 SLOAD SWAP1 POP SWAP3 SWAP2 POP POP JUMP JUMPDEST PUSH1 0x0 PUSH1 0x40 MLOAD SWAP1 POP SWAP1 JUMP JUMPDEST PUSH1 0x0 DUP1 REVERT JUMPDEST PUSH1 0x0 DUP1 REVERT JUMPDEST PUSH1 0x0 DUP2 SWAP1 POP SWAP2 SWAP1 POP JUMP JUMPDEST PUSH2 0x1D9 DUP2 PUSH2 0x1C6 JUMP JUMPDEST DUP2 EQ PUSH2 0x1E4 JUMPI PUSH1 0x0 DUP1 REVERT JUMPDEST POP JUMP JUMPDEST PUSH1 0x0 DUP2 CALLDATALOAD SWAP1 POP PUSH2 0x1F6 DUP2 PUSH2 0x1D0 JUMP JUMPDEST SWAP3 SWAP2 POP POP JUMP JUMPDEST PUSH1 0x0 PUSH1 0x20 DUP3 DUP5 SUB SLT ISZERO PUSH2 0x212 JUMPI PUSH2 0x211 PUSH2 0x1BC JUMP JUMPDEST JUMPDEST PUSH1 0x0 PUSH2 0x220 DUP5 DUP3 DUP6 ADD PUSH2 0x1E7 JUMP JUMPDEST SWAP2 POP POP SWAP3 SWAP2 POP POP JUMP JUMPDEST PUSH1 0x0 DUP2 SWAP1 POP SWAP2 SWAP1 POP JUMP JUMPDEST PUSH2 0x23C DUP2 PUSH2 0x229 JUMP JUMPDEST DUP3 MSTORE POP POP JUMP JUMPDEST PUSH1 0x0 PUSH1 0x20 DUP3 ADD SWAP1 POP PUSH2 0x257 PUSH1 0x0 DUP4 ADD DUP5 PUSH2 0x233 JUMP JUMPDEST SWAP3 SWAP2 POP POP JUMP JUMPDEST PUSH1 0x0 DUP1 REVERT JUMPDEST PUSH1 0x0 DUP1 REVERT JUMPDEST PUSH1 0x0 PUSH1 0x1F NOT PUSH1 0x1F DUP4 ADD AND SWAP1 POP SWAP2 SWAP1 POP JUMP JUMPDEST PUSH32 0x4E487B7100000000000000000000000000000000000000000000000000000000 PUSH1 0x0 MSTORE PUSH1 0x41 PUSH1 0x4 MSTORE PUSH1 0x24 PUSH1 0x0 REVERT JUMPDEST PUSH2 0x2B0 DUP3 PUSH2 0x267 JUMP JUMPDEST DUP2 ADD DUP2 DUP2 LT PUSH8 0xFFFFFFFFFFFFFFFF DUP3 GT OR ISZERO PUSH2 0x2CF JUMPI PUSH2 0x2CE PUSH2 0x278 JUMP JUMPDEST JUMPDEST DUP1 PUSH1 0x40 MSTORE POP POP POP JUMP JUMPDEST PUSH1 0x0 PUSH2 0x2E2 PUSH2 0x1B2 JUMP JUMPDEST SWAP1 POP PUSH2 0x2EE DUP3 DUP3 PUSH2 0x2A7 JUMP JUMPDEST SWAP2 SWAP1 POP JUMP JUMPDEST PUSH1 0x0 PUSH8 0xFFFFFFFFFFFFFFFF DUP3 GT ISZERO PUSH2 0x30E JUMPI PUSH2 0x30D PUSH2 0x278 JUMP JUMPDEST JUMPDEST PUSH2 0x317 DUP3 PUSH2 0x267 JUMP JUMPDEST SWAP1 POP PUSH1 0x20 DUP2 ADD SWAP1 POP SWAP2 SWAP1 POP JUMP JUMPDEST DUP3 DUP2 DUP4 CALLDATACOPY PUSH1 0x0 DUP4 DUP4 ADD MSTORE POP POP POP JUMP JUMPDEST PUSH1 0x0 PUSH2 0x346 PUSH2 0x341 DUP5 PUSH2 0x2F3 JUMP JUMPDEST PUSH2 0x2D8 JUMP JUMPDEST SWAP1 POP DUP3 DUP2 MSTORE PUSH1 0x20 DUP2 ADD DUP5 DUP5 DUP5 ADD GT ISZERO PUSH2 0x362 JUMPI PUSH2 0x361 PUSH2 0x262 JUMP JUMPDEST JUMPDEST PUSH2 0x36D DUP5 DUP3 DUP6 PUSH2 0x324 JUMP JUMPDEST POP SWAP4 SWAP3 POP POP POP JUMP JUMPDEST PUSH1 0x0 DUP3 PUSH1 0x1F DUP4 ADD SLT PUSH2 0x38A JUMPI PUSH2 0x389 PUSH2 0x25D JUMP JUMPDEST JUMPDEST DUP2 CALLDATALOAD PUSH2 0x39A DUP5 DUP3 PUSH1 0x20 DUP7 ADD PUSH2 0x333 JUMP JUMPDEST SWAP2 POP POP SWAP3 SWAP2 POP POP JUMP JUMPDEST PUSH2 0x3AC DUP2 PUSH2 0x229 JUMP JUMPDEST DUP2 EQ PUSH2 0x3B7 JUMPI PUSH1 0x0 DUP1 REVERT JUMPDEST POP JUMP JUMPDEST PUSH1 0x0 DUP2 CALLDATALOAD SWAP1 POP PUSH2 0x3C9 DUP2 PUSH2 0x3A3 JUMP JUMPDEST SWAP3 SWAP2 POP POP JUMP JUMPDEST PUSH1 0x0 DUP1 PUSH1 0x40 DUP4 DUP6 SUB SLT ISZERO PUSH2 0x3E6 JUMPI PUSH2 0x3E5 PUSH2 0x1BC JUMP JUMPDEST JUMPDEST PUSH1 0x0 DUP4 ADD CALLDATALOAD PUSH8 0xFFFFFFFFFFFFFFFF DUP2 GT ISZERO PUSH2 0x404 JUMPI PUSH2 0x403 PUSH2 0x1C1 JUMP JUMPDEST JUMPDEST PUSH2 0x410 DUP6 DUP3 DUP7 ADD PUSH2 0x375 JUMP JUMPDEST SWAP3 POP POP PUSH1 0x20 PUSH2 0x421 DUP6 DUP3 DUP7 ADD PUSH2 0x3BA JUMP JUMPDEST SWAP2 POP POP SWAP3 POP SWAP3 SWAP1 POP JUMP JUMPDEST PUSH1 0x0 DUP1 REVERT JUMPDEST PUSH1 0x0 DUP1 REVERT JUMPDEST PUSH1 0x0 DUP1 DUP4 PUSH1 0x1F DUP5 ADD SLT PUSH2 0x44B JUMPI PUSH2 0x44A PUSH2 0x25D JUMP JUMPDEST JUMPDEST DUP3 CALLDATALOAD SWAP1 POP PUSH8 0xFFFFFFFFFFFFFFFF DUP2 GT ISZERO PUSH2 0x468 JUMPI PUSH2 0x467 PUSH2 0x42B JUMP JUMPDEST JUMPDEST PUSH1 0x20 DUP4 ADD SWAP2 POP DUP4 PUSH1 0x1 DUP3 MUL DUP4 ADD GT ISZERO PUSH2 0x484 JUMPI PUSH2 0x483 PUSH2 0x430 JUMP JUMPDEST JUMPDEST SWAP3 POP SWAP3 SWAP1 POP JUMP JUMPDEST PUSH1 0x0 DUP1 PUSH1 0x20 DUP4 DUP6 SUB SLT ISZERO PUSH2 0x4A2 JUMPI PUSH2 0x4A1 PUSH2 0x1BC JUMP JUMPDEST JUMPDEST PUSH1 0x0 DUP4 ADD CALLDATALOAD PUSH8 0xFFFFFFFFFFFFFFFF DUP2 GT ISZERO PUSH2 0x4C0 JUMPI PUSH2 0x4BF PUSH2 0x1C1 JUMP JUMPDEST JUMPDEST PUSH2 0x4CC DUP6 DUP3 DUP7 ADD PUSH2 0x435 JUMP JUMPDEST SWAP3 POP SWAP3 POP POP SWAP3 POP SWAP3 SWAP1 POP JUMP JUMPDEST PUSH1 0x0 DUP3 DUP3 MSTORE PUSH1 0x20 DUP3 ADD SWAP1 POP SWAP3 SWAP2 POP POP JUMP JUMPDEST PUSH32 0x526174696E672073686F756C64206265206265747765656E203020616E642035 PUSH1 0x0 DUP3 ADD MSTORE POP JUMP JUMPDEST PUSH1 0x0 PUSH2 0x51F PUSH1 0x20 DUP4 PUSH2 0x4D8 JUMP JUMPDEST SWAP2 POP PUSH2 0x52A DUP3 PUSH2 0x4E9 JUMP JUMPDEST PUSH1 0x20 DUP3 ADD SWAP1 POP SWAP2 SWAP1 POP JUMP JUMPDEST PUSH1 0x0 PUSH1 0x20 DUP3 ADD SWAP1 POP DUP2 DUP2 SUB PUSH1 0x0 DUP4 ADD MSTORE PUSH2 0x54E DUP2 PUSH2 0x512 JUMP JUMPDEST SWAP1 POP SWAP2 SWAP1 POP JUMP JUMPDEST PUSH32 0x4E487B7100000000000000000000000000000000000000000000000000000000 PUSH1 0x0 MSTORE PUSH1 0x11 PUSH1 0x4 MSTORE PUSH1 0x24 PUSH1 0x0 REVERT JUMPDEST PUSH1 0x0 PUSH2 0x58F DUP3 PUSH2 0x229 JUMP JUMPDEST SWAP2 POP PUSH2 0x59A DUP4 PUSH2 0x229 JUMP JUMPDEST SWAP3 POP DUP3 DUP3 MUL PUSH2 0x5A8 DUP2 PUSH2 0x229 JUMP JUMPDEST SWAP2 POP DUP3 DUP3 DIV DUP5 EQ DUP4 ISZERO OR PUSH2 0x5BF JUMPI PUSH2 0x5BE PUSH2 0x555 JUMP JUMPDEST JUMPDEST POP SWAP3 SWAP2 POP POP JUMP JUMPDEST PUSH1 0x0 DUP2 MLOAD SWAP1 POP SWAP2 SWAP1 POP JUMP JUMPDEST PUSH1 0x0 DUP2 SWAP1 POP SWAP3 SWAP2 POP POP JUMP JUMPDEST PUSH1 0x0 JUMPDEST DUP4 DUP2 LT ISZERO PUSH2 0x5FA JUMPI DUP1 DUP3 ADD MLOAD DUP2 DUP5 ADD MSTORE PUSH1 0x20 DUP2 ADD SWAP1 POP PUSH2 0x5DF JUMP JUMPDEST PUSH1 0x0 DUP5 DUP5 ADD MSTORE POP POP POP POP JUMP JUMPDEST PUSH1 0x0 PUSH2 0x611 DUP3 PUSH2 0x5C6 JUMP JUMPDEST PUSH2 0x61B DUP2 DUP6 PUSH2 0x5D1 JUMP JUMPDEST SWAP4 POP PUSH2 0x62B DUP2 DUP6 PUSH1 0x20 DUP7 ADD PUSH2 0x5DC JUMP JUMPDEST DUP1 DUP5 ADD SWAP2 POP POP SWAP3 SWAP2 POP POP JUMP JUMPDEST PUSH1 0x0 PUSH2 0x643 DUP3 DUP5 PUSH2 0x606 JUMP JUMPDEST SWAP2 POP DUP2 SWAP1 POP SWAP3 SWAP2 POP POP JUMP JUMPDEST PUSH1 0x0 PUSH2 0x65A DUP4 DUP6 PUSH2 0x5D1 JUMP JUMPDEST SWAP4 POP PUSH2 0x667 DUP4 DUP6 DUP5 PUSH2 0x324 JUMP JUMPDEST DUP3 DUP5 ADD SWAP1 POP SWAP4 SWAP3 POP POP POP JUMP JUMPDEST PUSH1 0x0 PUSH2 0x680 DUP3 DUP5 DUP7 PUSH2 0x64E JUMP JUMPDEST SWAP2 POP DUP2 SWAP1 POP SWAP4 SWAP3 POP POP POP JUMP INVALID LOG2 PUSH5 0x6970667358 0x22 SLT KECCAK256 0xBB SWAP8 MSIZE 0xB1 SELFDESTRUCT PC EXP SDIV 0xA5 SGT 0xC6 0xC6 GT RETURN 0xC5 0xEE GASPRICE MSTORE8 0xED 0x26 LOG2 0xD 0x5D PUSH16 0x73E404C254F6BD8064736F6C63430008 SGT STOP CALLER "
				},
				"gasEstimates": {
					"creation": {
						"codeDepositCost": "346000",
						"executionCost": "396",
						"totalCost": "346396"
					},
					"external": {
						"getRating(string)": "infinite",
						"setRating(string,uint256)": "infinite",
						"usersRating(bytes32)": "2743"
					}
				},
				"methodIdentifiers": {
					"getRating(string)": "f8326a5e",
					"setRating(string,uint256)": "6afcbea0",
					"usersRating(bytes32)": "441f0f8b"
				}
			},
			"storageLayout": {
				"storage": [
					{
						"astId": 5,
						"contract": "contracts/Rating.sol:Rating",
						"label": "usersRating",
						"offset": 0,
						"slot": "0",
						"type": "t_mapping(t_bytes32,t_uint256)"
					}
				],
				"types": {
					"t_bytes32": {
						"encoding": "inplace",
						"label": "bytes32",
						"numberOfBytes": "32"
					},
					"t_mapping(t_bytes32,t_uint256)": {
						"encoding": "mapping",
						"key": "t_bytes32",
						"label": "mapping(bytes32 => uint256)",
						"numberOfBytes": "32",
						"value": "t_uint256"
					},
					"t_uint256": {
						"encoding": "inplace",
						"label": "uint256",
						"numberOfBytes": "32"
					}
				}
			},
			"userdoc": {
				"kind": "user",
				"methods": {},
				"version": 1
			}
		}
	}
}