{
  "_format": "hh-sol-artifact-1",
  "contractName": "Rating",
  "sourceName": "contracts/Rating.sol",
  "abi": [
    {
      "inputs": [
        {
          "internalType": "address",
          "name": "",
          "type": "address"
        }
      ],
      "name": "addressRating",
      "outputs": [
        {
          "internalType": "uint256",
          "name": "",
          "type": "uint256"
        }
      ],
      "stateMutability": "view",
      "type": "function"
    },
    {
      "inputs": [
        {
          "internalType": "address",
          "name": "_address",
          "type": "address"
        }
      ],
      "name": "getAddrRating",
      "outputs": [
        {
          "internalType": "uint256",
          "name": "rating",
          "type": "uint256"
        }
      ],
      "stateMutability": "view",
      "type": "function"
    },
    {
      "inputs": [
        {
          "internalType": "string",
          "name": "_pass",
          "type": "string"
        }
      ],
      "name": "getPassRating",
      "outputs": [
        {
          "internalType": "uint256",
          "name": "rating",
          "type": "uint256"
        }
      ],
      "stateMutability": "view",
      "type": "function"
    },
    {
      "inputs": [
        {
          "internalType": "bytes32",
          "name": "",
          "type": "bytes32"
        }
      ],
      "name": "passRating",
      "outputs": [
        {
          "internalType": "uint256",
          "name": "",
          "type": "uint256"
        }
      ],
      "stateMutability": "view",
      "type": "function"
    },
    {
      "inputs": [
        {
          "internalType": "string",
          "name": "pass",
          "type": "string"
        },
        {
          "internalType": "address",
          "name": "_address",
          "type": "address"
        },
        {
          "internalType": "uint256",
          "name": "rating",
          "type": "uint256"
        }
      ],
      "name": "setRating",
      "outputs": [],
      "stateMutability": "nonpayable",
      "type": "function"
    }
  ],
  "bytecode": "0x608060405234801561001057600080fd5b506107d7806100206000396000f3fe608060405234801561001057600080fd5b50600436106100575760003560e01c80630d4d74471461005c57806358ad86201461008c5780637b64510e146100bc578063ab80d1e5146100d8578063cd96112914610108575b600080fd5b61007660048036038101906100719190610425565b610138565b6040516100839190610487565b60405180910390f35b6100a660048036038101906100a19190610500565b61017a565b6040516100b39190610487565b60405180910390f35b6100d660048036038101906100d19190610559565b6101c3565b005b6100f260048036038101906100ed91906105fe565b61029b565b6040516100ff9190610487565b60405180910390f35b610122600480360381019061011d9190610500565b6102b3565b60405161012f9190610487565b60405180910390f35b60008060008360405160200161014e919061069c565b604051602081830303815290604052805190602001208152602001908152602001600020549050919050565b6000600160008373ffffffffffffffffffffffffffffffffffffffff1673ffffffffffffffffffffffffffffffffffffffff168152602001908152602001600020549050919050565b60068110610206576040517f08c379a00000000000000000000000000000000000000000000000000000000081526004016101fd90610710565b60405180910390fd5b606481610213919061075f565b9050806000808560405160200161022a919061069c565b6040516020818303038152906040528051906020012081526020019081526020016000208190555080600160008473ffffffffffffffffffffffffffffffffffffffff1673ffffffffffffffffffffffffffffffffffffffff16815260200190815260200160002081905550505050565b60006020528060005260406000206000915090505481565b60016020528060005260406000206000915090505481565b6000604051905090565b600080fd5b600080fd5b600080fd5b600080fd5b6000601f19601f8301169050919050565b7f4e487b7100000000000000000000000000000000000000000000000000000000600052604160045260246000fd5b610332826102e9565b810181811067ffffffffffffffff82111715610351576103506102fa565b5b80604052505050565b60006103646102cb565b90506103708282610329565b919050565b600067ffffffffffffffff8211156103905761038f6102fa565b5b610399826102e9565b9050602081019050919050565b82818337600083830152505050565b60006103c86103c384610375565b61035a565b9050828152602081018484840111156103e4576103e36102e4565b5b6103ef8482856103a6565b509392505050565b600082601f83011261040c5761040b6102df565b5b813561041c8482602086016103b5565b91505092915050565b60006020828403121561043b5761043a6102d5565b5b600082013567ffffffffffffffff811115610459576104586102da565b5b610465848285016103f7565b91505092915050565b6000819050919050565b6104818161046e565b82525050565b600060208201905061049c6000830184610478565b92915050565b600073ffffffffffffffffffffffffffffffffffffffff82169050919050565b60006104cd826104a2565b9050919050565b6104dd816104c2565b81146104e857600080fd5b50565b6000813590506104fa816104d4565b92915050565b600060208284031215610516576105156102d5565b5b6000610524848285016104eb565b91505092915050565b6105368161046e565b811461054157600080fd5b50565b6000813590506105538161052d565b92915050565b600080600060608486031215610572576105716102d5565b5b600084013567ffffffffffffffff8111156105905761058f6102da565b5b61059c868287016103f7565b93505060206105ad868287016104eb565b92505060406105be86828701610544565b9150509250925092565b6000819050919050565b6105db816105c8565b81146105e657600080fd5b50565b6000813590506105f8816105d2565b92915050565b600060208284031215610614576106136102d5565b5b6000610622848285016105e9565b91505092915050565b600081519050919050565b600081905092915050565b60005b8381101561065f578082015181840152602081019050610644565b60008484015250505050565b60006106768261062b565b6106808185610636565b9350610690818560208601610641565b80840191505092915050565b60006106a8828461066b565b915081905092915050565b600082825260208201905092915050565b7f526174696e672073686f756c64206265206265747765656e203020616e642035600082015250565b60006106fa6020836106b3565b9150610705826106c4565b602082019050919050565b60006020820190508181036000830152610729816106ed565b9050919050565b7f4e487b7100000000000000000000000000000000000000000000000000000000600052601160045260246000fd5b600061076a8261046e565b91506107758361046e565b92508282026107838161046e565b9150828204841483151761079a57610799610730565b5b509291505056fea264697066735822122010493a46cf88dc7a9f90e24344185a40b6e008d9e6cf8de1bc07fe08e67d48f464736f6c63430008130033",
  "linkReferences": {},
  "deployedLinkReferences": {}
}