{
  "_format": "hh-sol-artifact-1",
  "contractName": "Mapping",
  "sourceName": "contracts/Mapping.sol",
  "abi": [
    {
      "inputs": [
        {
          "internalType": "address",
          "name": "",
          "type": "address"
        }
      ],
      "name": "addrToPass",
      "outputs": [
        {
          "internalType": "bytes32",
          "name": "",
          "type": "bytes32"
        }
      ],
      "stateMutability": "view",
      "type": "function"
    },
    {
      "inputs": [
        {
          "internalType": "string",
          "name": "_pass",
          "type": "string"
        }
      ],
      "name": "getAddressByPass",
      "outputs": [
        {
          "internalType": "address",
          "name": "_address",
          "type": "address"
        }
      ],
      "stateMutability": "view",
      "type": "function"
    },
    {
      "inputs": [
        {
          "internalType": "address",
          "name": "_address",
          "type": "address"
        }
      ],
      "name": "getPassByAddress",
      "outputs": [
        {
          "internalType": "bytes32",
          "name": "_pass",
          "type": "bytes32"
        }
      ],
      "stateMutability": "view",
      "type": "function"
    },
    {
      "inputs": [
        {
          "internalType": "bytes32",
          "name": "",
          "type": "bytes32"
        }
      ],
      "name": "passToAddr",
      "outputs": [
        {
          "internalType": "address",
          "name": "",
          "type": "address"
        }
      ],
      "stateMutability": "view",
      "type": "function"
    },
    {
      "inputs": [
        {
          "internalType": "string",
          "name": "_pass",
          "type": "string"
        }
      ],
      "name": "saveHashPair",
      "outputs": [],
      "stateMutability": "nonpayable",
      "type": "function"
    }
  ],
  "bytecode": "0x608060405234801561001057600080fd5b506107a5806100206000396000f3fe608060405234801561001057600080fd5b50600436106100575760003560e01c8063058889991461005c57806308784db21461008c5780636069910e146100bc578063c61084ba146100ec578063c90791a614610108575b600080fd5b61007660048036038101906100719190610361565b610138565b60405161008391906103cf565b60405180910390f35b6100a660048036038101906100a19190610416565b61016b565b6040516100b39190610452565b60405180910390f35b6100d660048036038101906100d19190610416565b6101b4565b6040516100e39190610452565b60405180910390f35b610106600480360381019061010191906104d2565b6101cc565b005b610122600480360381019061011d9190610660565b6102b5565b60405161012f91906103cf565b60405180910390f35b60006020528060005260406000206000915054906101000a900473ffffffffffffffffffffffffffffffffffffffff1681565b6000600160008373ffffffffffffffffffffffffffffffffffffffff1673ffffffffffffffffffffffffffffffffffffffff168152602001908152602001600020549050919050565b60016020528060005260406000206000915090505481565b3360008084846040516020016101e39291906106d9565b60405160208183030381529060405280519060200120815260200190815260200160002060006101000a81548173ffffffffffffffffffffffffffffffffffffffff021916908373ffffffffffffffffffffffffffffffffffffffff16021790555081816040516020016102589291906106d9565b60405160208183030381529060405280519060200120600160003373ffffffffffffffffffffffffffffffffffffffff1673ffffffffffffffffffffffffffffffffffffffff168152602001908152602001600020819055505050565b6000806000836040516020016102cb9190610758565b60405160208183030381529060405280519060200120815260200190815260200160002060009054906101000a900473ffffffffffffffffffffffffffffffffffffffff169050919050565b6000604051905090565b600080fd5b600080fd5b6000819050919050565b61033e8161032b565b811461034957600080fd5b50565b60008135905061035b81610335565b92915050565b60006020828403121561037757610376610321565b5b60006103858482850161034c565b91505092915050565b600073ffffffffffffffffffffffffffffffffffffffff82169050919050565b60006103b98261038e565b9050919050565b6103c9816103ae565b82525050565b60006020820190506103e460008301846103c0565b92915050565b6103f3816103ae565b81146103fe57600080fd5b50565b600081359050610410816103ea565b92915050565b60006020828403121561042c5761042b610321565b5b600061043a84828501610401565b91505092915050565b61044c8161032b565b82525050565b60006020820190506104676000830184610443565b92915050565b600080fd5b600080fd5b600080fd5b60008083601f8401126104925761049161046d565b5b8235905067ffffffffffffffff8111156104af576104ae610472565b5b6020830191508360018202830111156104cb576104ca610477565b5b9250929050565b600080602083850312156104e9576104e8610321565b5b600083013567ffffffffffffffff81111561050757610506610326565b5b6105138582860161047c565b92509250509250929050565b600080fd5b6000601f19601f8301169050919050565b7f4e487b7100000000000000000000000000000000000000000000000000000000600052604160045260246000fd5b61056d82610524565b810181811067ffffffffffffffff8211171561058c5761058b610535565b5b80604052505050565b600061059f610317565b90506105ab8282610564565b919050565b600067ffffffffffffffff8211156105cb576105ca610535565b5b6105d482610524565b9050602081019050919050565b82818337600083830152505050565b60006106036105fe846105b0565b610595565b90508281526020810184848401111561061f5761061e61051f565b5b61062a8482856105e1565b509392505050565b600082601f8301126106475761064661046d565b5b81356106578482602086016105f0565b91505092915050565b60006020828403121561067657610675610321565b5b600082013567ffffffffffffffff81111561069457610693610326565b5b6106a084828501610632565b91505092915050565b600081905092915050565b60006106c083856106a9565b93506106cd8385846105e1565b82840190509392505050565b60006106e68284866106b4565b91508190509392505050565b600081519050919050565b60005b8381101561071b578082015181840152602081019050610700565b60008484015250505050565b6000610732826106f2565b61073c81856106a9565b935061074c8185602086016106fd565b80840191505092915050565b60006107648284610727565b91508190509291505056fea2646970667358221220e1ef75eecfa192e5ec1a3c0490d1008a436597e76a217532afbbd1f4df64507764736f6c63430008130033",
  "linkReferences": {},
  "deployedLinkReferences": {}
}