{
  "_format": "hh-sol-artifact-1",
  "contractName": "Credit",
  "sourceName": "contracts/Credit.sol",
  "abi": [
    {
      "anonymous": false,
      "inputs": [
        {
          "indexed": false,
          "internalType": "uint256",
          "name": "loanId",
          "type": "uint256"
        },
        {
          "indexed": false,
          "internalType": "uint256",
          "name": "amount",
          "type": "uint256"
        },
        {
          "indexed": false,
          "internalType": "uint256",
          "name": "interestRate",
          "type": "uint256"
        },
        {
          "indexed": false,
          "internalType": "uint256",
          "name": "durationInDays",
          "type": "uint256"
        },
        {
          "indexed": false,
          "internalType": "uint256",
          "name": "startTimestamp",
          "type": "uint256"
        },
        {
          "indexed": false,
          "internalType": "address",
          "name": "borrower",
          "type": "address"
        }
      ],
      "name": "NewLoan",
      "type": "event"
    },
    {
      "anonymous": false,
      "inputs": [
        {
          "indexed": true,
          "internalType": "address",
          "name": "previousOwner",
          "type": "address"
        },
        {
          "indexed": true,
          "internalType": "address",
          "name": "newOwner",
          "type": "address"
        }
      ],
      "name": "OwnershipTransferred",
      "type": "event"
    },
    {
      "inputs": [
        {
          "internalType": "uint256",
          "name": "_amount",
          "type": "uint256"
        },
        {
          "internalType": "uint256",
          "name": "_interestRate",
          "type": "uint256"
        },
        {
          "internalType": "uint256",
          "name": "_durationInDays",
          "type": "uint256"
        }
      ],
      "name": "createLoan",
      "outputs": [],
      "stateMutability": "nonpayable",
      "type": "function"
    },
    {
      "inputs": [
        {
          "internalType": "uint256",
          "name": "_loanId",
          "type": "uint256"
        }
      ],
      "name": "getLoan",
      "outputs": [
        {
          "components": [
            {
              "internalType": "uint256",
              "name": "amount",
              "type": "uint256"
            },
            {
              "internalType": "uint256",
              "name": "interestRate",
              "type": "uint256"
            },
            {
              "internalType": "uint256",
              "name": "durationInDays",
              "type": "uint256"
            },
            {
              "internalType": "uint256",
              "name": "startTimestamp",
              "type": "uint256"
            },
            {
              "internalType": "bool",
              "name": "paidBack",
              "type": "bool"
            },
            {
              "internalType": "address",
              "name": "borrower",
              "type": "address"
            }
          ],
          "internalType": "struct Credit.Loan",
          "name": "loan",
          "type": "tuple"
        }
      ],
      "stateMutability": "view",
      "type": "function"
    },
    {
      "inputs": [
        {
          "internalType": "uint256",
          "name": "",
          "type": "uint256"
        }
      ],
      "name": "loans",
      "outputs": [
        {
          "internalType": "uint256",
          "name": "amount",
          "type": "uint256"
        },
        {
          "internalType": "uint256",
          "name": "interestRate",
          "type": "uint256"
        },
        {
          "internalType": "uint256",
          "name": "durationInDays",
          "type": "uint256"
        },
        {
          "internalType": "uint256",
          "name": "startTimestamp",
          "type": "uint256"
        },
        {
          "internalType": "bool",
          "name": "paidBack",
          "type": "bool"
        },
        {
          "internalType": "address",
          "name": "borrower",
          "type": "address"
        }
      ],
      "stateMutability": "view",
      "type": "function"
    },
    {
      "inputs": [],
      "name": "owner",
      "outputs": [
        {
          "internalType": "address",
          "name": "",
          "type": "address"
        }
      ],
      "stateMutability": "view",
      "type": "function"
    },
    {
      "inputs": [
        {
          "internalType": "uint256",
          "name": "_loanId",
          "type": "uint256"
        }
      ],
      "name": "payBackLoan",
      "outputs": [],
      "stateMutability": "payable",
      "type": "function"
    },
    {
      "inputs": [],
      "name": "renounceOwnership",
      "outputs": [],
      "stateMutability": "nonpayable",
      "type": "function"
    },
    {
      "inputs": [],
      "name": "totalLoans",
      "outputs": [
        {
          "internalType": "uint256",
          "name": "",
          "type": "uint256"
        }
      ],
      "stateMutability": "view",
      "type": "function"
    },
    {
      "inputs": [
        {
          "internalType": "address",
          "name": "newOwner",
          "type": "address"
        }
      ],
      "name": "transferOwnership",
      "outputs": [],
      "stateMutability": "nonpayable",
      "type": "function"
    }
  ],
  "bytecode": "0x608060405273416cda3814691968a05fc620c338069b74abca3e600160006101000a81548173ffffffffffffffffffffffffffffffffffffffff021916908373ffffffffffffffffffffffffffffffffffffffff16021790555034801561006557600080fd5b5061008261007761008760201b60201c565b61008f60201b60201c565b610153565b600033905090565b60008060009054906101000a900473ffffffffffffffffffffffffffffffffffffffff169050816000806101000a81548173ffffffffffffffffffffffffffffffffffffffff021916908373ffffffffffffffffffffffffffffffffffffffff1602179055508173ffffffffffffffffffffffffffffffffffffffff168173ffffffffffffffffffffffffffffffffffffffff167f8be0079c531659141344cd1fd0a4f28419497f9722a3daafe3b4186f6b6457e060405160405180910390a35050565b611536806101626000396000f3fe60806040526004361061007b5760003560e01c8063904b513b1161004e578063904b513b1461011b578063cc952b5714610144578063e1ec3c681461016f578063f2fde38b146101b15761007b565b8063504006ca146100805780636faa8b3f146100bd578063715018a6146100d95780638da5cb5b146100f0575b600080fd5b34801561008c57600080fd5b506100a760048036038101906100a29190610b5c565b6101da565b6040516100b49190610c6f565b60405180910390f35b6100d760048036038101906100d29190610b5c565b6102a0565b005b3480156100e557600080fd5b506100ee61057f565b005b3480156100fc57600080fd5b50610105610593565b6040516101129190610c99565b60405180910390f35b34801561012757600080fd5b50610142600480360381019061013d9190610cb4565b6105bc565b005b34801561015057600080fd5b506101596107d2565b6040516101669190610d16565b60405180910390f35b34801561017b57600080fd5b5061019660048036038101906101919190610b5c565b6107d8565b6040516101a896959493929190610d40565b60405180910390f35b3480156101bd57600080fd5b506101d860048036038101906101d39190610dcd565b610841565b005b6101e2610ad3565b600360008381526020019081526020016000206040518060c0016040529081600082015481526020016001820154815260200160028201548152602001600382015481526020016004820160009054906101000a900460ff161515151581526020016004820160019054906101000a900473ffffffffffffffffffffffffffffffffffffffff1673ffffffffffffffffffffffffffffffffffffffff1673ffffffffffffffffffffffffffffffffffffffff16815250509050919050565b60006003600083815260200190815260200160002090508060040160019054906101000a900473ffffffffffffffffffffffffffffffffffffffff1673ffffffffffffffffffffffffffffffffffffffff163373ffffffffffffffffffffffffffffffffffffffff1614610349576040517f08c379a000000000000000000000000000000000000000000000000000000000815260040161034090610e7d565b60405180910390fd5b8060040160009054906101000a900460ff161561039b576040517f08c379a000000000000000000000000000000000000000000000000000000000815260040161039290610ee9565b60405180910390fd5b6064816001015482600001546103b19190610f38565b6103bb9190610fa9565b81600001546103ca9190610fda565b341461040b576040517f08c379a0000000000000000000000000000000000000000000000000000000008152600401610402906110a6565b60405180910390fd5b60018160040160006101000a81548160ff02191690831515021790555061048b6040518060400160405280600381526020017f626f7200000000000000000000000000000000000000000000000000000000008152508260040160019054906101000a900473ffffffffffffffffffffffffffffffffffffffff166108c4565b6104ca6040518060400160405280600381526020017f6d73670000000000000000000000000000000000000000000000000000000000815250336108c4565b600160009054906101000a900473ffffffffffffffffffffffffffffffffffffffff1673ffffffffffffffffffffffffffffffffffffffff16638be6e43c8260040160019054906101000a900473ffffffffffffffffffffffffffffffffffffffff166040518263ffffffff1660e01b81526004016105499190611112565b600060405180830381600087803b15801561056357600080fd5b505af1158015610577573d6000803e3d6000fd5b505050505050565b610587610960565b61059160006109de565b565b60008060009054906101000a900473ffffffffffffffffffffffffffffffffffffffff16905090565b600083116105ff576040517f08c379a00000000000000000000000000000000000000000000000000000000081526004016105f69061118c565b60405180910390fd5b60008211610642576040517f08c379a00000000000000000000000000000000000000000000000000000000081526004016106399061121e565b60405180910390fd5b60008111610685576040517f08c379a000000000000000000000000000000000000000000000000000000000815260040161067c9061128a565b60405180910390fd5b60026000815480929190610698906112aa565b91905055506040518060c001604052808481526020018381526020018281526020014281526020016000151581526020013373ffffffffffffffffffffffffffffffffffffffff168152506003600060025481526020019081526020016000206000820151816000015560208201518160010155604082015181600201556060820151816003015560808201518160040160006101000a81548160ff02191690831515021790555060a08201518160040160016101000a81548173ffffffffffffffffffffffffffffffffffffffff021916908373ffffffffffffffffffffffffffffffffffffffff1602179055509050507f76d49d9e0147609a87a0c46037c88aeb761c602df29ec9d11ce12807301596aa60025484848442336040516107c5969594939291906112f2565b60405180910390a1505050565b60025481565b60036020528060005260406000206000915090508060000154908060010154908060020154908060030154908060040160009054906101000a900460ff16908060040160019054906101000a900473ffffffffffffffffffffffffffffffffffffffff16905086565b610849610960565b600073ffffffffffffffffffffffffffffffffffffffff168173ffffffffffffffffffffffffffffffffffffffff16036108b8576040517f08c379a00000000000000000000000000000000000000000000000000000000081526004016108af906113c5565b60405180910390fd5b6108c1816109de565b50565b61095c82826040516024016108da929190611464565b6040516020818303038152906040527f319af333000000000000000000000000000000000000000000000000000000007bffffffffffffffffffffffffffffffffffffffffffffffffffffffff19166020820180517bffffffffffffffffffffffffffffffffffffffffffffffffffffffff8381831617835250505050610aa2565b5050565b610968610acb565b73ffffffffffffffffffffffffffffffffffffffff16610986610593565b73ffffffffffffffffffffffffffffffffffffffff16146109dc576040517f08c379a00000000000000000000000000000000000000000000000000000000081526004016109d3906114e0565b60405180910390fd5b565b60008060009054906101000a900473ffffffffffffffffffffffffffffffffffffffff169050816000806101000a81548173ffffffffffffffffffffffffffffffffffffffff021916908373ffffffffffffffffffffffffffffffffffffffff1602179055508173ffffffffffffffffffffffffffffffffffffffff168173ffffffffffffffffffffffffffffffffffffffff167f8be0079c531659141344cd1fd0a4f28419497f9722a3daafe3b4186f6b6457e060405160405180910390a35050565b60008151905060006a636f6e736f6c652e6c6f679050602083016000808483855afa5050505050565b600033905090565b6040518060c0016040528060008152602001600081526020016000815260200160008152602001600015158152602001600073ffffffffffffffffffffffffffffffffffffffff1681525090565b600080fd5b6000819050919050565b610b3981610b26565b8114610b4457600080fd5b50565b600081359050610b5681610b30565b92915050565b600060208284031215610b7257610b71610b21565b5b6000610b8084828501610b47565b91505092915050565b610b9281610b26565b82525050565b60008115159050919050565b610bad81610b98565b82525050565b600073ffffffffffffffffffffffffffffffffffffffff82169050919050565b6000610bde82610bb3565b9050919050565b610bee81610bd3565b82525050565b60c082016000820151610c0a6000850182610b89565b506020820151610c1d6020850182610b89565b506040820151610c306040850182610b89565b506060820151610c436060850182610b89565b506080820151610c566080850182610ba4565b5060a0820151610c6960a0850182610be5565b50505050565b600060c082019050610c846000830184610bf4565b92915050565b610c9381610bd3565b82525050565b6000602082019050610cae6000830184610c8a565b92915050565b600080600060608486031215610ccd57610ccc610b21565b5b6000610cdb86828701610b47565b9350506020610cec86828701610b47565b9250506040610cfd86828701610b47565b9150509250925092565b610d1081610b26565b82525050565b6000602082019050610d2b6000830184610d07565b92915050565b610d3a81610b98565b82525050565b600060c082019050610d556000830189610d07565b610d626020830188610d07565b610d6f6040830187610d07565b610d7c6060830186610d07565b610d896080830185610d31565b610d9660a0830184610c8a565b979650505050505050565b610daa81610bd3565b8114610db557600080fd5b50565b600081359050610dc781610da1565b92915050565b600060208284031215610de357610de2610b21565b5b6000610df184828501610db8565b91505092915050565b600082825260208201905092915050565b7f4f6e6c792074686520626f72726f7765722063616e20706179206261636b207460008201527f6865206c6f616e00000000000000000000000000000000000000000000000000602082015250565b6000610e67602783610dfa565b9150610e7282610e0b565b604082019050919050565b60006020820190508181036000830152610e9681610e5a565b9050919050565b7f4c6f616e2068617320616c7265616479206265656e2070616964206261636b00600082015250565b6000610ed3601f83610dfa565b9150610ede82610e9d565b602082019050919050565b60006020820190508181036000830152610f0281610ec6565b9050919050565b7f4e487b7100000000000000000000000000000000000000000000000000000000600052601160045260246000fd5b6000610f4382610b26565b9150610f4e83610b26565b9250828202610f5c81610b26565b91508282048414831517610f7357610f72610f09565b5b5092915050565b7f4e487b7100000000000000000000000000000000000000000000000000000000600052601260045260246000fd5b6000610fb482610b26565b9150610fbf83610b26565b925082610fcf57610fce610f7a565b5b828204905092915050565b6000610fe582610b26565b9150610ff083610b26565b925082820190508082111561100857611007610f09565b5b92915050565b7f416d6f756e742073656e74206d75737420626520657175616c20746f2074686560008201527f20616d6f756e7420626f72726f77656420706c75732074686520696e7465726560208201527f7374000000000000000000000000000000000000000000000000000000000000604082015250565b6000611090604283610dfa565b915061109b8261100e565b606082019050919050565b600060208201905081810360008301526110bf81611083565b9050919050565b7f3400000000000000000000000000000000000000000000000000000000000000600082015250565b60006110fc600183610dfa565b9150611107826110c6565b602082019050919050565b60006040820190506111276000830184610c8a565b8181036020830152611138816110ef565b905092915050565b7f416d6f756e74206d7573742062652067726561746572207468616e2030000000600082015250565b6000611176601d83610dfa565b915061118182611140565b602082019050919050565b600060208201905081810360008301526111a581611169565b9050919050565b7f496e7465726573742072617465206d757374206265206772656174657220746860008201527f616e203000000000000000000000000000000000000000000000000000000000602082015250565b6000611208602483610dfa565b9150611213826111ac565b604082019050919050565b60006020820190508181036000830152611237816111fb565b9050919050565b7f4475726174696f6e206d7573742062652067726561746572207468616e203000600082015250565b6000611274601f83610dfa565b915061127f8261123e565b602082019050919050565b600060208201905081810360008301526112a381611267565b9050919050565b60006112b582610b26565b91507fffffffffffffffffffffffffffffffffffffffffffffffffffffffffffffffff82036112e7576112e6610f09565b5b600182019050919050565b600060c0820190506113076000830189610d07565b6113146020830188610d07565b6113216040830187610d07565b61132e6060830186610d07565b61133b6080830185610d07565b61134860a0830184610c8a565b979650505050505050565b7f4f776e61626c653a206e6577206f776e657220697320746865207a65726f206160008201527f6464726573730000000000000000000000000000000000000000000000000000602082015250565b60006113af602683610dfa565b91506113ba82611353565b604082019050919050565b600060208201905081810360008301526113de816113a2565b9050919050565b600081519050919050565b60005b8381101561140e5780820151818401526020810190506113f3565b60008484015250505050565b6000601f19601f8301169050919050565b6000611436826113e5565b6114408185610dfa565b93506114508185602086016113f0565b6114598161141a565b840191505092915050565b6000604082019050818103600083015261147e818561142b565b905061148d6020830184610c8a565b9392505050565b7f4f776e61626c653a2063616c6c6572206973206e6f7420746865206f776e6572600082015250565b60006114ca602083610dfa565b91506114d582611494565b602082019050919050565b600060208201905081810360008301526114f9816114bd565b905091905056fea26469706673582212209aa7f580dfc7ea329830ec0bf5d62c370961d70b392ad23e84948c5500ddb8b364736f6c63430008130033",
  "linkReferences": {},
  "deployedLinkReferences": {}
}