{
  "_format": "hh-sol-artifact-1",
  "contractName": "Credit",
  "sourceName": "contracts/Credit.sol",
  "abi": [
    {
      "inputs": [],
      "stateMutability": "nonpayable",
      "type": "constructor"
    },
    {
      "anonymous": false,
      "inputs": [
        {
          "indexed": false,
          "internalType": "uint256",
          "name": "loanId",
          "type": "uint256"
        },
        {
          "indexed": false,
          "internalType": "uint256",
          "name": "amount",
          "type": "uint256"
        },
        {
          "indexed": false,
          "internalType": "uint256",
          "name": "interestRate",
          "type": "uint256"
        },
        {
          "indexed": false,
          "internalType": "uint256",
          "name": "durationInDays",
          "type": "uint256"
        },
        {
          "indexed": false,
          "internalType": "uint256",
          "name": "startTimestamp",
          "type": "uint256"
        },
        {
          "indexed": false,
          "internalType": "address",
          "name": "borrower",
          "type": "address"
        }
      ],
      "name": "NewLoan",
      "type": "event"
    },
    {
      "anonymous": false,
      "inputs": [
        {
          "indexed": true,
          "internalType": "address",
          "name": "previousOwner",
          "type": "address"
        },
        {
          "indexed": true,
          "internalType": "address",
          "name": "newOwner",
          "type": "address"
        }
      ],
      "name": "OwnershipTransferred",
      "type": "event"
    },
    {
      "inputs": [
        {
          "internalType": "uint256",
          "name": "_amount",
          "type": "uint256"
        },
        {
          "internalType": "uint256",
          "name": "_interestRate",
          "type": "uint256"
        },
        {
          "internalType": "uint256",
          "name": "_durationInDays",
          "type": "uint256"
        }
      ],
      "name": "createLoan",
      "outputs": [],
      "stateMutability": "nonpayable",
      "type": "function"
    },
    {
      "inputs": [
        {
          "internalType": "uint256",
          "name": "_loanId",
          "type": "uint256"
        }
      ],
      "name": "getLoan",
      "outputs": [
        {
          "components": [
            {
              "internalType": "uint256",
              "name": "amount",
              "type": "uint256"
            },
            {
              "internalType": "uint256",
              "name": "interestRate",
              "type": "uint256"
            },
            {
              "internalType": "uint256",
              "name": "durationInDays",
              "type": "uint256"
            },
            {
              "internalType": "uint256",
              "name": "startTimestamp",
              "type": "uint256"
            },
            {
              "internalType": "bool",
              "name": "paidBack",
              "type": "bool"
            },
            {
              "internalType": "address",
              "name": "borrower",
              "type": "address"
            }
          ],
          "internalType": "struct Credit.Loan",
          "name": "loan",
          "type": "tuple"
        }
      ],
      "stateMutability": "view",
      "type": "function"
    },
    {
      "inputs": [
        {
          "internalType": "uint256",
          "name": "",
          "type": "uint256"
        }
      ],
      "name": "loans",
      "outputs": [
        {
          "internalType": "uint256",
          "name": "amount",
          "type": "uint256"
        },
        {
          "internalType": "uint256",
          "name": "interestRate",
          "type": "uint256"
        },
        {
          "internalType": "uint256",
          "name": "durationInDays",
          "type": "uint256"
        },
        {
          "internalType": "uint256",
          "name": "startTimestamp",
          "type": "uint256"
        },
        {
          "internalType": "bool",
          "name": "paidBack",
          "type": "bool"
        },
        {
          "internalType": "address",
          "name": "borrower",
          "type": "address"
        }
      ],
      "stateMutability": "view",
      "type": "function"
    },
    {
      "inputs": [],
      "name": "nftContract",
      "outputs": [
        {
          "internalType": "contract NFT",
          "name": "",
          "type": "address"
        }
      ],
      "stateMutability": "view",
      "type": "function"
    },
    {
      "inputs": [],
      "name": "owner",
      "outputs": [
        {
          "internalType": "address",
          "name": "",
          "type": "address"
        }
      ],
      "stateMutability": "view",
      "type": "function"
    },
    {
      "inputs": [
        {
          "internalType": "uint256",
          "name": "_loanId",
          "type": "uint256"
        }
      ],
      "name": "payBackLoan",
      "outputs": [],
      "stateMutability": "payable",
      "type": "function"
    },
    {
      "inputs": [],
      "name": "renounceOwnership",
      "outputs": [],
      "stateMutability": "nonpayable",
      "type": "function"
    },
    {
      "inputs": [],
      "name": "totalLoans",
      "outputs": [
        {
          "internalType": "uint256",
          "name": "",
          "type": "uint256"
        }
      ],
      "stateMutability": "view",
      "type": "function"
    },
    {
      "inputs": [
        {
          "internalType": "address",
          "name": "newOwner",
          "type": "address"
        }
      ],
      "name": "transferOwnership",
      "outputs": [],
      "stateMutability": "nonpayable",
      "type": "function"
    }
  ],
  "bytecode": "0x608060405234801561001057600080fd5b5061002d61002261008760201b60201c565b61008f60201b60201c565b73f89e7f48a4c31cc26f7069291b041a4fcedb92db600160006101000a81548173ffffffffffffffffffffffffffffffffffffffff021916908373ffffffffffffffffffffffffffffffffffffffff160217905550610153565b600033905090565b60008060009054906101000a900473ffffffffffffffffffffffffffffffffffffffff169050816000806101000a81548173ffffffffffffffffffffffffffffffffffffffff021916908373ffffffffffffffffffffffffffffffffffffffff1602179055508173ffffffffffffffffffffffffffffffffffffffff168173ffffffffffffffffffffffffffffffffffffffff167f8be0079c531659141344cd1fd0a4f28419497f9722a3daafe3b4186f6b6457e060405160405180910390a35050565b6113d2806101626000396000f3fe6080604052600436106100865760003560e01c8063904b513b11610059578063904b513b14610126578063cc952b571461014f578063d56d229d1461017a578063e1ec3c68146101a5578063f2fde38b146101e757610086565b8063504006ca1461008b5780636faa8b3f146100c8578063715018a6146100e45780638da5cb5b146100fb575b600080fd5b34801561009757600080fd5b506100b260048036038101906100ad9190610a2d565b610210565b6040516100bf9190610b40565b60405180910390f35b6100e260048036038101906100dd9190610a2d565b6102d6565b005b3480156100f057600080fd5b506100f96104ef565b005b34801561010757600080fd5b50610110610503565b60405161011d9190610b6a565b60405180910390f35b34801561013257600080fd5b5061014d60048036038101906101489190610b85565b61052c565b005b34801561015b57600080fd5b50610164610742565b6040516101719190610be7565b60405180910390f35b34801561018657600080fd5b5061018f610748565b60405161019c9190610c61565b60405180910390f35b3480156101b157600080fd5b506101cc60048036038101906101c79190610a2d565b61076e565b6040516101de96959493929190610c8b565b60405180910390f35b3480156101f357600080fd5b5061020e60048036038101906102099190610d18565b6107d7565b005b6102186109a4565b600360008381526020019081526020016000206040518060c0016040529081600082015481526020016001820154815260200160028201548152602001600382015481526020016004820160009054906101000a900460ff161515151581526020016004820160019054906101000a900473ffffffffffffffffffffffffffffffffffffffff1673ffffffffffffffffffffffffffffffffffffffff1673ffffffffffffffffffffffffffffffffffffffff16815250509050919050565b60006003600083815260200190815260200160002090508060040160019054906101000a900473ffffffffffffffffffffffffffffffffffffffff1673ffffffffffffffffffffffffffffffffffffffff163373ffffffffffffffffffffffffffffffffffffffff161461037f576040517f08c379a000000000000000000000000000000000000000000000000000000000815260040161037690610dc8565b60405180910390fd5b8060040160009054906101000a900460ff16156103d1576040517f08c379a00000000000000000000000000000000000000000000000000000000081526004016103c890610e34565b60405180910390fd5b6064816001015482600001546103e79190610e83565b6103f19190610ef4565b81600001546104009190610f25565b3414610441576040517f08c379a000000000000000000000000000000000000000000000000000000000815260040161043890610ff1565b60405180910390fd5b60018160040160006101000a81548160ff021916908315150217905550600160009054906101000a900473ffffffffffffffffffffffffffffffffffffffff1673ffffffffffffffffffffffffffffffffffffffff16638be6e43c336040518263ffffffff1660e01b81526004016104b9919061105d565b600060405180830381600087803b1580156104d357600080fd5b505af11580156104e7573d6000803e3d6000fd5b505050505050565b6104f761085a565b61050160006108d8565b565b60008060009054906101000a900473ffffffffffffffffffffffffffffffffffffffff16905090565b6000831161056f576040517f08c379a0000000000000000000000000000000000000000000000000000000008152600401610566906110d7565b60405180910390fd5b600082116105b2576040517f08c379a00000000000000000000000000000000000000000000000000000000081526004016105a990611169565b60405180910390fd5b600081116105f5576040517f08c379a00000000000000000000000000000000000000000000000000000000081526004016105ec906111d5565b60405180910390fd5b60026000815480929190610608906111f5565b91905055506040518060c001604052808481526020018381526020018281526020014281526020016000151581526020013373ffffffffffffffffffffffffffffffffffffffff168152506003600060025481526020019081526020016000206000820151816000015560208201518160010155604082015181600201556060820151816003015560808201518160040160006101000a81548160ff02191690831515021790555060a08201518160040160016101000a81548173ffffffffffffffffffffffffffffffffffffffff021916908373ffffffffffffffffffffffffffffffffffffffff1602179055509050507f76d49d9e0147609a87a0c46037c88aeb761c602df29ec9d11ce12807301596aa60025484848442336040516107359695949392919061123d565b60405180910390a1505050565b60025481565b600160009054906101000a900473ffffffffffffffffffffffffffffffffffffffff1681565b60036020528060005260406000206000915090508060000154908060010154908060020154908060030154908060040160009054906101000a900460ff16908060040160019054906101000a900473ffffffffffffffffffffffffffffffffffffffff16905086565b6107df61085a565b600073ffffffffffffffffffffffffffffffffffffffff168173ffffffffffffffffffffffffffffffffffffffff160361084e576040517f08c379a000000000000000000000000000000000000000000000000000000000815260040161084590611310565b60405180910390fd5b610857816108d8565b50565b61086261099c565b73ffffffffffffffffffffffffffffffffffffffff16610880610503565b73ffffffffffffffffffffffffffffffffffffffff16146108d6576040517f08c379a00000000000000000000000000000000000000000000000000000000081526004016108cd9061137c565b60405180910390fd5b565b60008060009054906101000a900473ffffffffffffffffffffffffffffffffffffffff169050816000806101000a81548173ffffffffffffffffffffffffffffffffffffffff021916908373ffffffffffffffffffffffffffffffffffffffff1602179055508173ffffffffffffffffffffffffffffffffffffffff168173ffffffffffffffffffffffffffffffffffffffff167f8be0079c531659141344cd1fd0a4f28419497f9722a3daafe3b4186f6b6457e060405160405180910390a35050565b600033905090565b6040518060c0016040528060008152602001600081526020016000815260200160008152602001600015158152602001600073ffffffffffffffffffffffffffffffffffffffff1681525090565b600080fd5b6000819050919050565b610a0a816109f7565b8114610a1557600080fd5b50565b600081359050610a2781610a01565b92915050565b600060208284031215610a4357610a426109f2565b5b6000610a5184828501610a18565b91505092915050565b610a63816109f7565b82525050565b60008115159050919050565b610a7e81610a69565b82525050565b600073ffffffffffffffffffffffffffffffffffffffff82169050919050565b6000610aaf82610a84565b9050919050565b610abf81610aa4565b82525050565b60c082016000820151610adb6000850182610a5a565b506020820151610aee6020850182610a5a565b506040820151610b016040850182610a5a565b506060820151610b146060850182610a5a565b506080820151610b276080850182610a75565b5060a0820151610b3a60a0850182610ab6565b50505050565b600060c082019050610b556000830184610ac5565b92915050565b610b6481610aa4565b82525050565b6000602082019050610b7f6000830184610b5b565b92915050565b600080600060608486031215610b9e57610b9d6109f2565b5b6000610bac86828701610a18565b9350506020610bbd86828701610a18565b9250506040610bce86828701610a18565b9150509250925092565b610be1816109f7565b82525050565b6000602082019050610bfc6000830184610bd8565b92915050565b6000819050919050565b6000610c27610c22610c1d84610a84565b610c02565b610a84565b9050919050565b6000610c3982610c0c565b9050919050565b6000610c4b82610c2e565b9050919050565b610c5b81610c40565b82525050565b6000602082019050610c766000830184610c52565b92915050565b610c8581610a69565b82525050565b600060c082019050610ca06000830189610bd8565b610cad6020830188610bd8565b610cba6040830187610bd8565b610cc76060830186610bd8565b610cd46080830185610c7c565b610ce160a0830184610b5b565b979650505050505050565b610cf581610aa4565b8114610d0057600080fd5b50565b600081359050610d1281610cec565b92915050565b600060208284031215610d2e57610d2d6109f2565b5b6000610d3c84828501610d03565b91505092915050565b600082825260208201905092915050565b7f4f6e6c792074686520626f72726f7765722063616e20706179206261636b207460008201527f6865206c6f616e00000000000000000000000000000000000000000000000000602082015250565b6000610db2602783610d45565b9150610dbd82610d56565b604082019050919050565b60006020820190508181036000830152610de181610da5565b9050919050565b7f4c6f616e2068617320616c7265616479206265656e2070616964206261636b00600082015250565b6000610e1e601f83610d45565b9150610e2982610de8565b602082019050919050565b60006020820190508181036000830152610e4d81610e11565b9050919050565b7f4e487b7100000000000000000000000000000000000000000000000000000000600052601160045260246000fd5b6000610e8e826109f7565b9150610e99836109f7565b9250828202610ea7816109f7565b91508282048414831517610ebe57610ebd610e54565b5b5092915050565b7f4e487b7100000000000000000000000000000000000000000000000000000000600052601260045260246000fd5b6000610eff826109f7565b9150610f0a836109f7565b925082610f1a57610f19610ec5565b5b828204905092915050565b6000610f30826109f7565b9150610f3b836109f7565b9250828201905080821115610f5357610f52610e54565b5b92915050565b7f416d6f756e742073656e74206d75737420626520657175616c20746f2074686560008201527f20616d6f756e7420626f72726f77656420706c75732074686520696e7465726560208201527f7374000000000000000000000000000000000000000000000000000000000000604082015250565b6000610fdb604283610d45565b9150610fe682610f59565b606082019050919050565b6000602082019050818103600083015261100a81610fce565b9050919050565b7f3300000000000000000000000000000000000000000000000000000000000000600082015250565b6000611047600183610d45565b915061105282611011565b602082019050919050565b60006040820190506110726000830184610b5b565b81810360208301526110838161103a565b905092915050565b7f416d6f756e74206d7573742062652067726561746572207468616e2030000000600082015250565b60006110c1601d83610d45565b91506110cc8261108b565b602082019050919050565b600060208201905081810360008301526110f0816110b4565b9050919050565b7f496e7465726573742072617465206d757374206265206772656174657220746860008201527f616e203000000000000000000000000000000000000000000000000000000000602082015250565b6000611153602483610d45565b915061115e826110f7565b604082019050919050565b6000602082019050818103600083015261118281611146565b9050919050565b7f4475726174696f6e206d7573742062652067726561746572207468616e203000600082015250565b60006111bf601f83610d45565b91506111ca82611189565b602082019050919050565b600060208201905081810360008301526111ee816111b2565b9050919050565b6000611200826109f7565b91507fffffffffffffffffffffffffffffffffffffffffffffffffffffffffffffffff820361123257611231610e54565b5b600182019050919050565b600060c0820190506112526000830189610bd8565b61125f6020830188610bd8565b61126c6040830187610bd8565b6112796060830186610bd8565b6112866080830185610bd8565b61129360a0830184610b5b565b979650505050505050565b7f4f776e61626c653a206e6577206f776e657220697320746865207a65726f206160008201527f6464726573730000000000000000000000000000000000000000000000000000602082015250565b60006112fa602683610d45565b91506113058261129e565b604082019050919050565b60006020820190508181036000830152611329816112ed565b9050919050565b7f4f776e61626c653a2063616c6c6572206973206e6f7420746865206f776e6572600082015250565b6000611366602083610d45565b915061137182611330565b602082019050919050565b6000602082019050818103600083015261139581611359565b905091905056fea26469706673582212209e682738ae52e03893dd552720d1f028d403443553ad12b6681427178e11d2f164736f6c63430008130033",
  "linkReferences": {},
  "deployedLinkReferences": {}
}